{
  "contractName": "CardLib",
  "abi": [
    {
      "inputs": [
        {
          "internalType": "string",
          "name": "_rank",
          "type": "string"
        },
        {
          "internalType": "string",
          "name": "_suit",
          "type": "string"
        }
      ],
      "name": "createCard",
      "outputs": [
        {
          "components": [
            {
              "internalType": "string",
              "name": "rank",
              "type": "string"
            },
            {
              "internalType": "string",
              "name": "suit",
              "type": "string"
            }
          ],
          "internalType": "struct CardLib.Card",
          "name": "",
          "type": "tuple"
        }
      ],
      "stateMutability": "pure",
      "type": "function",
      "constant": true
    },
    {
      "inputs": [],
      "name": "createDeck",
      "outputs": [
        {
          "components": [
            {
              "internalType": "string",
              "name": "rank",
              "type": "string"
            },
            {
              "internalType": "string",
              "name": "suit",
              "type": "string"
            }
          ],
          "internalType": "struct CardLib.Card[52]",
          "name": "",
          "type": "tuple[52]"
        }
      ],
      "stateMutability": "view",
      "type": "function",
      "constant": true
    }
  ],
  "bytecode": "0x610d97610053600b82828239805160001a607314610046577f4e487b7100000000000000000000000000000000000000000000000000000000600052600060045260246000fd5b30600052607381538281f3fe73000000000000000000000000000000000000000030146080604052600436106100405760003560e01c806309c8cfb314610045578063e6624c3214610075575b600080fd5b61005f600480360381019061005a9190610832565b610093565b60405161006c9190610a4d565b60405180910390f35b61007d6100be565b60405161008a9190610a2b565b60405180910390f35b61009b610782565b600060405180604001604052808581526020018481525090508091505092915050565b6100c661079c565b6100ce61079c565b6000604051806101a001604052806040518060400160405280600181526020017f320000000000000000000000000000000000000000000000000000000000000081525081526020016040518060400160405280600181526020017f330000000000000000000000000000000000000000000000000000000000000081525081526020016040518060400160405280600181526020017f340000000000000000000000000000000000000000000000000000000000000081525081526020016040518060400160405280600181526020017f350000000000000000000000000000000000000000000000000000000000000081525081526020016040518060400160405280600181526020017f360000000000000000000000000000000000000000000000000000000000000081525081526020016040518060400160405280600181526020017f370000000000000000000000000000000000000000000000000000000000000081525081526020016040518060400160405280600181526020017f380000000000000000000000000000000000000000000000000000000000000081525081526020016040518060400160405280600181526020017f390000000000000000000000000000000000000000000000000000000000000081525081526020016040518060400160405280600281526020017f313000000000000000000000000000000000000000000000000000000000000081525081526020016040518060400160405280600481526020017f4a61636b0000000000000000000000000000000000000000000000000000000081525081526020016040518060400160405280600581526020017f517565656e00000000000000000000000000000000000000000000000000000081525081526020016040518060400160405280600481526020017f4b696e670000000000000000000000000000000000000000000000000000000081525081526020016040518060400160405280600381526020017f41636500000000000000000000000000000000000000000000000000000000008152508152509050600060405180608001604052806040518060400160405280600881526020017f4469616d6f6e647300000000000000000000000000000000000000000000000081525081526020016040518060400160405280600681526020017f537061646573000000000000000000000000000000000000000000000000000081525081526020016040518060400160405280600581526020017f436c75627300000000000000000000000000000000000000000000000000000081525081526020016040518060400160405280600681526020017f486561727473000000000000000000000000000000000000000000000000000081525081525090506000805b600d8110156105e95760005b60048110156105d557600060405180604001604052806040518060400160405280600381526020017f416365000000000000000000000000000000000000000000000000000000000081525081526020016040518060400160405280600681526020017f53706164657300000000000000000000000000000000000000000000000000008152508152509050808785603481106105aa577f4e487b7100000000000000000000000000000000000000000000000000000000600052603260045260246000fd5b60200201819052506001846105bf9190610b0e565b93505080806105cd90610c3f565b9150506104e4565b5080806105e190610c3f565b9150506104d8565b506105f3846105fd565b8394505050505090565b60006034905060006001826106129190610b64565b90505b600081111561077d57600060018261062d9190610b0e565b42836040516020016106409291906109ff565b6040516020818303038152906040528051906020012060001c6106639190610c92565b905060008483603481106106a0577f4e487b7100000000000000000000000000000000000000000000000000000000600052603260045260246000fd5b602002015190508482603481106106e0577f4e487b7100000000000000000000000000000000000000000000000000000000600052603260045260246000fd5b602002015185846034811061071e577f4e487b7100000000000000000000000000000000000000000000000000000000600052603260045260246000fd5b602002018190525080858360348110610760577f4e487b7100000000000000000000000000000000000000000000000000000000600052603260045260246000fd5b60200201819052505050808061077590610be4565b915050610615565b505050565b604051806040016040528060608152602001606081525090565b6040518061068001604052806034905b6107b4610782565b8152602001906001900390816107ac5790505090565b60006107dd6107d884610a94565b610a6f565b9050828152602081018484840111156107f557600080fd5b610800848285610ba2565b509392505050565b600082601f83011261081957600080fd5b81356108298482602086016107ca565b91505092915050565b6000806040838503121561084557600080fd5b600083013567ffffffffffffffff81111561085f57600080fd5b61086b85828601610808565b925050602083013567ffffffffffffffff81111561088857600080fd5b61089485828601610808565b9150509250929050565b60006108aa83836109a4565b905092915050565b60006108bd82610acf565b6108c78185610af2565b9350836020820285016108d985610ac5565b8060005b8581101561091557848403895281516108f6858261089e565b945061090183610ae5565b925060208a019950506001810190506108dd565b50829750879550505050505092915050565b600061093282610ada565b61093c8185610afd565b935061094c818560208601610bb1565b61095581610d50565b840191505092915050565b6000604083016000830151848203600086015261097d8282610927565b915050602083015184820360208601526109978282610927565b9150508091505092915050565b600060408301600083015184820360008601526109c18282610927565b915050602083015184820360208601526109db8282610927565b9150508091505092915050565b6109f96109f482610b98565b610c88565b82525050565b6000610a0b82856109e8565b602082019150610a1b82846109e8565b6020820191508190509392505050565b60006020820190508181036000830152610a4581846108b2565b905092915050565b60006020820190508181036000830152610a678184610960565b905092915050565b6000610a79610a8a565b9050610a858282610c0e565b919050565b6000604051905090565b600067ffffffffffffffff821115610aaf57610aae610d21565b5b610ab882610d50565b9050602081019050919050565b6000819050919050565b600060349050919050565b600081519050919050565b6000602082019050919050565b600081905092915050565b600082825260208201905092915050565b6000610b1982610b98565b9150610b2483610b98565b9250827fffffffffffffffffffffffffffffffffffffffffffffffffffffffffffffffff03821115610b5957610b58610cc3565b5b828201905092915050565b6000610b6f82610b98565b9150610b7a83610b98565b925082821015610b8d57610b8c610cc3565b5b828203905092915050565b6000819050919050565b82818337600083830152505050565b60005b83811015610bcf578082015181840152602081019050610bb4565b83811115610bde576000848401525b50505050565b6000610bef82610b98565b91506000821415610c0357610c02610cc3565b5b600182039050919050565b610c1782610d50565b810181811067ffffffffffffffff82111715610c3657610c35610d21565b5b80604052505050565b6000610c4a82610b98565b91507fffffffffffffffffffffffffffffffffffffffffffffffffffffffffffffffff821415610c7d57610c7c610cc3565b5b600182019050919050565b6000819050919050565b6000610c9d82610b98565b9150610ca883610b98565b925082610cb857610cb7610cf2565b5b828206905092915050565b7f4e487b7100000000000000000000000000000000000000000000000000000000600052601160045260246000fd5b7f4e487b7100000000000000000000000000000000000000000000000000000000600052601260045260246000fd5b7f4e487b7100000000000000000000000000000000000000000000000000000000600052604160045260246000fd5b6000601f19601f830116905091905056fea2646970667358221220bb7df91fe85271d0d1fc78b6d41ac758a1c498a2c887e10c36f5655132b8df3964736f6c63430008020033",
  "immutableReferences": {},
  "source": "// SPDX-License-Identifier: MIT\r\n// @ Author: Bertan Berker\r\n// @ Filename: CardLib.sol\r\n// This is a library that the Poker smart contract imports for card gameplay\r\n\r\npragma solidity ^0.8.2;\r\n\r\nlibrary CardLib{\r\n\r\n\tstruct Card {\r\n\t\tstring rank;\r\n\t\tstring suit;\r\n\t}\r\n\t\r\n\tfunction createCard(string memory _rank, string memory _suit) public pure returns (Card memory) {\r\n    \tCard memory card = Card({\r\n            rank: _rank,\r\n            suit: _suit\r\n        });\r\n        return card;\r\n    }\r\n\r\n\tfunction createDeck() public view returns (Card[52] memory) {\r\n\t\tCard[52] memory deck;\r\n\t\tstring[13] memory ranks = [\"2\", \"3\", \"4\", \"5\", \"6\", \"7\", \"8\", \"9\", \"10\", \"Jack\", \"Queen\", \"King\", \"Ace\"];\r\n\t\tstring[4] memory suits = [\"Diamonds\", \"Spades\", \"Clubs\", \"Hearts\"];\r\n\t\tuint count = 0;\r\n\r\n\t\tfor (uint i = 0; i < ranks.length; i++) {\t\r\n\t\t\tfor (uint j = 0; j < suits.length; j++) {\r\n\t\t\t\tCard memory card = Card({\r\n            \t\trank: \"Ace\",\r\n            \t\tsuit: \"Spades\"\r\n        \t\t});\r\n\r\n\t\t\t\tdeck[count] = card;\r\n\t\t\t\tcount += 1;\r\n\t\t\t}\r\n\t\t}\r\n    \t\r\n\t\tshuffleDeck(deck);    \r\n        return deck;\r\n\t}\r\n\r\n\t// Function to shuffle the deck using Fisher-Yates algorithm\r\n\tfunction shuffleDeck(Card[52] memory deck) internal view {\r\n        uint n = deck.length;\r\n        for (uint i = n - 1; i > 0; i--) {\r\n            uint j = uint(keccak256(abi.encodePacked(block.timestamp, i))) % (i + 1);\r\n            Card memory temp = deck[i];\r\n            deck[i] = deck[j];\r\n            deck[j] = temp;\r\n        }\r\n    }\r\n\r\n\r\n\r\n\r\n\r\n}",
  "sourcePath": "C:\\Users\\berta\\Desktop\\Poker-Bot\\PokerSmartContract\\contracts\\CardLib.sol",
  "compiler": {
    "name": "solc",
    "version": "0.8.2+commit.661d1103.Emscripten.clang"
  },
  "schemaVersion": "3.4.16",
  "updatedAt": "2024-06-22T17:55:52.608Z",
  "networkType": "ethereum",
  "devdoc": {
    "kind": "dev",
    "methods": {},
    "version": 1
  },
  "userdoc": {
    "kind": "user",
    "methods": {},
    "version": 1
  }
}