{
  "contractName": "CardLib",
  "abi": [
    {
      "inputs": [
        {
          "internalType": "string",
          "name": "_rank",
          "type": "string"
        },
        {
          "internalType": "string",
          "name": "_suit",
          "type": "string"
        }
      ],
      "name": "createCard",
      "outputs": [
        {
          "components": [
            {
              "internalType": "string",
              "name": "rank",
              "type": "string"
            },
            {
              "internalType": "string",
              "name": "suit",
              "type": "string"
            }
          ],
          "internalType": "struct CardLib.Card",
          "name": "",
          "type": "tuple"
        }
      ],
      "stateMutability": "pure",
      "type": "function"
    },
    {
      "inputs": [],
      "name": "createDeck",
      "outputs": [
        {
          "components": [
            {
              "internalType": "string",
              "name": "rank",
              "type": "string"
            },
            {
              "internalType": "string",
              "name": "suit",
              "type": "string"
            }
          ],
          "internalType": "struct CardLib.Card[52]",
          "name": "",
          "type": "tuple[52]"
        }
      ],
      "stateMutability": "view",
      "type": "function"
    }
  ],
  "bytecode": "0x610cc161004e600b8282823980515f1a607314610042577f4e487b71000000000000000000000000000000000000000000000000000000005f525f60045260245ffd5b305f52607381538281f3fe730000000000000000000000000000000000000000301460806040526004361061003f575f3560e01c806309c8cfb314610043578063e6624c3214610073575b5f80fd5b61005d6004803603810190610058919061084b565b610091565b60405161006a919061097c565b60405180910390f35b61007b6100bb565b6040516100889190610a8c565b60405180910390f35b6100996106b6565b5f60405180604001604052808581526020018481525090508091505092915050565b6100c36106d0565b6100cb6106d0565b5f604051806101a001604052806040518060400160405280600181526020017f320000000000000000000000000000000000000000000000000000000000000081525081526020016040518060400160405280600181526020017f330000000000000000000000000000000000000000000000000000000000000081525081526020016040518060400160405280600181526020017f340000000000000000000000000000000000000000000000000000000000000081525081526020016040518060400160405280600181526020017f350000000000000000000000000000000000000000000000000000000000000081525081526020016040518060400160405280600181526020017f360000000000000000000000000000000000000000000000000000000000000081525081526020016040518060400160405280600181526020017f370000000000000000000000000000000000000000000000000000000000000081525081526020016040518060400160405280600181526020017f380000000000000000000000000000000000000000000000000000000000000081525081526020016040518060400160405280600181526020017f390000000000000000000000000000000000000000000000000000000000000081525081526020016040518060400160405280600281526020017f313000000000000000000000000000000000000000000000000000000000000081525081526020016040518060400160405280600481526020017f4a61636b0000000000000000000000000000000000000000000000000000000081525081526020016040518060400160405280600581526020017f517565656e00000000000000000000000000000000000000000000000000000081525081526020016040518060400160405280600481526020017f4b696e670000000000000000000000000000000000000000000000000000000081525081526020016040518060400160405280600381526020017f416365000000000000000000000000000000000000000000000000000000000081525081525090505f60405180608001604052806040518060400160405280600881526020017f4469616d6f6e647300000000000000000000000000000000000000000000000081525081526020016040518060400160405280600681526020017f537061646573000000000000000000000000000000000000000000000000000081525081526020016040518060400160405280600581526020017f436c75627300000000000000000000000000000000000000000000000000000081525081526020016040518060400160405280600681526020017f486561727473000000000000000000000000000000000000000000000000000081525081525090505f805b600d8110156105bb575f5b60048110156105a7575f60405180604001604052806040518060400160405280600381526020017f416365000000000000000000000000000000000000000000000000000000000081525081526020016040518060400160405280600681526020017f537061646573000000000000000000000000000000000000000000000000000081525081525090508087856034811061057c5761057b610aac565b5b60200201819052506001846105919190610b0f565b935050808061059f90610b42565b9150506104dd565b5080806105b390610b42565b9150506104d2565b506105c5846105cf565b8394505050505090565b5f603490505f6001826105e29190610b89565b90505b5f8111156106b1575f6001826105fb9190610b0f565b428360405160200161060e929190610bdc565b604051602081830303815290604052805190602001205f1c6106309190610c34565b90505f84836034811061064657610645610aac565b5b602002015190508482603481106106605761065f610aac565b5b602002015185846034811061067857610677610aac565b5b60200201819052508085836034811061069457610693610aac565b5b6020020181905250505080806106a990610c64565b9150506105e5565b505050565b604051806040016040528060608152602001606081525090565b6040518061068001604052806034905b6106e86106b6565b8152602001906001900390816106e05790505090565b5f604051905090565b5f80fd5b5f80fd5b5f80fd5b5f80fd5b5f601f19601f8301169050919050565b7f4e487b71000000000000000000000000000000000000000000000000000000005f52604160045260245ffd5b61075d82610717565b810181811067ffffffffffffffff8211171561077c5761077b610727565b5b80604052505050565b5f61078e6106fe565b905061079a8282610754565b919050565b5f67ffffffffffffffff8211156107b9576107b8610727565b5b6107c282610717565b9050602081019050919050565b828183375f83830152505050565b5f6107ef6107ea8461079f565b610785565b90508281526020810184848401111561080b5761080a610713565b5b6108168482856107cf565b509392505050565b5f82601f8301126108325761083161070f565b5b81356108428482602086016107dd565b91505092915050565b5f806040838503121561086157610860610707565b5b5f83013567ffffffffffffffff81111561087e5761087d61070b565b5b61088a8582860161081e565b925050602083013567ffffffffffffffff8111156108ab576108aa61070b565b5b6108b78582860161081e565b9150509250929050565b5f81519050919050565b5f82825260208201905092915050565b5f5b838110156108f85780820151818401526020810190506108dd565b5f8484015250505050565b5f61090d826108c1565b61091781856108cb565b93506109278185602086016108db565b61093081610717565b840191505092915050565b5f604083015f8301518482035f8601526109558282610903565b9150506020830151848203602086015261096f8282610903565b9150508091505092915050565b5f6020820190508181035f830152610994818461093b565b905092915050565b5f60349050919050565b5f81905092915050565b5f819050919050565b5f604083015f8301518482035f8601526109d38282610903565b915050602083015184820360208601526109ed8282610903565b9150508091505092915050565b5f610a0583836109b9565b905092915050565b5f602082019050919050565b5f610a238261099c565b610a2d81856109a6565b935083602082028501610a3f856109b0565b805f5b85811015610a7a5784840389528151610a5b85826109fa565b9450610a6683610a0d565b925060208a01995050600181019050610a42565b50829750879550505050505092915050565b5f6020820190508181035f830152610aa48184610a19565b905092915050565b7f4e487b71000000000000000000000000000000000000000000000000000000005f52603260045260245ffd5b5f819050919050565b7f4e487b71000000000000000000000000000000000000000000000000000000005f52601160045260245ffd5b5f610b1982610ad9565b9150610b2483610ad9565b9250828201905080821115610b3c57610b3b610ae2565b5b92915050565b5f610b4c82610ad9565b91507fffffffffffffffffffffffffffffffffffffffffffffffffffffffffffffffff8203610b7e57610b7d610ae2565b5b600182019050919050565b5f610b9382610ad9565b9150610b9e83610ad9565b9250828203905081811115610bb657610bb5610ae2565b5b92915050565b5f819050919050565b610bd6610bd182610ad9565b610bbc565b82525050565b5f610be78285610bc5565b602082019150610bf78284610bc5565b6020820191508190509392505050565b7f4e487b71000000000000000000000000000000000000000000000000000000005f52601260045260245ffd5b5f610c3e82610ad9565b9150610c4983610ad9565b925082610c5957610c58610c07565b5b828206905092915050565b5f610c6e82610ad9565b91505f8203610c8057610c7f610ae2565b5b60018203905091905056fea2646970667358221220ae4f41c402d426e7d339e9a53cebf0cc1af45ec93f0e92a3f635b08b48a41fb264736f6c63430008150033",
  "immutableReferences": {},
  "source": "// SPDX-License-Identifier: MIT\r\n// @ Author: Bertan Berker\r\n// @ Filename: CardLib.sol\r\n// This is a library that the Poker smart contract imports for card gameplay\r\n\r\npragma solidity ^0.8.2;\r\n\r\nlibrary CardLib{\r\n\r\n\tstruct Card {\r\n\t\tstring rank;\r\n\t\tstring suit;\r\n\t}\r\n\t\r\n\tfunction createCard(string memory _rank, string memory _suit) public pure returns (Card memory) {\r\n    \tCard memory card = Card({\r\n            rank: _rank,\r\n            suit: _suit\r\n        });\r\n        return card;\r\n    }\r\n\r\n\tfunction createDeck() public view returns (Card[52] memory) {\r\n\t\tCard[52] memory deck;\r\n\t\tstring[13] memory ranks = [\"2\", \"3\", \"4\", \"5\", \"6\", \"7\", \"8\", \"9\", \"10\", \"Jack\", \"Queen\", \"King\", \"Ace\"];\r\n\t\tstring[4] memory suits = [\"Diamonds\", \"Spades\", \"Clubs\", \"Hearts\"];\r\n\t\tuint count = 0;\r\n\r\n\t\tfor (uint i = 0; i < ranks.length; i++) {\t\r\n\t\t\tfor (uint j = 0; j < suits.length; j++) {\r\n\t\t\t\tCard memory card = Card({\r\n            \t\trank: \"Ace\",\r\n            \t\tsuit: \"Spades\"\r\n        \t\t});\r\n\r\n\t\t\t\tdeck[count] = card;\r\n\t\t\t\tcount += 1;\r\n\t\t\t}\r\n\t\t}\r\n    \t\r\n\t\tshuffleDeck(deck);    \r\n        return deck;\r\n\t}\r\n\r\n\t// Function to shuffle the deck using Fisher-Yates algorithm\r\n\tfunction shuffleDeck(Card[52] memory deck) internal view {\r\n        uint n = deck.length;\r\n        for (uint i = n - 1; i > 0; i--) {\r\n            uint j = uint(keccak256(abi.encodePacked(block.timestamp, i))) % (i + 1);\r\n            Card memory temp = deck[i];\r\n            deck[i] = deck[j];\r\n            deck[j] = temp;\r\n        }\r\n    }\r\n\r\n\r\n\r\n\r\n\r\n}",
  "sourcePath": "C:\\Users\\berta\\Desktop\\Poker-Bot\\PokerSmartContract\\contracts\\CardLib.sol",
  "compiler": {
    "name": "solc",
    "version": "0.8.21+commit.d9974bed.Emscripten.clang"
  },
  "schemaVersion": "3.4.16",
  "updatedAt": "2024-06-22T15:39:51.327Z",
  "devdoc": {
    "kind": "dev",
    "methods": {},
    "version": 1
  },
  "userdoc": {
    "kind": "user",
    "methods": {},
    "version": 1
  }
}