{
  "contractName": "PlayLib",
  "abi": [
    {
      "inputs": [
        {
          "components": [
            {
              "internalType": "uint256",
              "name": "balance",
              "type": "uint256"
            },
            {
              "components": [
                {
                  "internalType": "string",
                  "name": "rank",
                  "type": "string"
                },
                {
                  "internalType": "string",
                  "name": "suit",
                  "type": "string"
                }
              ],
              "internalType": "struct CardLib.Card[2]",
              "name": "hand",
              "type": "tuple[2]"
            },
            {
              "internalType": "uint256",
              "name": "currentBet",
              "type": "uint256"
            }
          ],
          "internalType": "struct Poker.Player",
          "name": "_player1",
          "type": "tuple"
        },
        {
          "components": [
            {
              "internalType": "uint256",
              "name": "balance",
              "type": "uint256"
            },
            {
              "components": [
                {
                  "internalType": "string",
                  "name": "rank",
                  "type": "string"
                },
                {
                  "internalType": "string",
                  "name": "suit",
                  "type": "string"
                }
              ],
              "internalType": "struct CardLib.Card[2]",
              "name": "hand",
              "type": "tuple[2]"
            },
            {
              "internalType": "uint256",
              "name": "currentBet",
              "type": "uint256"
            }
          ],
          "internalType": "struct Poker.Player",
          "name": "_player2",
          "type": "tuple"
        },
        {
          "components": [
            {
              "internalType": "string",
              "name": "rank",
              "type": "string"
            },
            {
              "internalType": "string",
              "name": "suit",
              "type": "string"
            }
          ],
          "internalType": "struct CardLib.Card[5]",
          "name": "_table",
          "type": "tuple[5]"
        }
      ],
      "name": "chooseWinner",
      "outputs": [
        {
          "internalType": "bool",
          "name": "",
          "type": "bool"
        }
      ],
      "stateMutability": "pure",
      "type": "function"
    },
    {
      "inputs": [
        {
          "components": [
            {
              "internalType": "string",
              "name": "rank",
              "type": "string"
            },
            {
              "internalType": "string",
              "name": "suit",
              "type": "string"
            }
          ],
          "internalType": "struct CardLib.Card[2]",
          "name": "_hand",
          "type": "tuple[2]"
        },
        {
          "components": [
            {
              "internalType": "string",
              "name": "rank",
              "type": "string"
            },
            {
              "internalType": "string",
              "name": "suit",
              "type": "string"
            }
          ],
          "internalType": "struct CardLib.Card[5]",
          "name": "_table",
          "type": "tuple[5]"
        }
      ],
      "name": "getHandRanking",
      "outputs": [
        {
          "internalType": "uint8",
          "name": "",
          "type": "uint8"
        }
      ],
      "stateMutability": "pure",
      "type": "function"
    },
    {
      "inputs": [
        {
          "components": [
            {
              "internalType": "string",
              "name": "rank",
              "type": "string"
            },
            {
              "internalType": "string",
              "name": "suit",
              "type": "string"
            }
          ],
          "internalType": "struct CardLib.Card[2]",
          "name": "_player1Hand",
          "type": "tuple[2]"
        },
        {
          "components": [
            {
              "internalType": "string",
              "name": "rank",
              "type": "string"
            },
            {
              "internalType": "string",
              "name": "suit",
              "type": "string"
            }
          ],
          "internalType": "struct CardLib.Card[2]",
          "name": "_player2Hand",
          "type": "tuple[2]"
        },
        {
          "components": [
            {
              "internalType": "string",
              "name": "rank",
              "type": "string"
            },
            {
              "internalType": "string",
              "name": "suit",
              "type": "string"
            }
          ],
          "internalType": "struct CardLib.Card[5]",
          "name": "_table",
          "type": "tuple[5]"
        }
      ],
      "name": "tieBreaker",
      "outputs": [
        {
          "internalType": "bool",
          "name": "",
          "type": "bool"
        }
      ],
      "stateMutability": "pure",
      "type": "function"
    },
    {
      "inputs": [
        {
          "components": [
            {
              "internalType": "string",
              "name": "rank",
              "type": "string"
            },
            {
              "internalType": "string",
              "name": "suit",
              "type": "string"
            }
          ],
          "internalType": "struct CardLib.Card[2]",
          "name": "_hand",
          "type": "tuple[2]"
        },
        {
          "components": [
            {
              "internalType": "string",
              "name": "rank",
              "type": "string"
            },
            {
              "internalType": "string",
              "name": "suit",
              "type": "string"
            }
          ],
          "internalType": "struct CardLib.Card[5]",
          "name": "_table",
          "type": "tuple[5]"
        }
      ],
      "name": "isRoyalFlush",
      "outputs": [
        {
          "internalType": "bool",
          "name": "",
          "type": "bool"
        }
      ],
      "stateMutability": "pure",
      "type": "function"
    },
    {
      "inputs": [
        {
          "components": [
            {
              "internalType": "string",
              "name": "rank",
              "type": "string"
            },
            {
              "internalType": "string",
              "name": "suit",
              "type": "string"
            }
          ],
          "internalType": "struct CardLib.Card[2]",
          "name": "_hand",
          "type": "tuple[2]"
        },
        {
          "components": [
            {
              "internalType": "string",
              "name": "rank",
              "type": "string"
            },
            {
              "internalType": "string",
              "name": "suit",
              "type": "string"
            }
          ],
          "internalType": "struct CardLib.Card[5]",
          "name": "_table",
          "type": "tuple[5]"
        }
      ],
      "name": "isStraightFlush",
      "outputs": [
        {
          "internalType": "bool",
          "name": "",
          "type": "bool"
        }
      ],
      "stateMutability": "pure",
      "type": "function"
    },
    {
      "inputs": [
        {
          "components": [
            {
              "internalType": "string",
              "name": "rank",
              "type": "string"
            },
            {
              "internalType": "string",
              "name": "suit",
              "type": "string"
            }
          ],
          "internalType": "struct CardLib.Card[2]",
          "name": "_hand",
          "type": "tuple[2]"
        },
        {
          "components": [
            {
              "internalType": "string",
              "name": "rank",
              "type": "string"
            },
            {
              "internalType": "string",
              "name": "suit",
              "type": "string"
            }
          ],
          "internalType": "struct CardLib.Card[5]",
          "name": "_table",
          "type": "tuple[5]"
        }
      ],
      "name": "isFourOfaKind",
      "outputs": [
        {
          "internalType": "bool",
          "name": "",
          "type": "bool"
        }
      ],
      "stateMutability": "pure",
      "type": "function"
    },
    {
      "inputs": [
        {
          "components": [
            {
              "internalType": "string",
              "name": "rank",
              "type": "string"
            },
            {
              "internalType": "string",
              "name": "suit",
              "type": "string"
            }
          ],
          "internalType": "struct CardLib.Card[2]",
          "name": "_hand",
          "type": "tuple[2]"
        },
        {
          "components": [
            {
              "internalType": "string",
              "name": "rank",
              "type": "string"
            },
            {
              "internalType": "string",
              "name": "suit",
              "type": "string"
            }
          ],
          "internalType": "struct CardLib.Card[5]",
          "name": "_table",
          "type": "tuple[5]"
        }
      ],
      "name": "isFullHouse",
      "outputs": [
        {
          "internalType": "bool",
          "name": "",
          "type": "bool"
        }
      ],
      "stateMutability": "pure",
      "type": "function"
    },
    {
      "inputs": [
        {
          "components": [
            {
              "internalType": "string",
              "name": "rank",
              "type": "string"
            },
            {
              "internalType": "string",
              "name": "suit",
              "type": "string"
            }
          ],
          "internalType": "struct CardLib.Card[2]",
          "name": "_hand",
          "type": "tuple[2]"
        },
        {
          "components": [
            {
              "internalType": "string",
              "name": "rank",
              "type": "string"
            },
            {
              "internalType": "string",
              "name": "suit",
              "type": "string"
            }
          ],
          "internalType": "struct CardLib.Card[5]",
          "name": "_table",
          "type": "tuple[5]"
        }
      ],
      "name": "isFlush",
      "outputs": [
        {
          "internalType": "bool",
          "name": "",
          "type": "bool"
        }
      ],
      "stateMutability": "pure",
      "type": "function"
    },
    {
      "inputs": [
        {
          "components": [
            {
              "internalType": "string",
              "name": "rank",
              "type": "string"
            },
            {
              "internalType": "string",
              "name": "suit",
              "type": "string"
            }
          ],
          "internalType": "struct CardLib.Card[2]",
          "name": "_hand",
          "type": "tuple[2]"
        },
        {
          "components": [
            {
              "internalType": "string",
              "name": "rank",
              "type": "string"
            },
            {
              "internalType": "string",
              "name": "suit",
              "type": "string"
            }
          ],
          "internalType": "struct CardLib.Card[5]",
          "name": "_table",
          "type": "tuple[5]"
        }
      ],
      "name": "isStraight",
      "outputs": [
        {
          "internalType": "bool",
          "name": "",
          "type": "bool"
        }
      ],
      "stateMutability": "pure",
      "type": "function"
    },
    {
      "inputs": [
        {
          "components": [
            {
              "internalType": "string",
              "name": "rank",
              "type": "string"
            },
            {
              "internalType": "string",
              "name": "suit",
              "type": "string"
            }
          ],
          "internalType": "struct CardLib.Card[2]",
          "name": "_hand",
          "type": "tuple[2]"
        },
        {
          "components": [
            {
              "internalType": "string",
              "name": "rank",
              "type": "string"
            },
            {
              "internalType": "string",
              "name": "suit",
              "type": "string"
            }
          ],
          "internalType": "struct CardLib.Card[5]",
          "name": "_table",
          "type": "tuple[5]"
        }
      ],
      "name": "isThreeOfaKind",
      "outputs": [
        {
          "internalType": "bool",
          "name": "",
          "type": "bool"
        }
      ],
      "stateMutability": "pure",
      "type": "function"
    },
    {
      "inputs": [
        {
          "components": [
            {
              "internalType": "string",
              "name": "rank",
              "type": "string"
            },
            {
              "internalType": "string",
              "name": "suit",
              "type": "string"
            }
          ],
          "internalType": "struct CardLib.Card[2]",
          "name": "_hand",
          "type": "tuple[2]"
        },
        {
          "components": [
            {
              "internalType": "string",
              "name": "rank",
              "type": "string"
            },
            {
              "internalType": "string",
              "name": "suit",
              "type": "string"
            }
          ],
          "internalType": "struct CardLib.Card[5]",
          "name": "_table",
          "type": "tuple[5]"
        }
      ],
      "name": "isTwoPair",
      "outputs": [
        {
          "internalType": "bool",
          "name": "",
          "type": "bool"
        }
      ],
      "stateMutability": "pure",
      "type": "function"
    },
    {
      "inputs": [
        {
          "components": [
            {
              "internalType": "string",
              "name": "rank",
              "type": "string"
            },
            {
              "internalType": "string",
              "name": "suit",
              "type": "string"
            }
          ],
          "internalType": "struct CardLib.Card[2]",
          "name": "_hand",
          "type": "tuple[2]"
        },
        {
          "components": [
            {
              "internalType": "string",
              "name": "rank",
              "type": "string"
            },
            {
              "internalType": "string",
              "name": "suit",
              "type": "string"
            }
          ],
          "internalType": "struct CardLib.Card[5]",
          "name": "_table",
          "type": "tuple[5]"
        }
      ],
      "name": "isPair",
      "outputs": [
        {
          "internalType": "bool",
          "name": "",
          "type": "bool"
        }
      ],
      "stateMutability": "pure",
      "type": "function"
    }
  ],
  "bytecode": "0x61349e61004e600b8282823980515f1a607314610042577f4e487b71000000000000000000000000000000000000000000000000000000005f525f60045260245ffd5b305f52607381538281f3fe73000000000000000000000000000000000000000030146080604052600436106100bd575f3560e01c8063935865411161007a57806393586541146101e15780639a64cfaf14610211578063ad5af55c14610241578063b4dbd8f314610271578063bd762917146102a1578063f2893f4f146102d1576100bd565b80632caa04c5146100c15780634025a9ef146100f157806349eb939e14610121578063733fdc9f1461015157806381a32068146101815780638719ebe2146101b1575b5f80fd5b6100db60048036038101906100d69190612e36565b610301565b6040516100e89190612ec7565b60405180910390f35b61010b60048036038101906101069190612e36565b6103e4565b6040516101189190612efa565b60405180910390f35b61013b60048036038101906101369190612e36565b610409565b6040516101489190612efa565b60405180910390f35b61016b60048036038101906101669190612e36565b61067c565b6040516101789190612efa565b60405180910390f35b61019b60048036038101906101969190612f13565b6106a1565b6040516101a89190612efa565b60405180910390f35b6101cb60048036038101906101c69190612e36565b6106fb565b6040516101d89190612efa565b60405180910390f35b6101fb60048036038101906101f69190612e36565b610ad8565b6040516102089190612efa565b60405180910390f35b61022b60048036038101906102269190613067565b610eb4565b6040516102389190612efa565b60405180910390f35b61025b60048036038101906102569190612e36565b610f27565b6040516102689190612efa565b60405180910390f35b61028b60048036038101906102869190612e36565b611549565b6040516102989190612efa565b60405180910390f35b6102bb60048036038101906102b69190612e36565b611898565b6040516102c89190612efa565b60405180910390f35b6102eb60048036038101906102e69190612e36565b611e51565b6040516102f89190612efa565b60405180910390f35b5f61030c8383611898565b15610319575f90506103de565b610323838361067c565b1561033157600190506103de565b61033b8383610ad8565b1561034957600290506103de565b61035383836103e4565b1561036157600390506103de565b61036b83836106fb565b1561037957600490506103de565b6103838383610f27565b1561039157600590506103de565b61039b8383611e51565b156103a957600690506103de565b6103b38383611549565b156103c157600790506103de565b6103cb8383610409565b156103d957600890506103de565b600990505b92915050565b5f6103ef8383611e51565b801561040157506104008383611549565b5b905092915050565b5f610412612a5c565b835f600281106104255761042461310b565b5b60200201515f0151815f600781106104405761043f61310b565b5b60200201819052508360016002811061045c5761045b61310b565b5b60200201515f0151816001600781106104785761047761310b565b5b6020020181905250825f600581106104935761049261310b565b5b60200201515f0151816002600781106104af576104ae61310b565b5b6020020181905250826001600581106104cb576104ca61310b565b5b60200201515f0151816003600781106104e7576104e661310b565b5b6020020181905250826002600581106105035761050261310b565b5b60200201515f01518160046007811061051f5761051e61310b565b5b60200201819052508260036005811061053b5761053a61310b565b5b60200201515f0151816005600781106105575761055661310b565b5b6020020181905250826004600581106105735761057261310b565b5b60200201515f01518160066007811061058f5761058e61310b565b5b60200201819052505f5b6007811015610670575f6001826105b09190613165565b90505b600781101561065c578281600781106105cf576105ce61310b565b5b60200201516040516020016105e49190613204565b6040516020818303038152906040528051906020012083836007811061060d5761060c61310b565b5b60200201516040516020016106229190613204565b60405160208183030381529060405280519060200120036106495760019350505050610676565b80806106549061321a565b9150506105b3565b5080806106689061321a565b915050610599565b505f9150505b92915050565b5f61068783836106fb565b801561069957506106988383610f27565b5b905092915050565b5f806106ad8584612179565b90505f6106ba8585612179565b90508060ff168260ff1611156106d5576001925050506106f4565b8160ff168160ff1611156106ed575f925050506106f4565b6001925050505b9392505050565b5f610704612a5c565b835f600281106107175761071661310b565b5b602002015160200151815f600781106107335761073261310b565b5b60200201819052508360016002811061074f5761074e61310b565b5b6020020151602001518160016007811061076c5761076b61310b565b5b6020020181905250825f600581106107875761078661310b565b5b602002015160200151816002600781106107a4576107a361310b565b5b6020020181905250826001600581106107c0576107bf61310b565b5b602002015160200151816003600781106107dd576107dc61310b565b5b6020020181905250826002600581106107f9576107f861310b565b5b602002015160200151816004600781106108165761081561310b565b5b6020020181905250826003600581106108325761083161310b565b5b6020020151602001518160056007811061084f5761084e61310b565b5b60200201819052508260046005811061086b5761086a61310b565b5b602002015160200151816006600781106108885761088761310b565b5b60200201819052505f805f805f5b6007811015610aa1576040516020016108ae906132ab565b604051602081830303815290604052805190602001208682600781106108d7576108d661310b565b5b60200201516040516020016108ec9190613204565b604051602081830303815290604052805190602001200361091b576001826109149190613165565b9150610a8e565b60405160200161092a90613309565b604051602081830303815290604052805190602001208682600781106109535761095261310b565b5b60200201516040516020016109689190613204565b6040516020818303038152906040528051906020012003610997576001836109909190613165565b9250610a8d565b6040516020016109a690613367565b604051602081830303815290604052805190602001208682600781106109cf576109ce61310b565b5b60200201516040516020016109e49190613204565b6040516020818303038152906040528051906020012003610a1357600184610a0c9190613165565b9350610a8c565b604051602001610a22906133c5565b60405160208183030381529060405280519060200120868260078110610a4b57610a4a61310b565b5b6020020151604051602001610a609190613204565b6040516020818303038152906040528051906020012003610a8b57600185610a889190613165565b94505b5b5b5b8080610a999061321a565b915050610896565b50600584101580610ab3575060058310155b80610abf575060058210155b80610acb575060058110155b9550505050505092915050565b5f610ae1612a5c565b835f60028110610af457610af361310b565b5b60200201515f0151815f60078110610b0f57610b0e61310b565b5b602002018190525083600160028110610b2b57610b2a61310b565b5b60200201515f015181600160078110610b4757610b4661310b565b5b6020020181905250825f60058110610b6257610b6161310b565b5b60200201515f015181600260078110610b7e57610b7d61310b565b5b602002018190525082600160058110610b9a57610b9961310b565b5b60200201515f015181600360078110610bb657610bb561310b565b5b602002018190525082600260058110610bd257610bd161310b565b5b60200201515f015181600460078110610bee57610bed61310b565b5b602002018190525082600360058110610c0a57610c0961310b565b5b60200201515f015181600560078110610c2657610c2561310b565b5b602002018190525082600460058110610c4257610c4161310b565b5b60200201515f015181600660078110610c5e57610c5d61310b565b5b60200201819052505f5b6007811015610ea8575f600182610c7f9190613165565b90505b6007811015610e94575f600182610c999190613165565b90505b6007811015610e80575f600182610cb39190613165565b90505b6007811015610e6c57848360078110610cd257610cd161310b565b5b6020020151604051602001610ce79190613204565b60405160208183030381529060405280519060200120858560078110610d1057610d0f61310b565b5b6020020151604051602001610d259190613204565b60405160208183030381529060405280519060200120148015610dc15750848260078110610d5657610d5561310b565b5b6020020151604051602001610d6b9190613204565b60405160208183030381529060405280519060200120858460078110610d9457610d9361310b565b5b6020020151604051602001610da99190613204565b60405160208183030381529060405280519060200120145b8015610e465750848160078110610ddb57610dda61310b565b5b6020020151604051602001610df09190613204565b60405160208183030381529060405280519060200120858360078110610e1957610e1861310b565b5b6020020151604051602001610e2e9190613204565b60405160208183030381529060405280519060200120145b15610e5957600195505050505050610eae565b8180610e649061321a565b925050610cb6565b508080610e789061321a565b915050610c9c565b508080610e8c9061321a565b915050610c82565b508080610ea09061321a565b915050610c68565b505f9150505b92915050565b5f80610ec4856020015184610301565b90505f610ed5856020015185610301565b90508060ff168260ff161015610ef057600192505050610f20565b8160ff168160ff161015610f08575f92505050610f20565b610f1b86602001518660200151866106a1565b925050505b9392505050565b5f80604051806101a001604052806040518060400160405280600181526020017f320000000000000000000000000000000000000000000000000000000000000081525081526020016040518060400160405280600181526020017f330000000000000000000000000000000000000000000000000000000000000081525081526020016040518060400160405280600181526020017f340000000000000000000000000000000000000000000000000000000000000081525081526020016040518060400160405280600181526020017f350000000000000000000000000000000000000000000000000000000000000081525081526020016040518060400160405280600181526020017f360000000000000000000000000000000000000000000000000000000000000081525081526020016040518060400160405280600181526020017f370000000000000000000000000000000000000000000000000000000000000081525081526020016040518060400160405280600181526020017f380000000000000000000000000000000000000000000000000000000000000081525081526020016040518060400160405280600181526020017f390000000000000000000000000000000000000000000000000000000000000081525081526020016040518060400160405280600281526020017f313000000000000000000000000000000000000000000000000000000000000081525081526020016040518060400160405280600481526020017f4a61636b0000000000000000000000000000000000000000000000000000000081525081526020016040518060400160405280600581526020017f517565656e00000000000000000000000000000000000000000000000000000081525081526020016040518060400160405280600481526020017f4b696e670000000000000000000000000000000000000000000000000000000081525081526020016040518060400160405280600381526020017f4163650000000000000000000000000000000000000000000000000000000000815250815250905061123c612a83565b5f5b600d8160ff1610156112915760028161125791906133d9565b828260ff16600d811061126d5761126c61310b565b5b602002019060ff16908160ff168152505080806112899061340d565b91505061123e565b5061129a612a5c565b855f600281106112ad576112ac61310b565b5b60200201515f0151815f600781106112c8576112c761310b565b5b6020020181905250856001600281106112e4576112e361310b565b5b60200201515f015181600160078110611300576112ff61310b565b5b6020020181905250845f6005811061131b5761131a61310b565b5b60200201515f0151816002600781106113375761133661310b565b5b6020020181905250846001600581106113535761135261310b565b5b60200201515f01518160036007811061136f5761136e61310b565b5b60200201819052508460026005811061138b5761138a61310b565b5b60200201515f0151816004600781106113a7576113a661310b565b5b6020020181905250846003600581106113c3576113c261310b565b5b60200201515f0151816005600781106113df576113de61310b565b5b6020020181905250846004600581106113fb576113fa61310b565b5b60200201515f0151816006600781106114175761141661310b565b5b602002018190525060605f5b6007811015611528575f5b600d8160ff16101561151457858160ff16600d81106114505761144f61310b565b5b60200201516040516020016114659190613204565b6040516020818303038152906040528051906020012084836007811061148e5761148d61310b565b5b60200201516040516020016114a39190613204565b604051602081830303815290604052805190602001200361150157848160ff16600d81106114d4576114d361310b565b5b60200201518383815181106114ec576114eb61310b565b5b602002602001019060ff16908160ff16815250505b808061150c9061340d565b91505061142e565b5080806115209061321a565b915050611423565b506115328161277f565b905061153d816128a2565b94505050505092915050565b5f611552612a5c565b835f600281106115655761156461310b565b5b60200201515f0151815f600781106115805761157f61310b565b5b60200201819052508360016002811061159c5761159b61310b565b5b60200201515f0151816001600781106115b8576115b761310b565b5b6020020181905250825f600581106115d3576115d261310b565b5b60200201515f0151816002600781106115ef576115ee61310b565b5b60200201819052508260016005811061160b5761160a61310b565b5b60200201515f0151816003600781106116275761162661310b565b5b6020020181905250826002600581106116435761164261310b565b5b60200201515f01518160046007811061165f5761165e61310b565b5b60200201819052508260036005811061167b5761167a61310b565b5b60200201515f0151816005600781106116975761169661310b565b5b6020020181905250826004600581106116b3576116b261310b565b5b60200201515f0151816006600781106116cf576116ce61310b565b5b60200201819052505f8060405180602001604052805f81525090505f5b6007811015611876575f6001826117039190613165565b90505b6007811015611862578481600781106117225761172161310b565b5b60200201516040516020016117379190613204565b604051602081830303815290604052805190602001208583600781106117605761175f61310b565b5b60200201516040516020016117759190613204565b604051602081830303815290604052805190602001200361184f5760018461179d9190613165565b9350600184036117c6578482600781106117ba576117b961310b565b5b6020020151925061184e565b60028414801561183857508481600781106117e4576117e361310b565b5b60200201516040516020016117f99190613204565b60405160208183030381529060405280519060200120836040516020016118209190613204565b60405160208183030381529060405280519060200120145b1561184d5760018461184a9190613435565b93505b5b5b808061185a9061321a565b915050611706565b50808061186e9061321a565b9150506116ec565b506002821061188b5760019350505050611892565b5f93505050505b92915050565b5f80600560026118a89190613165565b67ffffffffffffffff8111156118c1576118c0612ae5565b5b6040519080825280602002602001820160405280156118fa57816020015b6118e7612aa6565b8152602001906001900390816118df5790505b5090505f5b60028110156119515784816002811061191b5761191a61310b565b5b60200201518282815181106119335761193261310b565b5b602002602001018190525080806119499061321a565b9150506118ff565b505f5b60058110156119b2578381600581106119705761196f61310b565b5b6020020151828260026119839190613165565b815181106119945761199361310b565b5b602002602001018190525080806119aa9061321a565b915050611954565b505f600567ffffffffffffffff8111156119cf576119ce612ae5565b5b604051908082528060200260200182016040528015611a0257816020015b60608152602001906001900390816119ed5790505b5090506040518060400160405280600281526020017f3130000000000000000000000000000000000000000000000000000000000000815250815f81518110611a4e57611a4d61310b565b5b60200260200101819052506040518060400160405280600481526020017f4a61636b0000000000000000000000000000000000000000000000000000000081525081600181518110611aa357611aa261310b565b5b60200260200101819052506040518060400160405280600581526020017f517565656e00000000000000000000000000000000000000000000000000000081525081600281518110611af857611af761310b565b5b60200260200101819052506040518060400160405280600481526020017f4b696e670000000000000000000000000000000000000000000000000000000081525081600381518110611b4d57611b4c61310b565b5b60200260200101819052506040518060400160405280600381526020017f416365000000000000000000000000000000000000000000000000000000000081525081600481518110611ba257611ba161310b565b5b60200260200101819052505f5b6004811015611e44575f60405180608001604052806040518060400160405280600881526020017f4469616d6f6e647300000000000000000000000000000000000000000000000081525081526020016040518060400160405280600681526020017f537061646573000000000000000000000000000000000000000000000000000081525081526020016040518060400160405280600581526020017f436c75627300000000000000000000000000000000000000000000000000000081525081526020016040518060400160405280600681526020017f48656172747300000000000000000000000000000000000000000000000000008152508152508260048110611cc057611cbf61310b565b5b602002015190505f805b8551811015611e18575f5b8551811015611e0457858181518110611cf157611cf061310b565b5b6020026020010151604051602001611d099190613204565b60405160208183030381529060405280519060200120878381518110611d3257611d3161310b565b5b60200260200101515f0151604051602001611d4d9190613204565b60405160208183030381529060405280519060200120148015611dd9575083604051602001611d7c9190613204565b60405160208183030381529060405280519060200120878381518110611da557611da461310b565b5b602002602001015160200151604051602001611dc19190613204565b60405160208183030381529060405280519060200120145b15611df1578280611de99061321a565b935050611e04565b8080611dfc9061321a565b915050611cd5565b508080611e109061321a565b915050611cca565b5060058103611e2f57600195505050505050611e4b565b50508080611e3c9061321a565b915050611baf565b505f925050505b92915050565b5f611e5a612a5c565b835f60028110611e6d57611e6c61310b565b5b60200201515f0151815f60078110611e8857611e8761310b565b5b602002018190525083600160028110611ea457611ea361310b565b5b60200201515f015181600160078110611ec057611ebf61310b565b5b6020020181905250825f60058110611edb57611eda61310b565b5b60200201515f015181600260078110611ef757611ef661310b565b5b602002018190525082600160058110611f1357611f1261310b565b5b60200201515f015181600360078110611f2f57611f2e61310b565b5b602002018190525082600260058110611f4b57611f4a61310b565b5b60200201515f015181600460078110611f6757611f6661310b565b5b602002018190525082600360058110611f8357611f8261310b565b5b60200201515f015181600560078110611f9f57611f9e61310b565b5b602002018190525082600460058110611fbb57611fba61310b565b5b60200201515f015181600660078110611fd757611fd661310b565b5b60200201819052505f5b600781101561216d575f600182611ff89190613165565b90505b6007811015612159575f6001826120129190613165565b90505b6007811015612145578382600781106120315761203061310b565b5b60200201516040516020016120469190613204565b6040516020818303038152906040528051906020012084846007811061206f5761206e61310b565b5b60200201516040516020016120849190613204565b6040516020818303038152906040528051906020012014801561212057508381600781106120b5576120b461310b565b5b60200201516040516020016120ca9190613204565b604051602081830303815290604052805190602001208484600781106120f3576120f261310b565b5b60200201516040516020016121089190613204565b60405160208183030381529060405280519060200120145b15612132576001945050505050612173565b808061213d9061321a565b915050612015565b5080806121519061321a565b915050611ffb565b5080806121659061321a565b915050611fe1565b505f9150505b92915050565b5f80604051806101a001604052806040518060400160405280600181526020017f320000000000000000000000000000000000000000000000000000000000000081525081526020016040518060400160405280600181526020017f330000000000000000000000000000000000000000000000000000000000000081525081526020016040518060400160405280600181526020017f340000000000000000000000000000000000000000000000000000000000000081525081526020016040518060400160405280600181526020017f350000000000000000000000000000000000000000000000000000000000000081525081526020016040518060400160405280600181526020017f360000000000000000000000000000000000000000000000000000000000000081525081526020016040518060400160405280600181526020017f370000000000000000000000000000000000000000000000000000000000000081525081526020016040518060400160405280600181526020017f380000000000000000000000000000000000000000000000000000000000000081525081526020016040518060400160405280600181526020017f390000000000000000000000000000000000000000000000000000000000000081525081526020016040518060400160405280600281526020017f313000000000000000000000000000000000000000000000000000000000000081525081526020016040518060400160405280600481526020017f4a61636b0000000000000000000000000000000000000000000000000000000081525081526020016040518060400160405280600581526020017f517565656e00000000000000000000000000000000000000000000000000000081525081526020016040518060400160405280600481526020017f4b696e670000000000000000000000000000000000000000000000000000000081525081526020016040518060400160405280600381526020017f4163650000000000000000000000000000000000000000000000000000000000815250815250905061248e612a83565b5f5b600d8160ff1610156124e3576002816124a991906133d9565b828260ff16600d81106124bf576124be61310b565b5b602002019060ff16908160ff168152505080806124db9061340d565b915050612490565b506124ec612a5c565b855f600281106124ff576124fe61310b565b5b60200201515f0151815f6007811061251a5761251961310b565b5b6020020181905250856001600281106125365761253561310b565b5b60200201515f0151816001600781106125525761255161310b565b5b6020020181905250845f6005811061256d5761256c61310b565b5b60200201515f0151816002600781106125895761258861310b565b5b6020020181905250846001600581106125a5576125a461310b565b5b60200201515f0151816003600781106125c1576125c061310b565b5b6020020181905250846002600581106125dd576125dc61310b565b5b60200201515f0151816004600781106125f9576125f861310b565b5b6020020181905250846003600581106126155761261461310b565b5b60200201515f0151816005600781106126315761263061310b565b5b60200201819052508460046005811061264d5761264c61310b565b5b60200201515f0151816006600781106126695761266861310b565b5b60200201819052505f805b6007811015612771575f5b600d81101561275d578581600d811061269b5761269a61310b565b5b60200201516040516020016126b09190613204565b604051602081830303815290604052805190602001208483600781106126d9576126d861310b565b5b60200201516040516020016126ee9190613204565b604051602081830303815290604052805190602001200361274a578481600d811061271c5761271b61310b565b5b602002015160ff168360ff161015612749578481600d81106127415761274061310b565b5b602002015192505b5b80806127559061321a565b91505061267f565b5080806127699061321a565b915050612674565b508094505050505092915050565b60605f5b8251811015612899575f60018261279a9190613165565b90505b8351811015612885578381815181106127b9576127b861310b565b5b602002602001015160ff168483815181106127d7576127d661310b565b5b602002602001015160ff161115612872575f8483815181106127fc576127fb61310b565b5b602002602001015190508482815181106128195761281861310b565b5b60200260200101518584815181106128345761283361310b565b5b602002602001019060ff16908160ff16815250508085838151811061285c5761285b61310b565b5b602002602001019060ff16908160ff1681525050505b808061287d9061321a565b91505061279d565b5080806128919061321a565b915050612783565b50819050919050565b5f80600190505f600190505b835181101561299d57836001826128c59190613435565b815181106128d6576128d561310b565b5b602002602001015160ff168482815181106128f4576128f361310b565b5b602002602001015160ff16031561298a576001846001836129159190613435565b815181106129265761292561310b565b5b602002602001015161293891906133d9565b60ff1684828151811061294e5761294d61310b565b5b602002602001015160ff16036129845781806129699061321a565b9250506005820361297f57600192505050612a57565b612989565b600191505b5b80806129959061321a565b9150506128ae565b50600e83600185516129af9190613435565b815181106129c0576129bf61310b565b5b602002602001015160ff1603612a5257600190505f5b600184516129e49190613435565b811015612a50578060056129f89190613435565b848281518110612a0b57612a0a61310b565b5b602002602001015160ff1603612a3d578180612a269061321a565b92505060058203612a3c57600192505050612a57565b5b8080612a489061321a565b9150506129d6565b505b5f9150505b919050565b6040518060e001604052806007905b6060815260200190600190039081612a6b5790505090565b604051806101a00160405280600d90602082028036833780820191505090505090565b604051806040016040528060608152602001606081525090565b5f604051905090565b5f80fd5b5f80fd5b5f80fd5b5f601f19601f8301169050919050565b7f4e487b71000000000000000000000000000000000000000000000000000000005f52604160045260245ffd5b612b1b82612ad5565b810181811067ffffffffffffffff82111715612b3a57612b39612ae5565b5b80604052505050565b5f612b4c612ac0565b9050612b588282612b12565b919050565b5f67ffffffffffffffff821115612b7757612b76612ae5565b5b602082029050919050565b5f80fd5b5f80fd5b5f80fd5b5f80fd5b5f67ffffffffffffffff821115612bac57612bab612ae5565b5b612bb582612ad5565b9050602081019050919050565b828183375f83830152505050565b5f612be2612bdd84612b92565b612b43565b905082815260208101848484011115612bfe57612bfd612b8e565b5b612c09848285612bc2565b509392505050565b5f82601f830112612c2557612c24612ad1565b5b8135612c35848260208601612bd0565b91505092915050565b5f60408284031215612c5357612c52612b86565b5b612c5d6040612b43565b90505f82013567ffffffffffffffff811115612c7c57612c7b612b8a565b5b612c8884828501612c11565b5f83015250602082013567ffffffffffffffff811115612cab57612caa612b8a565b5b612cb784828501612c11565b60208301525092915050565b5f612cd5612cd084612b5d565b612b43565b90508060208402830185811115612cef57612cee612b82565b5b835b81811015612d3657803567ffffffffffffffff811115612d1457612d13612ad1565b5b808601612d218982612c3e565b85526020850194505050602081019050612cf1565b5050509392505050565b5f82601f830112612d5457612d53612ad1565b5b6002612d61848285612cc3565b91505092915050565b5f67ffffffffffffffff821115612d8457612d83612ae5565b5b602082029050919050565b5f612da1612d9c84612d6a565b612b43565b90508060208402830185811115612dbb57612dba612b82565b5b835b81811015612e0257803567ffffffffffffffff811115612de057612ddf612ad1565b5b808601612ded8982612c3e565b85526020850194505050602081019050612dbd565b5050509392505050565b5f82601f830112612e2057612e1f612ad1565b5b6005612e2d848285612d8f565b91505092915050565b5f8060408385031215612e4c57612e4b612ac9565b5b5f83013567ffffffffffffffff811115612e6957612e68612acd565b5b612e7585828601612d40565b925050602083013567ffffffffffffffff811115612e9657612e95612acd565b5b612ea285828601612e0c565b9150509250929050565b5f60ff82169050919050565b612ec181612eac565b82525050565b5f602082019050612eda5f830184612eb8565b92915050565b5f8115159050919050565b612ef481612ee0565b82525050565b5f602082019050612f0d5f830184612eeb565b92915050565b5f805f60608486031215612f2a57612f29612ac9565b5b5f84013567ffffffffffffffff811115612f4757612f46612acd565b5b612f5386828701612d40565b935050602084013567ffffffffffffffff811115612f7457612f73612acd565b5b612f8086828701612d40565b925050604084013567ffffffffffffffff811115612fa157612fa0612acd565b5b612fad86828701612e0c565b9150509250925092565b5f819050919050565b612fc981612fb7565b8114612fd3575f80fd5b50565b5f81359050612fe481612fc0565b92915050565b5f60608284031215612fff57612ffe612b86565b5b6130096060612b43565b90505f61301884828501612fd6565b5f83015250602082013567ffffffffffffffff81111561303b5761303a612b8a565b5b61304784828501612d40565b602083015250604061305b84828501612fd6565b60408301525092915050565b5f805f6060848603121561307e5761307d612ac9565b5b5f84013567ffffffffffffffff81111561309b5761309a612acd565b5b6130a786828701612fea565b935050602084013567ffffffffffffffff8111156130c8576130c7612acd565b5b6130d486828701612fea565b925050604084013567ffffffffffffffff8111156130f5576130f4612acd565b5b61310186828701612e0c565b9150509250925092565b7f4e487b71000000000000000000000000000000000000000000000000000000005f52603260045260245ffd5b7f4e487b71000000000000000000000000000000000000000000000000000000005f52601160045260245ffd5b5f61316f82612fb7565b915061317a83612fb7565b925082820190508082111561319257613191613138565b5b92915050565b5f81519050919050565b5f81905092915050565b5f5b838110156131c95780820151818401526020810190506131ae565b5f8484015250505050565b5f6131de82613198565b6131e881856131a2565b93506131f88185602086016131ac565b80840191505092915050565b5f61320f82846131d4565b915081905092915050565b5f61322482612fb7565b91507fffffffffffffffffffffffffffffffffffffffffffffffffffffffffffffffff820361325657613255613138565b5b600182019050919050565b7f4469616d6f6e64730000000000000000000000000000000000000000000000005f82015250565b5f6132956008836131a2565b91506132a082613261565b600882019050919050565b5f6132b582613289565b9150819050919050565b7f436c7562730000000000000000000000000000000000000000000000000000005f82015250565b5f6132f36005836131a2565b91506132fe826132bf565b600582019050919050565b5f613313826132e7565b9150819050919050565b7f48656172747300000000000000000000000000000000000000000000000000005f82015250565b5f6133516006836131a2565b915061335c8261331d565b600682019050919050565b5f61337182613345565b9150819050919050565b7f53706164657300000000000000000000000000000000000000000000000000005f82015250565b5f6133af6006836131a2565b91506133ba8261337b565b600682019050919050565b5f6133cf826133a3565b9150819050919050565b5f6133e382612eac565b91506133ee83612eac565b9250828201905060ff81111561340757613406613138565b5b92915050565b5f61341782612eac565b915060ff820361342a57613429613138565b5b600182019050919050565b5f61343f82612fb7565b915061344a83612fb7565b925082820390508181111561346257613461613138565b5b9291505056fea26469706673582212206bde6dc99dc08e81e3f179b386c752e07e1fe3de88c8208627ae99955fde955064736f6c63430008150033",
  "immutableReferences": {},
  "source": "// SPDX-License-Identifier: MIT\r\n// @ Author: Bertan Berker\r\n// @ Filename: PlayLib.sol\r\n// This is a library that the Poker smart contract imports for gameplay\r\n\r\npragma solidity ^0.8.2;\r\n\r\nimport './CardLib.sol';\r\nimport './Poker.sol';\r\n\r\nlibrary PlayLib{\r\n\r\n\t// This function chooses the winner of the hand\r\n\t// :param _player1: player1\r\n\t// :param _player2: player2\r\n\t// :param _table: cards on table\r\n\t// :return: True if player1 is winner, False if player2 is winner\r\n\tfunction chooseWinner(Poker.Player memory _player1, Poker.Player memory _player2, CardLib.Card[5] memory _table) public pure returns (bool) {\r\n\t\t\r\n\t\tuint8 player1Rank = getHandRanking(_player1.hand, _table);\r\n\t\tuint8 player2Rank = getHandRanking(_player2.hand, _table);\r\n\t\t\r\n\t\tif (player1Rank < player2Rank) {\r\n\t\t\treturn true;\r\n\t\t}\r\n\r\n\t\telse if (player2Rank < player1Rank) {\r\n\t\t\treturn false;\r\n\t\t}\r\n\r\n\t\telse {\r\n\t\t\treturn tieBreaker(_player1.hand, _player2.hand, _table);\r\n\t\t}\r\n\t} \r\n\r\n\r\n\t// This function gets the hand ranking of a player like Flush, Royal Flush, Full House etc\r\n\t// :param _hand: The two cards in your hand\r\n\t// :param _table: The five cards at the middle of the table\r\n\t// :return: The index of the ranking\r\n\t// [RF, SF, FK, FH, F, S, TK, TP, P, HC]\r\n\tfunction getHandRanking(CardLib.Card[2] memory _hand, CardLib.Card[5] memory _table) public pure returns (uint8) {\r\n\r\n\t\tif (isRoyalFlush(_hand, _table)) {\r\n\t\t\treturn 0;\r\n\t\t}\r\n\r\n\t\telse if (isStraightFlush(_hand, _table)) {\r\n\t\t\treturn 1;\r\n\t\t}\r\n\r\n\t\telse if (isFourOfaKind(_hand, _table)) {\r\n\t\t\treturn 2;\r\n\t\t}\r\n\t\t\r\n\t\telse if (isFullHouse(_hand, _table)) {\r\n\t\t\treturn 3;\r\n\t\t}\r\n\t\t\r\n\t\telse if (isFlush(_hand, _table)) {\r\n\t\t\treturn 4;\r\n\t\t}\r\n\t\t\r\n\t\telse if (isStraight(_hand, _table)) {\r\n\t\t\treturn 5;\r\n\t\t}\r\n\t\t\r\n\t\telse if (isThreeOfaKind(_hand, _table)) {\r\n\t\t\treturn 6;\r\n\t\t}\r\n\t\t\r\n\t\telse if (isTwoPair(_hand, _table)) {\r\n\t\t\treturn 7;\r\n\t\t}\r\n\t\t\r\n\t\telse if (isPair(_hand, _table)) {\r\n\t\t\treturn 8;\r\n\t\t}\r\n\r\n\t\telse {\r\n\t\t\treturn 9;\r\n\t\t}\r\n\r\n\t}\r\n\r\n\r\n\t// This function gets the winner if both players have the same ranking (both straight etc. but highest of five wins)\r\n\t// :param _player1Hand: Player1's hand\r\n\t// :param _player2Hand: Player2's hand\r\n\t// :param _table: The cards on the table\r\n\t// :return: True if player1 is winner, false if player2 is winner\r\n\t// If there is an actual tie then returns true (actual ties go to player1 :))\r\n\tfunction tieBreaker(CardLib.Card[2] memory _player1Hand, CardLib.Card[2] memory _player2Hand, CardLib.Card[5] memory _table) public pure returns (bool) {\r\n\t\tuint8 player1 = getHighCard(_player1Hand, _table);\r\n\t\tuint8 player2 = getHighCard(_player2Hand, _table);\r\n\r\n\t\tif (player1 > player2) {\r\n\t\t\treturn true;\r\n\t\t}\r\n\r\n\t\telse if (player2 > player1) {\r\n\t\t\treturn false;\r\n\t\t}\r\n\r\n\t\treturn true;\r\n\t}\r\n\r\n\t\r\n\t// Helper Functions for getting rankings\r\n\tfunction isRoyalFlush(CardLib.Card[2] memory _hand, CardLib.Card[5] memory _table) public pure returns (bool) {\r\n\t\tCardLib.Card[] memory allCards = new CardLib.Card[](_hand.length + _table.length);\r\n        for (uint i = 0; i < _hand.length; i++) {\r\n            allCards[i] = _hand[i];\r\n        }\r\n        for (uint i = 0; i < _table.length; i++) {\r\n            allCards[_hand.length + i] = _table[i];\r\n        }\r\n\r\n        string[] memory royalRanks = new string[](5);\r\n        royalRanks[0] = \"10\";\r\n        royalRanks[1] = \"Jack\";\r\n        royalRanks[2] = \"Queen\";\r\n        royalRanks[3] = \"King\";\r\n        royalRanks[4] = \"Ace\";\r\n\r\n        for (uint i = 0; i < 4; i++) { // Check each suit\r\n            string memory suit = [\"Diamonds\", \"Spades\", \"Clubs\", \"Hearts\"][i];\r\n            uint matchCount = 0;\r\n\r\n            for (uint j = 0; j < allCards.length; j++) {\r\n                for (uint k = 0; k < royalRanks.length; k++) {\r\n                    if (\r\n                        keccak256(abi.encodePacked(allCards[j].rank)) == keccak256(abi.encodePacked(royalRanks[k])) &&\r\n                        keccak256(abi.encodePacked(allCards[j].suit)) == keccak256(abi.encodePacked(suit))\r\n                    ) {\r\n                        matchCount++;\r\n                        break;\r\n                    }\r\n                }\r\n            }\r\n\r\n            if (matchCount == 5) {\r\n                return true;\r\n            }\r\n        }\r\n\r\n        return false;\r\n\t}\r\n\r\n\r\n\tfunction isStraightFlush(CardLib.Card[2] memory _hand, CardLib.Card[5] memory _table) public pure returns (bool) {\r\n\t\treturn isFlush(_hand, _table) && isStraight(_hand, _table);\r\n\t}\r\n\t\r\n\tfunction isFourOfaKind(CardLib.Card[2] memory _hand, CardLib.Card[5] memory _table) public pure returns (bool) {\r\n\t\tstring[7] memory ranks;\r\n\t\tranks[0] = _hand[0].rank;\r\n\t\tranks[1] = _hand[1].rank;\r\n\t\tranks[2] = _table[0].rank;\r\n\t\tranks[3] = _table[1].rank;\r\n\t\tranks[4] = _table[2].rank;\r\n\t\tranks[5] = _table[3].rank;\r\n\t\tranks[6] = _table[4].rank;\r\n\t\t\r\n\t\tfor (uint i = 0; i < ranks.length; i++) {\r\n\t\t\tfor (uint j = i+1; j < ranks.length; j++) {\r\n\t\t\t\tfor (uint k = j+1; k < ranks.length; k++) {\t\r\n\t\t\t\t\tfor (uint w = k+1; w < ranks.length; k++) {\r\n\t\t\t\t\t\tif (keccak256(abi.encodePacked(ranks[i])) == keccak256(abi.encodePacked(ranks[j])) &&\r\n\t\t\t\t\t\t keccak256(abi.encodePacked(ranks[j])) == keccak256(abi.encodePacked(ranks[k])) &&\r\n\t\t\t\t\t\t  keccak256(abi.encodePacked(ranks[k])) == keccak256(abi.encodePacked(ranks[w]))) {\t\r\n\t\t\t\t\t\t\treturn true;\r\n\t\t\t\t\t\t}\r\n\t\t\t\t\t}\r\n\t\t\t\t}\r\n\t\t\t}\r\n\t\t}\r\n\r\n\t\treturn false;\r\n\t}\r\n\t\r\n\t\r\n\tfunction isFullHouse(CardLib.Card[2] memory _hand, CardLib.Card[5] memory _table) public pure returns (bool) {\r\n\t\treturn isThreeOfaKind(_hand, _table) && isTwoPair(_hand, _table);\r\n\t}\r\n\t\r\n\r\n\tfunction isFlush(CardLib.Card[2] memory _hand, CardLib.Card[5] memory _table) public pure returns (bool) {\r\n\t\tstring[7] memory suits;\r\n\t\tsuits[0] = _hand[0].suit;\r\n\t\tsuits[1] = _hand[1].suit;\r\n\t\tsuits[2] = _table[0].suit;\r\n\t\tsuits[3] = _table[1].suit;\r\n\t\tsuits[4] = _table[2].suit;\r\n\t\tsuits[5] = _table[3].suit;\r\n\t\tsuits[6] = _table[4].suit;\r\n\t\t\r\n\t\tuint256 spades = 0;\r\n\t\tuint256 hearts = 0;\r\n\t\tuint256 clubs = 0;\r\n\t\tuint256 diamonds = 0;\r\n\r\n\t\tfor (uint256 i = 0; i < suits.length; i++) {\r\n\t\t\tif (keccak256(abi.encodePacked(suits[i])) == keccak256(abi.encodePacked(\"Diamonds\"))) {\r\n\t\t\t\tdiamonds += 1;\r\n\t\t\t}\r\n\t\t\t\r\n\t\t\telse if (keccak256(abi.encodePacked(suits[i])) == keccak256(abi.encodePacked(\"Clubs\"))) {\r\n\t\t\t\tclubs += 1;\r\n\t\t\t} \r\n\r\n\t\t\telse if (keccak256(abi.encodePacked(suits[i])) == keccak256(abi.encodePacked(\"Hearts\"))) {\r\n\t\t\t\thearts += 1;\r\n\t\t\t} \r\n\r\n\t\t\telse if (keccak256(abi.encodePacked(suits[i])) == keccak256(abi.encodePacked(\"Spades\"))) {\r\n\t\t\t\tspades += 1;\r\n\t\t\t} \r\n\t\t}\r\n\r\n\t\treturn spades >= 5 || hearts >= 5 || clubs >= 5 || diamonds >= 5;\r\n\t}\r\n\t\r\n\tfunction isStraight(CardLib.Card[2] memory _hand, CardLib.Card[5] memory _table) public pure returns (bool) {\r\n    \tstring[13] memory rankOrder = [\"2\", \"3\", \"4\", \"5\", \"6\", \"7\", \"8\", \"9\", \"10\", \"Jack\", \"Queen\", \"King\", \"Ace\"];\r\n        uint8[13] memory rankValues;\r\n\r\n        for (uint8 i = 0; i < rankOrder.length; i++) {\r\n            rankValues[i] = i + 2;\r\n        }\r\n\t\t\r\n\t\tstring[7] memory ranks;\r\n\t\tranks[0] = _hand[0].rank;\r\n\t\tranks[1] = _hand[1].rank;\r\n\t\tranks[2] = _table[0].rank;\r\n\t\tranks[3] = _table[1].rank;\r\n\t\tranks[4] = _table[2].rank;\r\n\t\tranks[5] = _table[3].rank;\r\n\t\tranks[6] = _table[4].rank;\r\n\r\n\t\tuint8[] memory allRankValues;\t\t\r\n\t\t        \r\n        for (uint i = 0; i < ranks.length; i++) {\r\n            for (uint8 j = 0; j < rankOrder.length; j++) {\r\n                if (keccak256(abi.encodePacked(ranks[i])) == keccak256(abi.encodePacked(rankOrder[j]))) {\r\n                    allRankValues[i] = rankValues[j];\r\n                }\r\n            }\r\n        }\r\n\t\t\r\n        allRankValues = sortRanks(allRankValues);\r\n        return checkConsecutive(allRankValues);\r\n\t}\r\n\r\n\tfunction isThreeOfaKind(CardLib.Card[2] memory _hand, CardLib.Card[5] memory _table) public pure returns (bool) {\r\n\t\tstring[7] memory ranks;\r\n\t\tranks[0] = _hand[0].rank;\r\n\t\tranks[1] = _hand[1].rank;\r\n\t\tranks[2] = _table[0].rank;\r\n\t\tranks[3] = _table[1].rank;\r\n\t\tranks[4] = _table[2].rank;\r\n\t\tranks[5] = _table[3].rank;\r\n\t\tranks[6] = _table[4].rank;\r\n\t\t\r\n\t\tfor (uint i = 0; i < ranks.length; i++) {\r\n\t\t\tfor (uint j = i+1; j < ranks.length; j++) {\r\n\t\t\t\tfor (uint k = j+1; k < ranks.length; k++) {\t\r\n\t\t\t\t\tif (keccak256(abi.encodePacked(ranks[i])) == keccak256(abi.encodePacked(ranks[j])) && keccak256(abi.encodePacked(ranks[i])) == keccak256(abi.encodePacked(ranks[k]))) {\t\r\n\t\t\t\t\t\treturn true;\r\n\t\t\t\t\t}\r\n\t\t\t\t}\r\n\t\t\t}\r\n\t\t}\r\n\r\n\t\treturn false;\r\n\t}\r\n\t\r\n\r\n\tfunction isTwoPair(CardLib.Card[2] memory _hand, CardLib.Card[5] memory _table) public pure returns (bool) {\r\n\t\tstring[7] memory ranks;\r\n\t\tranks[0] = _hand[0].rank;\r\n\t\tranks[1] = _hand[1].rank;\r\n\t\tranks[2] = _table[0].rank;\r\n\t\tranks[3] = _table[1].rank;\r\n\t\tranks[4] = _table[2].rank;\r\n\t\tranks[5] = _table[3].rank;\r\n\t\tranks[6] = _table[4].rank;\r\n\t\t\r\n\t\tuint256 pairCount = 0;\r\n\t\tstring memory pairs = \"\";\r\n\r\n\t\tfor (uint i = 0; i < ranks.length; i++) {\r\n\t\t\tfor (uint j = i+1; j < ranks.length; j++) {\r\n\t\t\t\tif (keccak256(abi.encodePacked(ranks[i])) == keccak256(abi.encodePacked(ranks[j]))) {\t\r\n\t\t\t\t\tpairCount += 1;\r\n\r\n\t\t\t\t\tif (pairCount == 1) {\r\n\t\t\t\t\t\tpairs = ranks[i];\r\n\t\t\t\t\t}\r\n\r\n\t\t\t\t\telse if (pairCount == 2 && keccak256(abi.encodePacked(pairs)) == keccak256(abi.encodePacked(ranks[j]))) {\r\n\t\t\t\t\t\tpairCount -= 1;\r\n\t\t\t\t\t}\r\n\t\t\t\t}\r\n\t\t\t}\r\n\t\t}\r\n\r\n\t\tif (pairCount >= 2) {\r\n\t\t\treturn true;\r\n\t\t}\r\n\r\n\t\treturn false;\r\n\t}\r\n\r\n\r\n\tfunction isPair(CardLib.Card[2] memory _hand, CardLib.Card[5] memory _table) public pure returns (bool) {\r\n\t\tstring[7] memory ranks;\r\n\t\tranks[0] = _hand[0].rank;\r\n\t\tranks[1] = _hand[1].rank;\r\n\t\tranks[2] = _table[0].rank;\r\n\t\tranks[3] = _table[1].rank;\r\n\t\tranks[4] = _table[2].rank;\r\n\t\tranks[5] = _table[3].rank;\r\n\t\tranks[6] = _table[4].rank;\r\n\t\t\r\n\t\tfor (uint i = 0; i < ranks.length; i++) {\r\n\t\t\tfor (uint j = i+1; j < ranks.length; j++) {\r\n\t\t\t\tif (keccak256(abi.encodePacked(ranks[i])) == keccak256(abi.encodePacked(ranks[j]))) {\t\r\n\t\t\t\t\treturn true;\r\n\t\t\t\t}\r\n\t\t\t}\r\n\t\t}\r\n\r\n\t\treturn false;\r\n\t}\r\n\r\n\r\n\t// Miscaleneous Helpers\r\n\r\n\tfunction getHighCard(CardLib.Card[2] memory _hand, CardLib.Card[5] memory _table) internal pure returns (uint8) {\r\n\r\n\t\tstring[13] memory rankOrder = [\"2\", \"3\", \"4\", \"5\", \"6\", \"7\", \"8\", \"9\", \"10\", \"Jack\", \"Queen\", \"King\", \"Ace\"];\r\n        uint8[13] memory rankValues;\r\n\r\n        for (uint8 i = 0; i < rankOrder.length; i++) {\r\n            rankValues[i] = i + 2;\r\n        }\r\n\t\t\r\n\t\tstring[7] memory ranks;\r\n\t\tranks[0] = _hand[0].rank;\r\n\t\tranks[1] = _hand[1].rank;\r\n\t\tranks[2] = _table[0].rank;\r\n\t\tranks[3] = _table[1].rank;\r\n\t\tranks[4] = _table[2].rank;\r\n\t\tranks[5] = _table[3].rank;\r\n\t\tranks[6] = _table[4].rank;\t\r\n\r\n\t\tuint8 maxCard = 0;\r\n\r\n\t\tfor (uint i = 0; i < ranks.length; i++) {\r\n\t\t\tfor (uint j = 0; j < rankOrder.length; j++) {\r\n\t\t\t\tif (keccak256(abi.encodePacked(ranks[i])) == keccak256(abi.encodePacked(rankOrder[j]))) {\t\r\n\t\t\t\t\tif (maxCard < rankValues[j]) {\r\n\t\t\t\t\t\tmaxCard = rankValues[j];\r\n\t\t\t\t\t}\r\n\t\t\t\t}\r\n\t\t\t}\r\n\t\t}\r\n\r\n\t\treturn maxCard;\r\n\t}\r\n\r\n\tfunction sortRanks(uint8[] memory _ranks) internal pure returns (uint8[] memory) {\r\n        for (uint i = 0; i < _ranks.length; i++) {\r\n            for (uint j = i + 1; j < _ranks.length; j++) {\r\n                if (_ranks[i] > _ranks[j]) {\r\n                    uint8 temp = _ranks[i];\r\n                    _ranks[i] = _ranks[j];\r\n                    _ranks[j] = temp;\r\n                }\r\n            }\r\n        }\r\n        return _ranks;\r\n    }\r\n\r\n\r\n    function checkConsecutive(uint8[] memory _ranks) internal pure returns (bool) {\r\n        uint consecutiveCount = 1;\r\n        for (uint i = 1; i < _ranks.length; i++) {\r\n            if (_ranks[i] == _ranks[i - 1]) {\r\n                continue;\r\n            } else if (_ranks[i] == _ranks[i - 1] + 1) {\r\n                consecutiveCount++;\r\n                if (consecutiveCount == 5) {\r\n                    return true;\r\n                }\r\n            } else {\r\n                consecutiveCount = 1;\r\n            }\r\n        }\r\n\r\n        // Special case for Ace to Five straight\r\n        if (_ranks[_ranks.length - 1] == 14) {\r\n            consecutiveCount = 1;\r\n            for (uint i = 0; i < _ranks.length - 1; i++) {\r\n                if (_ranks[i] == 5 - i) {\r\n                    consecutiveCount++;\r\n                    if (consecutiveCount == 5) {\r\n                        return true;\r\n                    }\r\n                }\r\n            }\r\n        }\r\n\r\n        return false;\r\n    }\r\n\r\n\r\n}",
  "sourcePath": "C:\\Users\\berta\\Desktop\\Poker-Bot\\PokerSmartContract\\contracts\\PlayLib.sol",
  "compiler": {
    "name": "solc",
    "version": "0.8.21+commit.d9974bed.Emscripten.clang"
  },
  "schemaVersion": "3.4.16",
  "updatedAt": "2024-06-22T15:39:51.343Z",
  "devdoc": {
    "kind": "dev",
    "methods": {},
    "version": 1
  },
  "userdoc": {
    "kind": "user",
    "methods": {},
    "version": 1
  }
}