{
  "contractName": "PlayLib",
  "abi": [
    {
      "inputs": [
        {
          "components": [
            {
              "internalType": "uint256",
              "name": "balance",
              "type": "uint256"
            },
            {
              "components": [
                {
                  "internalType": "string",
                  "name": "rank",
                  "type": "string"
                },
                {
                  "internalType": "string",
                  "name": "suit",
                  "type": "string"
                }
              ],
              "internalType": "struct CardLib.Card[2]",
              "name": "hand",
              "type": "tuple[2]"
            },
            {
              "internalType": "uint256",
              "name": "currentBet",
              "type": "uint256"
            }
          ],
          "internalType": "struct Poker.Player",
          "name": "_player1",
          "type": "tuple"
        },
        {
          "components": [
            {
              "internalType": "uint256",
              "name": "balance",
              "type": "uint256"
            },
            {
              "components": [
                {
                  "internalType": "string",
                  "name": "rank",
                  "type": "string"
                },
                {
                  "internalType": "string",
                  "name": "suit",
                  "type": "string"
                }
              ],
              "internalType": "struct CardLib.Card[2]",
              "name": "hand",
              "type": "tuple[2]"
            },
            {
              "internalType": "uint256",
              "name": "currentBet",
              "type": "uint256"
            }
          ],
          "internalType": "struct Poker.Player",
          "name": "_player2",
          "type": "tuple"
        },
        {
          "components": [
            {
              "internalType": "string",
              "name": "rank",
              "type": "string"
            },
            {
              "internalType": "string",
              "name": "suit",
              "type": "string"
            }
          ],
          "internalType": "struct CardLib.Card[5]",
          "name": "_table",
          "type": "tuple[5]"
        }
      ],
      "name": "chooseWinner",
      "outputs": [
        {
          "internalType": "bool",
          "name": "",
          "type": "bool"
        }
      ],
      "stateMutability": "pure",
      "type": "function",
      "constant": true
    },
    {
      "inputs": [
        {
          "components": [
            {
              "internalType": "string",
              "name": "rank",
              "type": "string"
            },
            {
              "internalType": "string",
              "name": "suit",
              "type": "string"
            }
          ],
          "internalType": "struct CardLib.Card[2]",
          "name": "_hand",
          "type": "tuple[2]"
        },
        {
          "components": [
            {
              "internalType": "string",
              "name": "rank",
              "type": "string"
            },
            {
              "internalType": "string",
              "name": "suit",
              "type": "string"
            }
          ],
          "internalType": "struct CardLib.Card[5]",
          "name": "_table",
          "type": "tuple[5]"
        }
      ],
      "name": "getHandRanking",
      "outputs": [
        {
          "internalType": "uint8",
          "name": "",
          "type": "uint8"
        }
      ],
      "stateMutability": "pure",
      "type": "function",
      "constant": true
    },
    {
      "inputs": [
        {
          "components": [
            {
              "internalType": "string",
              "name": "rank",
              "type": "string"
            },
            {
              "internalType": "string",
              "name": "suit",
              "type": "string"
            }
          ],
          "internalType": "struct CardLib.Card[2]",
          "name": "_player1Hand",
          "type": "tuple[2]"
        },
        {
          "components": [
            {
              "internalType": "string",
              "name": "rank",
              "type": "string"
            },
            {
              "internalType": "string",
              "name": "suit",
              "type": "string"
            }
          ],
          "internalType": "struct CardLib.Card[2]",
          "name": "_player2Hand",
          "type": "tuple[2]"
        },
        {
          "components": [
            {
              "internalType": "string",
              "name": "rank",
              "type": "string"
            },
            {
              "internalType": "string",
              "name": "suit",
              "type": "string"
            }
          ],
          "internalType": "struct CardLib.Card[5]",
          "name": "_table",
          "type": "tuple[5]"
        }
      ],
      "name": "tieBreaker",
      "outputs": [
        {
          "internalType": "bool",
          "name": "",
          "type": "bool"
        }
      ],
      "stateMutability": "pure",
      "type": "function",
      "constant": true
    },
    {
      "inputs": [
        {
          "components": [
            {
              "internalType": "string",
              "name": "rank",
              "type": "string"
            },
            {
              "internalType": "string",
              "name": "suit",
              "type": "string"
            }
          ],
          "internalType": "struct CardLib.Card[2]",
          "name": "_hand",
          "type": "tuple[2]"
        },
        {
          "components": [
            {
              "internalType": "string",
              "name": "rank",
              "type": "string"
            },
            {
              "internalType": "string",
              "name": "suit",
              "type": "string"
            }
          ],
          "internalType": "struct CardLib.Card[5]",
          "name": "_table",
          "type": "tuple[5]"
        }
      ],
      "name": "isRoyalFlush",
      "outputs": [
        {
          "internalType": "bool",
          "name": "",
          "type": "bool"
        }
      ],
      "stateMutability": "pure",
      "type": "function",
      "constant": true
    },
    {
      "inputs": [
        {
          "components": [
            {
              "internalType": "string",
              "name": "rank",
              "type": "string"
            },
            {
              "internalType": "string",
              "name": "suit",
              "type": "string"
            }
          ],
          "internalType": "struct CardLib.Card[2]",
          "name": "_hand",
          "type": "tuple[2]"
        },
        {
          "components": [
            {
              "internalType": "string",
              "name": "rank",
              "type": "string"
            },
            {
              "internalType": "string",
              "name": "suit",
              "type": "string"
            }
          ],
          "internalType": "struct CardLib.Card[5]",
          "name": "_table",
          "type": "tuple[5]"
        }
      ],
      "name": "isStraightFlush",
      "outputs": [
        {
          "internalType": "bool",
          "name": "",
          "type": "bool"
        }
      ],
      "stateMutability": "pure",
      "type": "function",
      "constant": true
    },
    {
      "inputs": [
        {
          "components": [
            {
              "internalType": "string",
              "name": "rank",
              "type": "string"
            },
            {
              "internalType": "string",
              "name": "suit",
              "type": "string"
            }
          ],
          "internalType": "struct CardLib.Card[2]",
          "name": "_hand",
          "type": "tuple[2]"
        },
        {
          "components": [
            {
              "internalType": "string",
              "name": "rank",
              "type": "string"
            },
            {
              "internalType": "string",
              "name": "suit",
              "type": "string"
            }
          ],
          "internalType": "struct CardLib.Card[5]",
          "name": "_table",
          "type": "tuple[5]"
        }
      ],
      "name": "isFourOfaKind",
      "outputs": [
        {
          "internalType": "bool",
          "name": "",
          "type": "bool"
        }
      ],
      "stateMutability": "pure",
      "type": "function",
      "constant": true
    },
    {
      "inputs": [
        {
          "components": [
            {
              "internalType": "string",
              "name": "rank",
              "type": "string"
            },
            {
              "internalType": "string",
              "name": "suit",
              "type": "string"
            }
          ],
          "internalType": "struct CardLib.Card[2]",
          "name": "_hand",
          "type": "tuple[2]"
        },
        {
          "components": [
            {
              "internalType": "string",
              "name": "rank",
              "type": "string"
            },
            {
              "internalType": "string",
              "name": "suit",
              "type": "string"
            }
          ],
          "internalType": "struct CardLib.Card[5]",
          "name": "_table",
          "type": "tuple[5]"
        }
      ],
      "name": "isFullHouse",
      "outputs": [
        {
          "internalType": "bool",
          "name": "",
          "type": "bool"
        }
      ],
      "stateMutability": "pure",
      "type": "function",
      "constant": true
    },
    {
      "inputs": [
        {
          "components": [
            {
              "internalType": "string",
              "name": "rank",
              "type": "string"
            },
            {
              "internalType": "string",
              "name": "suit",
              "type": "string"
            }
          ],
          "internalType": "struct CardLib.Card[2]",
          "name": "_hand",
          "type": "tuple[2]"
        },
        {
          "components": [
            {
              "internalType": "string",
              "name": "rank",
              "type": "string"
            },
            {
              "internalType": "string",
              "name": "suit",
              "type": "string"
            }
          ],
          "internalType": "struct CardLib.Card[5]",
          "name": "_table",
          "type": "tuple[5]"
        }
      ],
      "name": "isFlush",
      "outputs": [
        {
          "internalType": "bool",
          "name": "",
          "type": "bool"
        }
      ],
      "stateMutability": "pure",
      "type": "function",
      "constant": true
    },
    {
      "inputs": [
        {
          "components": [
            {
              "internalType": "string",
              "name": "rank",
              "type": "string"
            },
            {
              "internalType": "string",
              "name": "suit",
              "type": "string"
            }
          ],
          "internalType": "struct CardLib.Card[2]",
          "name": "_hand",
          "type": "tuple[2]"
        },
        {
          "components": [
            {
              "internalType": "string",
              "name": "rank",
              "type": "string"
            },
            {
              "internalType": "string",
              "name": "suit",
              "type": "string"
            }
          ],
          "internalType": "struct CardLib.Card[5]",
          "name": "_table",
          "type": "tuple[5]"
        }
      ],
      "name": "isStraight",
      "outputs": [
        {
          "internalType": "bool",
          "name": "",
          "type": "bool"
        }
      ],
      "stateMutability": "pure",
      "type": "function",
      "constant": true
    },
    {
      "inputs": [
        {
          "components": [
            {
              "internalType": "string",
              "name": "rank",
              "type": "string"
            },
            {
              "internalType": "string",
              "name": "suit",
              "type": "string"
            }
          ],
          "internalType": "struct CardLib.Card[2]",
          "name": "_hand",
          "type": "tuple[2]"
        },
        {
          "components": [
            {
              "internalType": "string",
              "name": "rank",
              "type": "string"
            },
            {
              "internalType": "string",
              "name": "suit",
              "type": "string"
            }
          ],
          "internalType": "struct CardLib.Card[5]",
          "name": "_table",
          "type": "tuple[5]"
        }
      ],
      "name": "isThreeOfaKind",
      "outputs": [
        {
          "internalType": "bool",
          "name": "",
          "type": "bool"
        }
      ],
      "stateMutability": "pure",
      "type": "function",
      "constant": true
    },
    {
      "inputs": [
        {
          "components": [
            {
              "internalType": "string",
              "name": "rank",
              "type": "string"
            },
            {
              "internalType": "string",
              "name": "suit",
              "type": "string"
            }
          ],
          "internalType": "struct CardLib.Card[2]",
          "name": "_hand",
          "type": "tuple[2]"
        },
        {
          "components": [
            {
              "internalType": "string",
              "name": "rank",
              "type": "string"
            },
            {
              "internalType": "string",
              "name": "suit",
              "type": "string"
            }
          ],
          "internalType": "struct CardLib.Card[5]",
          "name": "_table",
          "type": "tuple[5]"
        }
      ],
      "name": "isTwoPair",
      "outputs": [
        {
          "internalType": "bool",
          "name": "",
          "type": "bool"
        }
      ],
      "stateMutability": "pure",
      "type": "function",
      "constant": true
    },
    {
      "inputs": [
        {
          "components": [
            {
              "internalType": "string",
              "name": "rank",
              "type": "string"
            },
            {
              "internalType": "string",
              "name": "suit",
              "type": "string"
            }
          ],
          "internalType": "struct CardLib.Card[2]",
          "name": "_hand",
          "type": "tuple[2]"
        },
        {
          "components": [
            {
              "internalType": "string",
              "name": "rank",
              "type": "string"
            },
            {
              "internalType": "string",
              "name": "suit",
              "type": "string"
            }
          ],
          "internalType": "struct CardLib.Card[5]",
          "name": "_table",
          "type": "tuple[5]"
        }
      ],
      "name": "isPair",
      "outputs": [
        {
          "internalType": "bool",
          "name": "",
          "type": "bool"
        }
      ],
      "stateMutability": "pure",
      "type": "function",
      "constant": true
    }
  ],
  "bytecode": "0x614bb3610053600b82828239805160001a607314610046577f4e487b7100000000000000000000000000000000000000000000000000000000600052600060045260246000fd5b30600052607381538281f3fe73000000000000000000000000000000000000000030146080604052600436106100be5760003560e01c8063935865411161007b57806393586541146101e35780639a64cfaf14610213578063ad5af55c14610243578063b4dbd8f314610273578063bd762917146102a3578063f2893f4f146102d3576100be565b80632caa04c5146100c35780634025a9ef146100f357806349eb939e14610123578063733fdc9f1461015357806381a32068146101835780638719ebe2146101b3575b600080fd5b6100dd60048036038101906100d89190614552565b610303565b6040516100ea91906147b6565b60405180910390f35b61010d60048036038101906101089190614552565b6103e8565b60405161011a919061479b565b60405180910390f35b61013d60048036038101906101389190614552565b61040e565b60405161014a919061479b565b60405180910390f35b61016d60048036038101906101689190614552565b6108f0565b60405161017a919061479b565b60405180910390f35b61019d600480360381019061019891906144bb565b610916565b6040516101aa919061479b565b60405180910390f35b6101cd60048036038101906101c89190614552565b610973565b6040516101da919061479b565b60405180910390f35b6101fd60048036038101906101f89190614552565b611007565b60405161020a919061479b565b60405180910390f35b61022d600480360381019061022891906145be565b6116eb565b60405161023a919061479b565b60405180910390f35b61025d60048036038101906102589190614552565b611761565b60405161026a919061479b565b60405180910390f35b61028d60048036038101906102889190614552565b612064565b60405161029a919061479b565b60405180910390f35b6102bd60048036038101906102b89190614552565b612671565b6040516102ca919061479b565b60405180910390f35b6102ed60048036038101906102e89190614552565b612e70565b6040516102fa919061479b565b60405180910390f35b600061030f8383612671565b1561031d57600090506103e2565b61032783836108f0565b1561033557600190506103e2565b61033f8383611007565b1561034d57600290506103e2565b61035783836103e8565b1561036557600390506103e2565b61036f8383610973565b1561037d57600490506103e2565b6103878383611761565b1561039557600590506103e2565b61039f8383612e70565b156103ad57600690506103e2565b6103b78383612064565b156103c557600790506103e2565b6103cf838361040e565b156103dd57600890506103e2565b600990505b92915050565b60006103f48383612e70565b801561040657506104058383612064565b5b905092915050565b60006104186141f0565b83600060028110610452577f4e487b7100000000000000000000000000000000000000000000000000000000600052603260045260246000fd5b60200201516000015181600060078110610495577f4e487b7100000000000000000000000000000000000000000000000000000000600052603260045260246000fd5b6020020181905250836001600281106104d7577f4e487b7100000000000000000000000000000000000000000000000000000000600052603260045260246000fd5b6020020151600001518160016007811061051a577f4e487b7100000000000000000000000000000000000000000000000000000000600052603260045260246000fd5b60200201819052508260006005811061055c577f4e487b7100000000000000000000000000000000000000000000000000000000600052603260045260246000fd5b6020020151600001518160026007811061059f577f4e487b7100000000000000000000000000000000000000000000000000000000600052603260045260246000fd5b6020020181905250826001600581106105e1577f4e487b7100000000000000000000000000000000000000000000000000000000600052603260045260246000fd5b60200201516000015181600360078110610624577f4e487b7100000000000000000000000000000000000000000000000000000000600052603260045260246000fd5b602002018190525082600260058110610666577f4e487b7100000000000000000000000000000000000000000000000000000000600052603260045260246000fd5b602002015160000151816004600781106106a9577f4e487b7100000000000000000000000000000000000000000000000000000000600052603260045260246000fd5b6020020181905250826003600581106106eb577f4e487b7100000000000000000000000000000000000000000000000000000000600052603260045260246000fd5b6020020151600001518160056007811061072e577f4e487b7100000000000000000000000000000000000000000000000000000000600052603260045260246000fd5b602002018190525082600460058110610770577f4e487b7100000000000000000000000000000000000000000000000000000000600052603260045260246000fd5b602002015160000151816006600781106107b3577f4e487b7100000000000000000000000000000000000000000000000000000000600052603260045260246000fd5b602002018190525060005b60078110156108e35760006001826107d69190614889565b90505b60078110156108cf5782816007811061081b577f4e487b7100000000000000000000000000000000000000000000000000000000600052603260045260246000fd5b60200201516040516020016108309190614730565b6040516020818303038152906040528051906020012083836007811061087f577f4e487b7100000000000000000000000000000000000000000000000000000000600052603260045260246000fd5b60200201516040516020016108949190614730565b6040516020818303038152906040528051906020012014156108bc57600193505050506108ea565b80806108c7906149e0565b9150506107d9565b5080806108db906149e0565b9150506107be565b5060009150505b92915050565b60006108fc8383610973565b801561090e575061090d8383611761565b5b905092915050565b6000806109238584613453565b905060006109318585613453565b90508060ff168260ff16111561094c5760019250505061096c565b8160ff168160ff1611156109655760009250505061096c565b6001925050505b9392505050565b600061097d6141f0565b836000600281106109b7577f4e487b7100000000000000000000000000000000000000000000000000000000600052603260045260246000fd5b602002015160200151816000600781106109fa577f4e487b7100000000000000000000000000000000000000000000000000000000600052603260045260246000fd5b602002018190525083600160028110610a3c577f4e487b7100000000000000000000000000000000000000000000000000000000600052603260045260246000fd5b60200201516020015181600160078110610a7f577f4e487b7100000000000000000000000000000000000000000000000000000000600052603260045260246000fd5b602002018190525082600060058110610ac1577f4e487b7100000000000000000000000000000000000000000000000000000000600052603260045260246000fd5b60200201516020015181600260078110610b04577f4e487b7100000000000000000000000000000000000000000000000000000000600052603260045260246000fd5b602002018190525082600160058110610b46577f4e487b7100000000000000000000000000000000000000000000000000000000600052603260045260246000fd5b60200201516020015181600360078110610b89577f4e487b7100000000000000000000000000000000000000000000000000000000600052603260045260246000fd5b602002018190525082600260058110610bcb577f4e487b7100000000000000000000000000000000000000000000000000000000600052603260045260246000fd5b60200201516020015181600460078110610c0e577f4e487b7100000000000000000000000000000000000000000000000000000000600052603260045260246000fd5b602002018190525082600360058110610c50577f4e487b7100000000000000000000000000000000000000000000000000000000600052603260045260246000fd5b60200201516020015181600560078110610c93577f4e487b7100000000000000000000000000000000000000000000000000000000600052603260045260246000fd5b602002018190525082600460058110610cd5577f4e487b7100000000000000000000000000000000000000000000000000000000600052603260045260246000fd5b60200201516020015181600660078110610d18577f4e487b7100000000000000000000000000000000000000000000000000000000600052603260045260246000fd5b602002018190525060008060008060005b6007811015610fd057604051602001610d4190614786565b60405160208183030381529060405280519060200120868260078110610d90577f4e487b7100000000000000000000000000000000000000000000000000000000600052603260045260246000fd5b6020020151604051602001610da59190614730565b604051602081830303815290604052805190602001201415610dd557600182610dce9190614889565b9150610fbd565b604051602001610de49061475c565b60405160208183030381529060405280519060200120868260078110610e33577f4e487b7100000000000000000000000000000000000000000000000000000000600052603260045260246000fd5b6020020151604051602001610e489190614730565b604051602081830303815290604052805190602001201415610e7857600183610e719190614889565b9250610fbc565b604051602001610e8790614747565b60405160208183030381529060405280519060200120868260078110610ed6577f4e487b7100000000000000000000000000000000000000000000000000000000600052603260045260246000fd5b6020020151604051602001610eeb9190614730565b604051602081830303815290604052805190602001201415610f1b57600184610f149190614889565b9350610fbb565b604051602001610f2a90614771565b60405160208183030381529060405280519060200120868260078110610f79577f4e487b7100000000000000000000000000000000000000000000000000000000600052603260045260246000fd5b6020020151604051602001610f8e9190614730565b604051602081830303815290604052805190602001201415610fba57600185610fb79190614889565b94505b5b5b5b8080610fc8906149e0565b915050610d29565b50600584101580610fe2575060058310155b80610fee575060058210155b80610ffa575060058110155b9550505050505092915050565b60006110116141f0565b8360006002811061104b577f4e487b7100000000000000000000000000000000000000000000000000000000600052603260045260246000fd5b6020020151600001518160006007811061108e577f4e487b7100000000000000000000000000000000000000000000000000000000600052603260045260246000fd5b6020020181905250836001600281106110d0577f4e487b7100000000000000000000000000000000000000000000000000000000600052603260045260246000fd5b60200201516000015181600160078110611113577f4e487b7100000000000000000000000000000000000000000000000000000000600052603260045260246000fd5b602002018190525082600060058110611155577f4e487b7100000000000000000000000000000000000000000000000000000000600052603260045260246000fd5b60200201516000015181600260078110611198577f4e487b7100000000000000000000000000000000000000000000000000000000600052603260045260246000fd5b6020020181905250826001600581106111da577f4e487b7100000000000000000000000000000000000000000000000000000000600052603260045260246000fd5b6020020151600001518160036007811061121d577f4e487b7100000000000000000000000000000000000000000000000000000000600052603260045260246000fd5b60200201819052508260026005811061125f577f4e487b7100000000000000000000000000000000000000000000000000000000600052603260045260246000fd5b602002015160000151816004600781106112a2577f4e487b7100000000000000000000000000000000000000000000000000000000600052603260045260246000fd5b6020020181905250826003600581106112e4577f4e487b7100000000000000000000000000000000000000000000000000000000600052603260045260246000fd5b60200201516000015181600560078110611327577f4e487b7100000000000000000000000000000000000000000000000000000000600052603260045260246000fd5b602002018190525082600460058110611369577f4e487b7100000000000000000000000000000000000000000000000000000000600052603260045260246000fd5b602002015160000151816006600781106113ac577f4e487b7100000000000000000000000000000000000000000000000000000000600052603260045260246000fd5b602002018190525060005b60078110156116de5760006001826113cf9190614889565b90505b60078110156116ca5760006001826113ea9190614889565b90505b60078110156116b65760006001826114059190614889565b90505b60078110156116a25784836007811061144a577f4e487b7100000000000000000000000000000000000000000000000000000000600052603260045260246000fd5b602002015160405160200161145f9190614730565b604051602081830303815290604052805190602001208585600781106114ae577f4e487b7100000000000000000000000000000000000000000000000000000000600052603260045260246000fd5b60200201516040516020016114c39190614730565b604051602081830303815290604052805190602001201480156115ab575084826007811061151a577f4e487b7100000000000000000000000000000000000000000000000000000000600052603260045260246000fd5b602002015160405160200161152f9190614730565b6040516020818303038152906040528051906020012085846007811061157e577f4e487b7100000000000000000000000000000000000000000000000000000000600052603260045260246000fd5b60200201516040516020016115939190614730565b60405160208183030381529060405280519060200120145b801561167c57508481600781106115eb577f4e487b7100000000000000000000000000000000000000000000000000000000600052603260045260246000fd5b60200201516040516020016116009190614730565b6040516020818303038152906040528051906020012085836007811061164f577f4e487b7100000000000000000000000000000000000000000000000000000000600052603260045260246000fd5b60200201516040516020016116649190614730565b60405160208183030381529060405280519060200120145b1561168f576001955050505050506116e5565b818061169a906149e0565b925050611408565b5080806116ae906149e0565b9150506113ed565b5080806116c2906149e0565b9150506113d2565b5080806116d6906149e0565b9150506113b7565b5060009150505b92915050565b6000806116fc856020015184610303565b9050600061170e856020015185610303565b90508060ff168260ff1610156117295760019250505061175a565b8160ff168160ff1610156117425760009250505061175a565b6117558660200151866020015186610916565b925050505b9392505050565b600080604051806101a001604052806040518060400160405280600181526020017f320000000000000000000000000000000000000000000000000000000000000081525081526020016040518060400160405280600181526020017f330000000000000000000000000000000000000000000000000000000000000081525081526020016040518060400160405280600181526020017f340000000000000000000000000000000000000000000000000000000000000081525081526020016040518060400160405280600181526020017f350000000000000000000000000000000000000000000000000000000000000081525081526020016040518060400160405280600181526020017f360000000000000000000000000000000000000000000000000000000000000081525081526020016040518060400160405280600181526020017f370000000000000000000000000000000000000000000000000000000000000081525081526020016040518060400160405280600181526020017f380000000000000000000000000000000000000000000000000000000000000081525081526020016040518060400160405280600181526020017f390000000000000000000000000000000000000000000000000000000000000081525081526020016040518060400160405280600281526020017f313000000000000000000000000000000000000000000000000000000000000081525081526020016040518060400160405280600481526020017f4a61636b0000000000000000000000000000000000000000000000000000000081525081526020016040518060400160405280600581526020017f517565656e00000000000000000000000000000000000000000000000000000081525081526020016040518060400160405280600481526020017f4b696e670000000000000000000000000000000000000000000000000000000081525081526020016040518060400160405280600381526020017f41636500000000000000000000000000000000000000000000000000000000008152508152509050611a77614217565b60005b600d8160ff161015611af357600281611a9391906148df565b828260ff16600d8110611acf577f4e487b7100000000000000000000000000000000000000000000000000000000600052603260045260246000fd5b602002019060ff16908160ff16815250508080611aeb90614a29565b915050611a7a565b50611afc6141f0565b85600060028110611b36577f4e487b7100000000000000000000000000000000000000000000000000000000600052603260045260246000fd5b60200201516000015181600060078110611b79577f4e487b7100000000000000000000000000000000000000000000000000000000600052603260045260246000fd5b602002018190525085600160028110611bbb577f4e487b7100000000000000000000000000000000000000000000000000000000600052603260045260246000fd5b60200201516000015181600160078110611bfe577f4e487b7100000000000000000000000000000000000000000000000000000000600052603260045260246000fd5b602002018190525084600060058110611c40577f4e487b7100000000000000000000000000000000000000000000000000000000600052603260045260246000fd5b60200201516000015181600260078110611c83577f4e487b7100000000000000000000000000000000000000000000000000000000600052603260045260246000fd5b602002018190525084600160058110611cc5577f4e487b7100000000000000000000000000000000000000000000000000000000600052603260045260246000fd5b60200201516000015181600360078110611d08577f4e487b7100000000000000000000000000000000000000000000000000000000600052603260045260246000fd5b602002018190525084600260058110611d4a577f4e487b7100000000000000000000000000000000000000000000000000000000600052603260045260246000fd5b60200201516000015181600460078110611d8d577f4e487b7100000000000000000000000000000000000000000000000000000000600052603260045260246000fd5b602002018190525084600360058110611dcf577f4e487b7100000000000000000000000000000000000000000000000000000000600052603260045260246000fd5b60200201516000015181600560078110611e12577f4e487b7100000000000000000000000000000000000000000000000000000000600052603260045260246000fd5b602002018190525084600460058110611e54577f4e487b7100000000000000000000000000000000000000000000000000000000600052603260045260246000fd5b60200201516000015181600660078110611e97577f4e487b7100000000000000000000000000000000000000000000000000000000600052603260045260246000fd5b6020020181905250606060005b60078110156120435760005b600d8160ff16101561202f57858160ff16600d8110611ef8577f4e487b7100000000000000000000000000000000000000000000000000000000600052603260045260246000fd5b6020020151604051602001611f0d9190614730565b60405160208183030381529060405280519060200120848360078110611f5c577f4e487b7100000000000000000000000000000000000000000000000000000000600052603260045260246000fd5b6020020151604051602001611f719190614730565b60405160208183030381529060405280519060200120141561201c57848160ff16600d8110611fc9577f4e487b7100000000000000000000000000000000000000000000000000000000600052603260045260246000fd5b6020020151838381518110612007577f4e487b7100000000000000000000000000000000000000000000000000000000600052603260045260246000fd5b602002602001019060ff16908160ff16815250505b808061202790614a29565b915050611eb0565b50808061203b906149e0565b915050611ea4565b5061204d81613d3a565b905061205881613f44565b94505050505092915050565b600061206e6141f0565b836000600281106120a8577f4e487b7100000000000000000000000000000000000000000000000000000000600052603260045260246000fd5b602002015160000151816000600781106120eb577f4e487b7100000000000000000000000000000000000000000000000000000000600052603260045260246000fd5b60200201819052508360016002811061212d577f4e487b7100000000000000000000000000000000000000000000000000000000600052603260045260246000fd5b60200201516000015181600160078110612170577f4e487b7100000000000000000000000000000000000000000000000000000000600052603260045260246000fd5b6020020181905250826000600581106121b2577f4e487b7100000000000000000000000000000000000000000000000000000000600052603260045260246000fd5b602002015160000151816002600781106121f5577f4e487b7100000000000000000000000000000000000000000000000000000000600052603260045260246000fd5b602002018190525082600160058110612237577f4e487b7100000000000000000000000000000000000000000000000000000000600052603260045260246000fd5b6020020151600001518160036007811061227a577f4e487b7100000000000000000000000000000000000000000000000000000000600052603260045260246000fd5b6020020181905250826002600581106122bc577f4e487b7100000000000000000000000000000000000000000000000000000000600052603260045260246000fd5b602002015160000151816004600781106122ff577f4e487b7100000000000000000000000000000000000000000000000000000000600052603260045260246000fd5b602002018190525082600360058110612341577f4e487b7100000000000000000000000000000000000000000000000000000000600052603260045260246000fd5b60200201516000015181600560078110612384577f4e487b7100000000000000000000000000000000000000000000000000000000600052603260045260246000fd5b6020020181905250826004600581106123c6577f4e487b7100000000000000000000000000000000000000000000000000000000600052603260045260246000fd5b60200201516000015181600660078110612409577f4e487b7100000000000000000000000000000000000000000000000000000000600052603260045260246000fd5b602002018190525060008060405180602001604052806000815250905060005b600781101561264e5760006001826124419190614889565b90505b600781101561263a57848160078110612486577f4e487b7100000000000000000000000000000000000000000000000000000000600052603260045260246000fd5b602002015160405160200161249b9190614730565b604051602081830303815290604052805190602001208583600781106124ea577f4e487b7100000000000000000000000000000000000000000000000000000000600052603260045260246000fd5b60200201516040516020016124ff9190614730565b604051602081830303815290604052805190602001201415612627576001846125289190614889565b935060018414156125785784826007811061256c577f4e487b7100000000000000000000000000000000000000000000000000000000600052603260045260246000fd5b60200201519250612626565b60028414801561261057508481600781106125bc577f4e487b7100000000000000000000000000000000000000000000000000000000600052603260045260246000fd5b60200201516040516020016125d19190614730565b60405160208183030381529060405280519060200120836040516020016125f89190614730565b60405160208183030381529060405280519060200120145b15612625576001846126229190614916565b93505b5b5b8080612632906149e0565b915050612444565b508080612646906149e0565b915050612429565b5060028210612663576001935050505061266b565b600093505050505b92915050565b600080600560026126829190614889565b67ffffffffffffffff8111156126c1577f4e487b7100000000000000000000000000000000000000000000000000000000600052604160045260246000fd5b6040519080825280602002602001820160405280156126fa57816020015b6126e761423a565b8152602001906001900390816126df5790505b50905060005b600281101561279e57848160028110612742577f4e487b7100000000000000000000000000000000000000000000000000000000600052603260045260246000fd5b6020020151828281518110612780577f4e487b7100000000000000000000000000000000000000000000000000000000600052603260045260246000fd5b60200260200101819052508080612796906149e0565b915050612700565b5060005b600581101561284c578381600581106127e4577f4e487b7100000000000000000000000000000000000000000000000000000000600052603260045260246000fd5b6020020151828260026127f79190614889565b8151811061282e577f4e487b7100000000000000000000000000000000000000000000000000000000600052603260045260246000fd5b60200260200101819052508080612844906149e0565b9150506127a2565b506000600567ffffffffffffffff811115612890577f4e487b7100000000000000000000000000000000000000000000000000000000600052604160045260246000fd5b6040519080825280602002602001820160405280156128c357816020015b60608152602001906001900390816128ae5790505b5090506040518060400160405280600281526020017f313000000000000000000000000000000000000000000000000000000000000081525081600081518110612936577f4e487b7100000000000000000000000000000000000000000000000000000000600052603260045260246000fd5b60200260200101819052506040518060400160405280600481526020017f4a61636b00000000000000000000000000000000000000000000000000000000815250816001815181106129b1577f4e487b7100000000000000000000000000000000000000000000000000000000600052603260045260246000fd5b60200260200101819052506040518060400160405280600581526020017f517565656e00000000000000000000000000000000000000000000000000000081525081600281518110612a2c577f4e487b7100000000000000000000000000000000000000000000000000000000600052603260045260246000fd5b60200260200101819052506040518060400160405280600481526020017f4b696e670000000000000000000000000000000000000000000000000000000081525081600381518110612aa7577f4e487b7100000000000000000000000000000000000000000000000000000000600052603260045260246000fd5b60200260200101819052506040518060400160405280600381526020017f416365000000000000000000000000000000000000000000000000000000000081525081600481518110612b22577f4e487b7100000000000000000000000000000000000000000000000000000000600052603260045260246000fd5b602002602001018190525060005b6004811015612e6257600060405180608001604052806040518060400160405280600881526020017f4469616d6f6e647300000000000000000000000000000000000000000000000081525081526020016040518060400160405280600681526020017f537061646573000000000000000000000000000000000000000000000000000081525081526020016040518060400160405280600581526020017f436c75627300000000000000000000000000000000000000000000000000000081525081526020016040518060400160405280600681526020017f48656172747300000000000000000000000000000000000000000000000000008152508152508260048110612c68577f4e487b7100000000000000000000000000000000000000000000000000000000600052603260045260246000fd5b602002015190506000805b8551811015612e355760005b8551811015612e2157858181518110612cc1577f4e487b7100000000000000000000000000000000000000000000000000000000600052603260045260246000fd5b6020026020010151604051602001612cd99190614730565b60405160208183030381529060405280519060200120878381518110612d28577f4e487b7100000000000000000000000000000000000000000000000000000000600052603260045260246000fd5b602002602001015160000151604051602001612d449190614730565b60405160208183030381529060405280519060200120148015612df6575083604051602001612d739190614730565b60405160208183030381529060405280519060200120878381518110612dc2577f4e487b7100000000000000000000000000000000000000000000000000000000600052603260045260246000fd5b602002602001015160200151604051602001612dde9190614730565b60405160208183030381529060405280519060200120145b15612e0e578280612e06906149e0565b935050612e21565b8080612e19906149e0565b915050612c7f565b508080612e2d906149e0565b915050612c73565b506005811415612e4d57600195505050505050612e6a565b50508080612e5a906149e0565b915050612b30565b506000925050505b92915050565b6000612e7a6141f0565b83600060028110612eb4577f4e487b7100000000000000000000000000000000000000000000000000000000600052603260045260246000fd5b60200201516000015181600060078110612ef7577f4e487b7100000000000000000000000000000000000000000000000000000000600052603260045260246000fd5b602002018190525083600160028110612f39577f4e487b7100000000000000000000000000000000000000000000000000000000600052603260045260246000fd5b60200201516000015181600160078110612f7c577f4e487b7100000000000000000000000000000000000000000000000000000000600052603260045260246000fd5b602002018190525082600060058110612fbe577f4e487b7100000000000000000000000000000000000000000000000000000000600052603260045260246000fd5b60200201516000015181600260078110613001577f4e487b7100000000000000000000000000000000000000000000000000000000600052603260045260246000fd5b602002018190525082600160058110613043577f4e487b7100000000000000000000000000000000000000000000000000000000600052603260045260246000fd5b60200201516000015181600360078110613086577f4e487b7100000000000000000000000000000000000000000000000000000000600052603260045260246000fd5b6020020181905250826002600581106130c8577f4e487b7100000000000000000000000000000000000000000000000000000000600052603260045260246000fd5b6020020151600001518160046007811061310b577f4e487b7100000000000000000000000000000000000000000000000000000000600052603260045260246000fd5b60200201819052508260036005811061314d577f4e487b7100000000000000000000000000000000000000000000000000000000600052603260045260246000fd5b60200201516000015181600560078110613190577f4e487b7100000000000000000000000000000000000000000000000000000000600052603260045260246000fd5b6020020181905250826004600581106131d2577f4e487b7100000000000000000000000000000000000000000000000000000000600052603260045260246000fd5b60200201516000015181600660078110613215577f4e487b7100000000000000000000000000000000000000000000000000000000600052603260045260246000fd5b602002018190525060005b60078110156134465760006001826132389190614889565b90505b60078110156134325760006001826132539190614889565b90505b600781101561341e57838260078110613298577f4e487b7100000000000000000000000000000000000000000000000000000000600052603260045260246000fd5b60200201516040516020016132ad9190614730565b604051602081830303815290604052805190602001208484600781106132fc577f4e487b7100000000000000000000000000000000000000000000000000000000600052603260045260246000fd5b60200201516040516020016133119190614730565b604051602081830303815290604052805190602001201480156133f95750838160078110613368577f4e487b7100000000000000000000000000000000000000000000000000000000600052603260045260246000fd5b602002015160405160200161337d9190614730565b604051602081830303815290604052805190602001208484600781106133cc577f4e487b7100000000000000000000000000000000000000000000000000000000600052603260045260246000fd5b60200201516040516020016133e19190614730565b60405160208183030381529060405280519060200120145b1561340b57600194505050505061344d565b8080613416906149e0565b915050613256565b50808061342a906149e0565b91505061323b565b50808061343e906149e0565b915050613220565b5060009150505b92915050565b600080604051806101a001604052806040518060400160405280600181526020017f320000000000000000000000000000000000000000000000000000000000000081525081526020016040518060400160405280600181526020017f330000000000000000000000000000000000000000000000000000000000000081525081526020016040518060400160405280600181526020017f340000000000000000000000000000000000000000000000000000000000000081525081526020016040518060400160405280600181526020017f350000000000000000000000000000000000000000000000000000000000000081525081526020016040518060400160405280600181526020017f360000000000000000000000000000000000000000000000000000000000000081525081526020016040518060400160405280600181526020017f370000000000000000000000000000000000000000000000000000000000000081525081526020016040518060400160405280600181526020017f380000000000000000000000000000000000000000000000000000000000000081525081526020016040518060400160405280600181526020017f390000000000000000000000000000000000000000000000000000000000000081525081526020016040518060400160405280600281526020017f313000000000000000000000000000000000000000000000000000000000000081525081526020016040518060400160405280600481526020017f4a61636b0000000000000000000000000000000000000000000000000000000081525081526020016040518060400160405280600581526020017f517565656e00000000000000000000000000000000000000000000000000000081525081526020016040518060400160405280600481526020017f4b696e670000000000000000000000000000000000000000000000000000000081525081526020016040518060400160405280600381526020017f41636500000000000000000000000000000000000000000000000000000000008152508152509050613769614217565b60005b600d8160ff1610156137e55760028161378591906148df565b828260ff16600d81106137c1577f4e487b7100000000000000000000000000000000000000000000000000000000600052603260045260246000fd5b602002019060ff16908160ff168152505080806137dd90614a29565b91505061376c565b506137ee6141f0565b85600060028110613828577f4e487b7100000000000000000000000000000000000000000000000000000000600052603260045260246000fd5b6020020151600001518160006007811061386b577f4e487b7100000000000000000000000000000000000000000000000000000000600052603260045260246000fd5b6020020181905250856001600281106138ad577f4e487b7100000000000000000000000000000000000000000000000000000000600052603260045260246000fd5b602002015160000151816001600781106138f0577f4e487b7100000000000000000000000000000000000000000000000000000000600052603260045260246000fd5b602002018190525084600060058110613932577f4e487b7100000000000000000000000000000000000000000000000000000000600052603260045260246000fd5b60200201516000015181600260078110613975577f4e487b7100000000000000000000000000000000000000000000000000000000600052603260045260246000fd5b6020020181905250846001600581106139b7577f4e487b7100000000000000000000000000000000000000000000000000000000600052603260045260246000fd5b602002015160000151816003600781106139fa577f4e487b7100000000000000000000000000000000000000000000000000000000600052603260045260246000fd5b602002018190525084600260058110613a3c577f4e487b7100000000000000000000000000000000000000000000000000000000600052603260045260246000fd5b60200201516000015181600460078110613a7f577f4e487b7100000000000000000000000000000000000000000000000000000000600052603260045260246000fd5b602002018190525084600360058110613ac1577f4e487b7100000000000000000000000000000000000000000000000000000000600052603260045260246000fd5b60200201516000015181600560078110613b04577f4e487b7100000000000000000000000000000000000000000000000000000000600052603260045260246000fd5b602002018190525084600460058110613b46577f4e487b7100000000000000000000000000000000000000000000000000000000600052603260045260246000fd5b60200201516000015181600660078110613b89577f4e487b7100000000000000000000000000000000000000000000000000000000600052603260045260246000fd5b60200201819052506000805b6007811015613d2c5760005b600d811015613d18578581600d8110613be3577f4e487b7100000000000000000000000000000000000000000000000000000000600052603260045260246000fd5b6020020151604051602001613bf89190614730565b60405160208183030381529060405280519060200120848360078110613c47577f4e487b7100000000000000000000000000000000000000000000000000000000600052603260045260246000fd5b6020020151604051602001613c5c9190614730565b604051602081830303815290604052805190602001201415613d05578481600d8110613cb1577f4e487b7100000000000000000000000000000000000000000000000000000000600052603260045260246000fd5b602002015160ff168360ff161015613d04578481600d8110613cfc577f4e487b7100000000000000000000000000000000000000000000000000000000600052603260045260246000fd5b602002015192505b5b8080613d10906149e0565b915050613ba1565b508080613d24906149e0565b915050613b95565b508094505050505092915050565b606060005b8251811015613f3b576000600182613d579190614889565b90505b8351811015613f2757838181518110613d9c577f4e487b7100000000000000000000000000000000000000000000000000000000600052603260045260246000fd5b602002602001015160ff16848381518110613de0577f4e487b7100000000000000000000000000000000000000000000000000000000600052603260045260246000fd5b602002602001015160ff161115613f14576000848381518110613e2c577f4e487b7100000000000000000000000000000000000000000000000000000000600052603260045260246000fd5b60200260200101519050848281518110613e6f577f4e487b7100000000000000000000000000000000000000000000000000000000600052603260045260246000fd5b6020026020010151858481518110613eb0577f4e487b7100000000000000000000000000000000000000000000000000000000600052603260045260246000fd5b602002602001019060ff16908160ff168152505080858381518110613efe577f4e487b7100000000000000000000000000000000000000000000000000000000600052603260045260246000fd5b602002602001019060ff16908160ff1681525050505b8080613f1f906149e0565b915050613d5a565b508080613f33906149e0565b915050613d3f565b50819050919050565b600080600190506000600190505b83518110156140e05783600182613f699190614916565b81518110613fa0577f4e487b7100000000000000000000000000000000000000000000000000000000600052603260045260246000fd5b602002602001015160ff16848281518110613fe4577f4e487b7100000000000000000000000000000000000000000000000000000000600052603260045260246000fd5b602002602001015160ff161415613ffa576140cd565b60018460018361400a9190614916565b81518110614041577f4e487b7100000000000000000000000000000000000000000000000000000000600052603260045260246000fd5b602002602001015161405391906148df565b60ff1684828151811061408f577f4e487b7100000000000000000000000000000000000000000000000000000000600052603260045260246000fd5b602002602001015160ff1614156140c75781806140ab906149e0565b92505060058214156140c2576001925050506141eb565b6140cc565b600191505b5b80806140d8906149e0565b915050613f52565b50600e83600185516140f29190614916565b81518110614129577f4e487b7100000000000000000000000000000000000000000000000000000000600052603260045260246000fd5b602002602001015160ff1614156141e5576001905060005b6001845161414f9190614916565b8110156141e3578060056141639190614916565b84828151811061419c577f4e487b7100000000000000000000000000000000000000000000000000000000600052603260045260246000fd5b602002602001015160ff1614156141d05781806141b8906149e0565b92505060058214156141cf576001925050506141eb565b5b80806141db906149e0565b915050614141565b505b60009150505b919050565b6040518060e001604052806007905b60608152602001906001900390816141ff5790505090565b604051806101a00160405280600d90602082028036833780820191505090505090565b604051806040016040528060608152602001606081525090565b6000614267614262846147f6565b6147d1565b9050808260005b8581101561429e578135850161428488826143b2565b84526020840193506020830192505060018101905061426e565b5050509392505050565b60006142bb6142b68461481c565b6147d1565b9050808260005b858110156142f257813585016142d888826143b2565b8452602084019350602083019250506001810190506142c2565b5050509392505050565b600061430f61430a84614842565b6147d1565b90508281526020810184848401111561432757600080fd5b61433284828561496d565b509392505050565b600082601f83011261434b57600080fd5b6002614358848285614254565b91505092915050565b600082601f83011261437257600080fd5b600561437f8482856142a8565b91505092915050565b600082601f83011261439957600080fd5b81356143a98482602086016142fc565b91505092915050565b6000604082840312156143c457600080fd5b6143ce60406147d1565b9050600082013567ffffffffffffffff8111156143ea57600080fd5b6143f684828501614388565b600083015250602082013567ffffffffffffffff81111561441657600080fd5b61442284828501614388565b60208301525092915050565b60006060828403121561444057600080fd5b61444a60606147d1565b9050600061445a848285016144a6565b600083015250602082013567ffffffffffffffff81111561447a57600080fd5b6144868482850161433a565b602083015250604061449a848285016144a6565b60408301525092915050565b6000813590506144b581614b66565b92915050565b6000806000606084860312156144d057600080fd5b600084013567ffffffffffffffff8111156144ea57600080fd5b6144f68682870161433a565b935050602084013567ffffffffffffffff81111561451357600080fd5b61451f8682870161433a565b925050604084013567ffffffffffffffff81111561453c57600080fd5b61454886828701614361565b9150509250925092565b6000806040838503121561456557600080fd5b600083013567ffffffffffffffff81111561457f57600080fd5b61458b8582860161433a565b925050602083013567ffffffffffffffff8111156145a857600080fd5b6145b485828601614361565b9150509250929050565b6000806000606084860312156145d357600080fd5b600084013567ffffffffffffffff8111156145ed57600080fd5b6145f98682870161442e565b935050602084013567ffffffffffffffff81111561461657600080fd5b6146228682870161442e565b925050604084013567ffffffffffffffff81111561463f57600080fd5b61464b86828701614361565b9150509250925092565b61465e8161494a565b82525050565b600061466f82614873565b614679818561487e565b935061468981856020860161497c565b80840191505092915050565b60006146a260068361487e565b91506146ad82614ac2565b600682019050919050565b60006146c560058361487e565b91506146d082614aeb565b600582019050919050565b60006146e860068361487e565b91506146f382614b14565b600682019050919050565b600061470b60088361487e565b915061471682614b3d565b600882019050919050565b61472a81614960565b82525050565b600061473c8284614664565b915081905092915050565b600061475282614695565b9150819050919050565b6000614767826146b8565b9150819050919050565b600061477c826146db565b9150819050919050565b6000614791826146fe565b9150819050919050565b60006020820190506147b06000830184614655565b92915050565b60006020820190506147cb6000830184614721565b92915050565b60006147db6147ec565b90506147e782826149af565b919050565b6000604051905090565b600067ffffffffffffffff82111561481157614810614a82565b5b602082029050919050565b600067ffffffffffffffff82111561483757614836614a82565b5b602082029050919050565b600067ffffffffffffffff82111561485d5761485c614a82565b5b61486682614ab1565b9050602081019050919050565b600081519050919050565b600081905092915050565b600061489482614956565b915061489f83614956565b9250827fffffffffffffffffffffffffffffffffffffffffffffffffffffffffffffffff038211156148d4576148d3614a53565b5b828201905092915050565b60006148ea82614960565b91506148f583614960565b92508260ff0382111561490b5761490a614a53565b5b828201905092915050565b600061492182614956565b915061492c83614956565b92508282101561493f5761493e614a53565b5b828203905092915050565b60008115159050919050565b6000819050919050565b600060ff82169050919050565b82818337600083830152505050565b60005b8381101561499a57808201518184015260208101905061497f565b838111156149a9576000848401525b50505050565b6149b882614ab1565b810181811067ffffffffffffffff821117156149d7576149d6614a82565b5b80604052505050565b60006149eb82614956565b91507fffffffffffffffffffffffffffffffffffffffffffffffffffffffffffffffff821415614a1e57614a1d614a53565b5b600182019050919050565b6000614a3482614960565b915060ff821415614a4857614a47614a53565b5b600182019050919050565b7f4e487b7100000000000000000000000000000000000000000000000000000000600052601160045260246000fd5b7f4e487b7100000000000000000000000000000000000000000000000000000000600052604160045260246000fd5b6000601f19601f8301169050919050565b7f4865617274730000000000000000000000000000000000000000000000000000600082015250565b7f436c756273000000000000000000000000000000000000000000000000000000600082015250565b7f5370616465730000000000000000000000000000000000000000000000000000600082015250565b7f4469616d6f6e6473000000000000000000000000000000000000000000000000600082015250565b614b6f81614956565b8114614b7a57600080fd5b5056fea26469706673582212204fa11db9f65c88a432bff3e280f130982759b0bc2d604413e320e0e4e25c96e364736f6c63430008020033",
  "immutableReferences": {},
  "source": "// SPDX-License-Identifier: MIT\r\n// @ Author: Bertan Berker\r\n// @ Filename: PlayLib.sol\r\n// This is a library that the Poker smart contract imports for gameplay\r\n\r\npragma solidity ^0.8.2;\r\n\r\nimport './CardLib.sol';\r\nimport './Poker.sol';\r\n\r\nlibrary PlayLib{\r\n\r\n\t// This function chooses the winner of the hand\r\n\t// :param _player1: player1\r\n\t// :param _player2: player2\r\n\t// :param _table: cards on table\r\n\t// :return: True if player1 is winner, False if player2 is winner\r\n\tfunction chooseWinner(Poker.Player memory _player1, Poker.Player memory _player2, CardLib.Card[5] memory _table) public pure returns (bool) {\r\n\t\t\r\n\t\tuint8 player1Rank = getHandRanking(_player1.hand, _table);\r\n\t\tuint8 player2Rank = getHandRanking(_player2.hand, _table);\r\n\t\t\r\n\t\tif (player1Rank < player2Rank) {\r\n\t\t\treturn true;\r\n\t\t}\r\n\r\n\t\telse if (player2Rank < player1Rank) {\r\n\t\t\treturn false;\r\n\t\t}\r\n\r\n\t\telse {\r\n\t\t\treturn tieBreaker(_player1.hand, _player2.hand, _table);\r\n\t\t}\r\n\t} \r\n\r\n\r\n\t// This function gets the hand ranking of a player like Flush, Royal Flush, Full House etc\r\n\t// :param _hand: The two cards in your hand\r\n\t// :param _table: The five cards at the middle of the table\r\n\t// :return: The index of the ranking\r\n\t// [RF, SF, FK, FH, F, S, TK, TP, P, HC]\r\n\tfunction getHandRanking(CardLib.Card[2] memory _hand, CardLib.Card[5] memory _table) public pure returns (uint8) {\r\n\r\n\t\tif (isRoyalFlush(_hand, _table)) {\r\n\t\t\treturn 0;\r\n\t\t}\r\n\r\n\t\telse if (isStraightFlush(_hand, _table)) {\r\n\t\t\treturn 1;\r\n\t\t}\r\n\r\n\t\telse if (isFourOfaKind(_hand, _table)) {\r\n\t\t\treturn 2;\r\n\t\t}\r\n\t\t\r\n\t\telse if (isFullHouse(_hand, _table)) {\r\n\t\t\treturn 3;\r\n\t\t}\r\n\t\t\r\n\t\telse if (isFlush(_hand, _table)) {\r\n\t\t\treturn 4;\r\n\t\t}\r\n\t\t\r\n\t\telse if (isStraight(_hand, _table)) {\r\n\t\t\treturn 5;\r\n\t\t}\r\n\t\t\r\n\t\telse if (isThreeOfaKind(_hand, _table)) {\r\n\t\t\treturn 6;\r\n\t\t}\r\n\t\t\r\n\t\telse if (isTwoPair(_hand, _table)) {\r\n\t\t\treturn 7;\r\n\t\t}\r\n\t\t\r\n\t\telse if (isPair(_hand, _table)) {\r\n\t\t\treturn 8;\r\n\t\t}\r\n\r\n\t\telse {\r\n\t\t\treturn 9;\r\n\t\t}\r\n\r\n\t}\r\n\r\n\r\n\t// This function gets the winner if both players have the same ranking (both straight etc. but highest of five wins)\r\n\t// :param _player1Hand: Player1's hand\r\n\t// :param _player2Hand: Player2's hand\r\n\t// :param _table: The cards on the table\r\n\t// :return: True if player1 is winner, false if player2 is winner\r\n\t// If there is an actual tie then returns true (actual ties go to player1 :))\r\n\tfunction tieBreaker(CardLib.Card[2] memory _player1Hand, CardLib.Card[2] memory _player2Hand, CardLib.Card[5] memory _table) public pure returns (bool) {\r\n\t\tuint8 player1 = getHighCard(_player1Hand, _table);\r\n\t\tuint8 player2 = getHighCard(_player2Hand, _table);\r\n\r\n\t\tif (player1 > player2) {\r\n\t\t\treturn true;\r\n\t\t}\r\n\r\n\t\telse if (player2 > player1) {\r\n\t\t\treturn false;\r\n\t\t}\r\n\r\n\t\treturn true;\r\n\t}\r\n\r\n\t\r\n\t// Helper Functions for getting rankings\r\n\tfunction isRoyalFlush(CardLib.Card[2] memory _hand, CardLib.Card[5] memory _table) public pure returns (bool) {\r\n\t\tCardLib.Card[] memory allCards = new CardLib.Card[](_hand.length + _table.length);\r\n        for (uint i = 0; i < _hand.length; i++) {\r\n            allCards[i] = _hand[i];\r\n        }\r\n        for (uint i = 0; i < _table.length; i++) {\r\n            allCards[_hand.length + i] = _table[i];\r\n        }\r\n\r\n        string[] memory royalRanks = new string[](5);\r\n        royalRanks[0] = \"10\";\r\n        royalRanks[1] = \"Jack\";\r\n        royalRanks[2] = \"Queen\";\r\n        royalRanks[3] = \"King\";\r\n        royalRanks[4] = \"Ace\";\r\n\r\n        for (uint i = 0; i < 4; i++) { // Check each suit\r\n            string memory suit = [\"Diamonds\", \"Spades\", \"Clubs\", \"Hearts\"][i];\r\n            uint matchCount = 0;\r\n\r\n            for (uint j = 0; j < allCards.length; j++) {\r\n                for (uint k = 0; k < royalRanks.length; k++) {\r\n                    if (\r\n                        keccak256(abi.encodePacked(allCards[j].rank)) == keccak256(abi.encodePacked(royalRanks[k])) &&\r\n                        keccak256(abi.encodePacked(allCards[j].suit)) == keccak256(abi.encodePacked(suit))\r\n                    ) {\r\n                        matchCount++;\r\n                        break;\r\n                    }\r\n                }\r\n            }\r\n\r\n            if (matchCount == 5) {\r\n                return true;\r\n            }\r\n        }\r\n\r\n        return false;\r\n\t}\r\n\r\n\r\n\tfunction isStraightFlush(CardLib.Card[2] memory _hand, CardLib.Card[5] memory _table) public pure returns (bool) {\r\n\t\treturn isFlush(_hand, _table) && isStraight(_hand, _table);\r\n\t}\r\n\t\r\n\tfunction isFourOfaKind(CardLib.Card[2] memory _hand, CardLib.Card[5] memory _table) public pure returns (bool) {\r\n\t\tstring[7] memory ranks;\r\n\t\tranks[0] = _hand[0].rank;\r\n\t\tranks[1] = _hand[1].rank;\r\n\t\tranks[2] = _table[0].rank;\r\n\t\tranks[3] = _table[1].rank;\r\n\t\tranks[4] = _table[2].rank;\r\n\t\tranks[5] = _table[3].rank;\r\n\t\tranks[6] = _table[4].rank;\r\n\t\t\r\n\t\tfor (uint i = 0; i < ranks.length; i++) {\r\n\t\t\tfor (uint j = i+1; j < ranks.length; j++) {\r\n\t\t\t\tfor (uint k = j+1; k < ranks.length; k++) {\t\r\n\t\t\t\t\tfor (uint w = k+1; w < ranks.length; k++) {\r\n\t\t\t\t\t\tif (keccak256(abi.encodePacked(ranks[i])) == keccak256(abi.encodePacked(ranks[j])) &&\r\n\t\t\t\t\t\t keccak256(abi.encodePacked(ranks[j])) == keccak256(abi.encodePacked(ranks[k])) &&\r\n\t\t\t\t\t\t  keccak256(abi.encodePacked(ranks[k])) == keccak256(abi.encodePacked(ranks[w]))) {\t\r\n\t\t\t\t\t\t\treturn true;\r\n\t\t\t\t\t\t}\r\n\t\t\t\t\t}\r\n\t\t\t\t}\r\n\t\t\t}\r\n\t\t}\r\n\r\n\t\treturn false;\r\n\t}\r\n\t\r\n\t\r\n\tfunction isFullHouse(CardLib.Card[2] memory _hand, CardLib.Card[5] memory _table) public pure returns (bool) {\r\n\t\treturn isThreeOfaKind(_hand, _table) && isTwoPair(_hand, _table);\r\n\t}\r\n\t\r\n\r\n\tfunction isFlush(CardLib.Card[2] memory _hand, CardLib.Card[5] memory _table) public pure returns (bool) {\r\n\t\tstring[7] memory suits;\r\n\t\tsuits[0] = _hand[0].suit;\r\n\t\tsuits[1] = _hand[1].suit;\r\n\t\tsuits[2] = _table[0].suit;\r\n\t\tsuits[3] = _table[1].suit;\r\n\t\tsuits[4] = _table[2].suit;\r\n\t\tsuits[5] = _table[3].suit;\r\n\t\tsuits[6] = _table[4].suit;\r\n\t\t\r\n\t\tuint256 spades = 0;\r\n\t\tuint256 hearts = 0;\r\n\t\tuint256 clubs = 0;\r\n\t\tuint256 diamonds = 0;\r\n\r\n\t\tfor (uint256 i = 0; i < suits.length; i++) {\r\n\t\t\tif (keccak256(abi.encodePacked(suits[i])) == keccak256(abi.encodePacked(\"Diamonds\"))) {\r\n\t\t\t\tdiamonds += 1;\r\n\t\t\t}\r\n\t\t\t\r\n\t\t\telse if (keccak256(abi.encodePacked(suits[i])) == keccak256(abi.encodePacked(\"Clubs\"))) {\r\n\t\t\t\tclubs += 1;\r\n\t\t\t} \r\n\r\n\t\t\telse if (keccak256(abi.encodePacked(suits[i])) == keccak256(abi.encodePacked(\"Hearts\"))) {\r\n\t\t\t\thearts += 1;\r\n\t\t\t} \r\n\r\n\t\t\telse if (keccak256(abi.encodePacked(suits[i])) == keccak256(abi.encodePacked(\"Spades\"))) {\r\n\t\t\t\tspades += 1;\r\n\t\t\t} \r\n\t\t}\r\n\r\n\t\treturn spades >= 5 || hearts >= 5 || clubs >= 5 || diamonds >= 5;\r\n\t}\r\n\t\r\n\tfunction isStraight(CardLib.Card[2] memory _hand, CardLib.Card[5] memory _table) public pure returns (bool) {\r\n    \tstring[13] memory rankOrder = [\"2\", \"3\", \"4\", \"5\", \"6\", \"7\", \"8\", \"9\", \"10\", \"Jack\", \"Queen\", \"King\", \"Ace\"];\r\n        uint8[13] memory rankValues;\r\n\r\n        for (uint8 i = 0; i < rankOrder.length; i++) {\r\n            rankValues[i] = i + 2;\r\n        }\r\n\t\t\r\n\t\tstring[7] memory ranks;\r\n\t\tranks[0] = _hand[0].rank;\r\n\t\tranks[1] = _hand[1].rank;\r\n\t\tranks[2] = _table[0].rank;\r\n\t\tranks[3] = _table[1].rank;\r\n\t\tranks[4] = _table[2].rank;\r\n\t\tranks[5] = _table[3].rank;\r\n\t\tranks[6] = _table[4].rank;\r\n\r\n\t\tuint8[] memory allRankValues;\t\t\r\n\t\t        \r\n        for (uint i = 0; i < ranks.length; i++) {\r\n            for (uint8 j = 0; j < rankOrder.length; j++) {\r\n                if (keccak256(abi.encodePacked(ranks[i])) == keccak256(abi.encodePacked(rankOrder[j]))) {\r\n                    allRankValues[i] = rankValues[j];\r\n                }\r\n            }\r\n        }\r\n\t\t\r\n        allRankValues = sortRanks(allRankValues);\r\n        return checkConsecutive(allRankValues);\r\n\t}\r\n\r\n\tfunction isThreeOfaKind(CardLib.Card[2] memory _hand, CardLib.Card[5] memory _table) public pure returns (bool) {\r\n\t\tstring[7] memory ranks;\r\n\t\tranks[0] = _hand[0].rank;\r\n\t\tranks[1] = _hand[1].rank;\r\n\t\tranks[2] = _table[0].rank;\r\n\t\tranks[3] = _table[1].rank;\r\n\t\tranks[4] = _table[2].rank;\r\n\t\tranks[5] = _table[3].rank;\r\n\t\tranks[6] = _table[4].rank;\r\n\t\t\r\n\t\tfor (uint i = 0; i < ranks.length; i++) {\r\n\t\t\tfor (uint j = i+1; j < ranks.length; j++) {\r\n\t\t\t\tfor (uint k = j+1; k < ranks.length; k++) {\t\r\n\t\t\t\t\tif (keccak256(abi.encodePacked(ranks[i])) == keccak256(abi.encodePacked(ranks[j])) && keccak256(abi.encodePacked(ranks[i])) == keccak256(abi.encodePacked(ranks[k]))) {\t\r\n\t\t\t\t\t\treturn true;\r\n\t\t\t\t\t}\r\n\t\t\t\t}\r\n\t\t\t}\r\n\t\t}\r\n\r\n\t\treturn false;\r\n\t}\r\n\t\r\n\r\n\tfunction isTwoPair(CardLib.Card[2] memory _hand, CardLib.Card[5] memory _table) public pure returns (bool) {\r\n\t\tstring[7] memory ranks;\r\n\t\tranks[0] = _hand[0].rank;\r\n\t\tranks[1] = _hand[1].rank;\r\n\t\tranks[2] = _table[0].rank;\r\n\t\tranks[3] = _table[1].rank;\r\n\t\tranks[4] = _table[2].rank;\r\n\t\tranks[5] = _table[3].rank;\r\n\t\tranks[6] = _table[4].rank;\r\n\t\t\r\n\t\tuint256 pairCount = 0;\r\n\t\tstring memory pairs = \"\";\r\n\r\n\t\tfor (uint i = 0; i < ranks.length; i++) {\r\n\t\t\tfor (uint j = i+1; j < ranks.length; j++) {\r\n\t\t\t\tif (keccak256(abi.encodePacked(ranks[i])) == keccak256(abi.encodePacked(ranks[j]))) {\t\r\n\t\t\t\t\tpairCount += 1;\r\n\r\n\t\t\t\t\tif (pairCount == 1) {\r\n\t\t\t\t\t\tpairs = ranks[i];\r\n\t\t\t\t\t}\r\n\r\n\t\t\t\t\telse if (pairCount == 2 && keccak256(abi.encodePacked(pairs)) == keccak256(abi.encodePacked(ranks[j]))) {\r\n\t\t\t\t\t\tpairCount -= 1;\r\n\t\t\t\t\t}\r\n\t\t\t\t}\r\n\t\t\t}\r\n\t\t}\r\n\r\n\t\tif (pairCount >= 2) {\r\n\t\t\treturn true;\r\n\t\t}\r\n\r\n\t\treturn false;\r\n\t}\r\n\r\n\r\n\tfunction isPair(CardLib.Card[2] memory _hand, CardLib.Card[5] memory _table) public pure returns (bool) {\r\n\t\tstring[7] memory ranks;\r\n\t\tranks[0] = _hand[0].rank;\r\n\t\tranks[1] = _hand[1].rank;\r\n\t\tranks[2] = _table[0].rank;\r\n\t\tranks[3] = _table[1].rank;\r\n\t\tranks[4] = _table[2].rank;\r\n\t\tranks[5] = _table[3].rank;\r\n\t\tranks[6] = _table[4].rank;\r\n\t\t\r\n\t\tfor (uint i = 0; i < ranks.length; i++) {\r\n\t\t\tfor (uint j = i+1; j < ranks.length; j++) {\r\n\t\t\t\tif (keccak256(abi.encodePacked(ranks[i])) == keccak256(abi.encodePacked(ranks[j]))) {\t\r\n\t\t\t\t\treturn true;\r\n\t\t\t\t}\r\n\t\t\t}\r\n\t\t}\r\n\r\n\t\treturn false;\r\n\t}\r\n\r\n\r\n\t// Miscaleneous Helpers\r\n\r\n\tfunction getHighCard(CardLib.Card[2] memory _hand, CardLib.Card[5] memory _table) internal pure returns (uint8) {\r\n\r\n\t\tstring[13] memory rankOrder = [\"2\", \"3\", \"4\", \"5\", \"6\", \"7\", \"8\", \"9\", \"10\", \"Jack\", \"Queen\", \"King\", \"Ace\"];\r\n        uint8[13] memory rankValues;\r\n\r\n        for (uint8 i = 0; i < rankOrder.length; i++) {\r\n            rankValues[i] = i + 2;\r\n        }\r\n\t\t\r\n\t\tstring[7] memory ranks;\r\n\t\tranks[0] = _hand[0].rank;\r\n\t\tranks[1] = _hand[1].rank;\r\n\t\tranks[2] = _table[0].rank;\r\n\t\tranks[3] = _table[1].rank;\r\n\t\tranks[4] = _table[2].rank;\r\n\t\tranks[5] = _table[3].rank;\r\n\t\tranks[6] = _table[4].rank;\t\r\n\r\n\t\tuint8 maxCard = 0;\r\n\r\n\t\tfor (uint i = 0; i < ranks.length; i++) {\r\n\t\t\tfor (uint j = 0; j < rankOrder.length; j++) {\r\n\t\t\t\tif (keccak256(abi.encodePacked(ranks[i])) == keccak256(abi.encodePacked(rankOrder[j]))) {\t\r\n\t\t\t\t\tif (maxCard < rankValues[j]) {\r\n\t\t\t\t\t\tmaxCard = rankValues[j];\r\n\t\t\t\t\t}\r\n\t\t\t\t}\r\n\t\t\t}\r\n\t\t}\r\n\r\n\t\treturn maxCard;\r\n\t}\r\n\r\n\tfunction sortRanks(uint8[] memory _ranks) internal pure returns (uint8[] memory) {\r\n        for (uint i = 0; i < _ranks.length; i++) {\r\n            for (uint j = i + 1; j < _ranks.length; j++) {\r\n                if (_ranks[i] > _ranks[j]) {\r\n                    uint8 temp = _ranks[i];\r\n                    _ranks[i] = _ranks[j];\r\n                    _ranks[j] = temp;\r\n                }\r\n            }\r\n        }\r\n        return _ranks;\r\n    }\r\n\r\n\r\n    function checkConsecutive(uint8[] memory _ranks) internal pure returns (bool) {\r\n        uint consecutiveCount = 1;\r\n        for (uint i = 1; i < _ranks.length; i++) {\r\n            if (_ranks[i] == _ranks[i - 1]) {\r\n                continue;\r\n            } else if (_ranks[i] == _ranks[i - 1] + 1) {\r\n                consecutiveCount++;\r\n                if (consecutiveCount == 5) {\r\n                    return true;\r\n                }\r\n            } else {\r\n                consecutiveCount = 1;\r\n            }\r\n        }\r\n\r\n        // Special case for Ace to Five straight\r\n        if (_ranks[_ranks.length - 1] == 14) {\r\n            consecutiveCount = 1;\r\n            for (uint i = 0; i < _ranks.length - 1; i++) {\r\n                if (_ranks[i] == 5 - i) {\r\n                    consecutiveCount++;\r\n                    if (consecutiveCount == 5) {\r\n                        return true;\r\n                    }\r\n                }\r\n            }\r\n        }\r\n\r\n        return false;\r\n    }\r\n\r\n\r\n}",
  "sourcePath": "C:\\Users\\berta\\Desktop\\Poker-Bot\\PokerSmartContract\\contracts\\PlayLib.sol",
  "compiler": {
    "name": "solc",
    "version": "0.8.2+commit.661d1103.Emscripten.clang"
  },
  "schemaVersion": "3.4.16",
  "updatedAt": "2024-06-22T17:55:52.622Z",
  "networkType": "ethereum",
  "devdoc": {
    "kind": "dev",
    "methods": {},
    "version": 1
  },
  "userdoc": {
    "kind": "user",
    "methods": {},
    "version": 1
  }
}