{
  "contractName": "Poker",
  "abi": [
    {
      "inputs": [
        {
          "internalType": "uint256",
          "name": "_balance1",
          "type": "uint256"
        },
        {
          "internalType": "uint256",
          "name": "_balance2",
          "type": "uint256"
        }
      ],
      "stateMutability": "nonpayable",
      "type": "constructor"
    },
    {
      "inputs": [
        {
          "internalType": "uint256",
          "name": "_balance",
          "type": "uint256"
        }
      ],
      "name": "setPlayer1Balance",
      "outputs": [],
      "stateMutability": "nonpayable",
      "type": "function"
    },
    {
      "inputs": [
        {
          "internalType": "uint256",
          "name": "_balance",
          "type": "uint256"
        }
      ],
      "name": "setPlayer2Balance",
      "outputs": [],
      "stateMutability": "nonpayable",
      "type": "function"
    },
    {
      "inputs": [
        {
          "internalType": "uint256",
          "name": "_bet",
          "type": "uint256"
        }
      ],
      "name": "setPlayer1CurrentBet",
      "outputs": [],
      "stateMutability": "nonpayable",
      "type": "function"
    },
    {
      "inputs": [
        {
          "internalType": "uint256",
          "name": "_bet",
          "type": "uint256"
        }
      ],
      "name": "setPlayer2CurrentBet",
      "outputs": [],
      "stateMutability": "nonpayable",
      "type": "function"
    },
    {
      "inputs": [
        {
          "components": [
            {
              "internalType": "string",
              "name": "rank",
              "type": "string"
            },
            {
              "internalType": "string",
              "name": "suit",
              "type": "string"
            }
          ],
          "internalType": "struct CardLib.Card[2]",
          "name": "_hand",
          "type": "tuple[2]"
        }
      ],
      "name": "setPlayer1Hand",
      "outputs": [],
      "stateMutability": "nonpayable",
      "type": "function"
    },
    {
      "inputs": [
        {
          "components": [
            {
              "internalType": "string",
              "name": "rank",
              "type": "string"
            },
            {
              "internalType": "string",
              "name": "suit",
              "type": "string"
            }
          ],
          "internalType": "struct CardLib.Card[2]",
          "name": "_hand",
          "type": "tuple[2]"
        }
      ],
      "name": "setPlayer2Hand",
      "outputs": [],
      "stateMutability": "nonpayable",
      "type": "function"
    },
    {
      "inputs": [],
      "name": "getPlayer1Balance",
      "outputs": [
        {
          "internalType": "uint256",
          "name": "",
          "type": "uint256"
        }
      ],
      "stateMutability": "view",
      "type": "function",
      "constant": true
    },
    {
      "inputs": [],
      "name": "getPlayer2Balance",
      "outputs": [
        {
          "internalType": "uint256",
          "name": "",
          "type": "uint256"
        }
      ],
      "stateMutability": "view",
      "type": "function",
      "constant": true
    },
    {
      "inputs": [],
      "name": "getPlayer1CurrentBet",
      "outputs": [
        {
          "internalType": "uint256",
          "name": "",
          "type": "uint256"
        }
      ],
      "stateMutability": "view",
      "type": "function",
      "constant": true
    },
    {
      "inputs": [],
      "name": "getPlayer2CurrentBet",
      "outputs": [
        {
          "internalType": "uint256",
          "name": "",
          "type": "uint256"
        }
      ],
      "stateMutability": "view",
      "type": "function",
      "constant": true
    },
    {
      "inputs": [],
      "name": "getPlayer1Hand",
      "outputs": [
        {
          "components": [
            {
              "internalType": "string",
              "name": "rank",
              "type": "string"
            },
            {
              "internalType": "string",
              "name": "suit",
              "type": "string"
            }
          ],
          "internalType": "struct CardLib.Card[2]",
          "name": "",
          "type": "tuple[2]"
        }
      ],
      "stateMutability": "view",
      "type": "function",
      "constant": true
    },
    {
      "inputs": [],
      "name": "getPlayer2Hand",
      "outputs": [
        {
          "components": [
            {
              "internalType": "string",
              "name": "rank",
              "type": "string"
            },
            {
              "internalType": "string",
              "name": "suit",
              "type": "string"
            }
          ],
          "internalType": "struct CardLib.Card[2]",
          "name": "",
          "type": "tuple[2]"
        }
      ],
      "stateMutability": "view",
      "type": "function",
      "constant": true
    },
    {
      "inputs": [],
      "name": "getNewDeck",
      "outputs": [],
      "stateMutability": "nonpayable",
      "type": "function"
    },
    {
      "inputs": [
        {
          "components": [
            {
              "internalType": "uint256",
              "name": "balance",
              "type": "uint256"
            },
            {
              "components": [
                {
                  "internalType": "string",
                  "name": "rank",
                  "type": "string"
                },
                {
                  "internalType": "string",
                  "name": "suit",
                  "type": "string"
                }
              ],
              "internalType": "struct CardLib.Card[2]",
              "name": "hand",
              "type": "tuple[2]"
            },
            {
              "internalType": "uint256",
              "name": "currentBet",
              "type": "uint256"
            }
          ],
          "internalType": "struct Poker.Player",
          "name": "_player1",
          "type": "tuple"
        },
        {
          "components": [
            {
              "internalType": "uint256",
              "name": "balance",
              "type": "uint256"
            },
            {
              "components": [
                {
                  "internalType": "string",
                  "name": "rank",
                  "type": "string"
                },
                {
                  "internalType": "string",
                  "name": "suit",
                  "type": "string"
                }
              ],
              "internalType": "struct CardLib.Card[2]",
              "name": "hand",
              "type": "tuple[2]"
            },
            {
              "internalType": "uint256",
              "name": "currentBet",
              "type": "uint256"
            }
          ],
          "internalType": "struct Poker.Player",
          "name": "_player2",
          "type": "tuple"
        }
      ],
      "name": "endOfHand",
      "outputs": [],
      "stateMutability": "nonpayable",
      "type": "function"
    }
  ],
  "bytecode": "0x6080604052600a607e60006101000a81548160ff021916908360ff1602179055506005607e60016101000a81548160ff021916908360ff1602179055503480156200004957600080fd5b50604051620021053803806200210583398181016040528101906200006f919062000480565b600073__CardLib_______________________________63e6624c326040518163ffffffff1660e01b815260040160006040518083038186803b158015620000b657600080fd5b505af4158015620000cb573d6000803e3d6000fd5b505050506040513d6000823e3d601f19601f82011682018060405250810190620000f691906200043b565b905060005b6034811015620001da578181603481106200013f577f4e487b7100000000000000000000000000000000000000000000000000000000600052603260045260246000fd5b6020020151600c82603481106200017f577f4e487b7100000000000000000000000000000000000000000000000000000000600052603260045260246000fd5b600202016000820151816000019080519060200190620001a1929190620001f7565b506020820151816001019080519060200190620001c0929190620001f7565b509050508080620001d190620005f5565b915050620000fb565b5082600080018190555081600660000181905550505050620006fb565b828054620002059062000589565b90600052602060002090601f01602090048101928262000229576000855562000275565b82601f106200024457805160ff191683800117855562000275565b8280016001018555821562000275579182015b828111156200027457825182559160200191906001019062000257565b5b50905062000284919062000288565b5090565b5b80821115620002a357600081600090555060010162000289565b5090565b6000620002be620002b884620004ea565b620004c1565b9050808260005b85811015620002f95781518501620002de88826200039f565b845260208401935060208301925050600181019050620002c5565b5050509392505050565b60006200031a620003148462000513565b620004c1565b9050828152602081018484840111156200033357600080fd5b6200034084828562000553565b509392505050565b600082601f8301126200035a57600080fd5b603462000369848285620002a7565b91505092915050565b600082601f8301126200038457600080fd5b81516200039684826020860162000303565b91505092915050565b600060408284031215620003b257600080fd5b620003be6040620004c1565b9050600082015167ffffffffffffffff811115620003db57600080fd5b620003e98482850162000372565b600083015250602082015167ffffffffffffffff8111156200040a57600080fd5b620004188482850162000372565b60208301525092915050565b6000815190506200043581620006e1565b92915050565b6000602082840312156200044e57600080fd5b600082015167ffffffffffffffff8111156200046957600080fd5b620004778482850162000348565b91505092915050565b600080604083850312156200049457600080fd5b6000620004a48582860162000424565b9250506020620004b78582860162000424565b9150509250929050565b6000620004cd620004e0565b9050620004db8282620005bf565b919050565b6000604051905090565b600067ffffffffffffffff821115620005085762000507620006a1565b5b602082029050919050565b600067ffffffffffffffff821115620005315762000530620006a1565b5b6200053c82620006d0565b9050602081019050919050565b6000819050919050565b60005b838110156200057357808201518184015260208101905062000556565b8381111562000583576000848401525b50505050565b60006002820490506001821680620005a257607f821691505b60208210811415620005b957620005b862000672565b5b50919050565b620005ca82620006d0565b810181811067ffffffffffffffff82111715620005ec57620005eb620006a1565b5b80604052505050565b6000620006028262000549565b91507fffffffffffffffffffffffffffffffffffffffffffffffffffffffffffffffff82141562000638576200063762000643565b5b600182019050919050565b7f4e487b7100000000000000000000000000000000000000000000000000000000600052601160045260246000fd5b7f4e487b7100000000000000000000000000000000000000000000000000000000600052602260045260246000fd5b7f4e487b7100000000000000000000000000000000000000000000000000000000600052604160045260246000fd5b6000601f19601f8301169050919050565b620006ec8162000549565b8114620006f857600080fd5b50565b6119fa806200070b6000396000f3fe608060405234801561001057600080fd5b50600436106100ea5760003560e01c80639126fde21161008c578063bf9734d711610066578063bf9734d7146101fb578063cfe7ec3514610219578063de6b25b114610235578063f5660f0514610253576100ea565b80639126fde2146101a3578063a9f346e3146101c1578063b96acdee146101df576100ea565b80632e5663ec116100c85780632e5663ec146101335780635e7915af1461014f5780635fd6b26b1461016b5780638a5cc40314610187576100ea565b8063018c7834146100ef57806309670bdc146100f95780630da5e01f14610115575b600080fd5b6100f7610271565b005b610113600480360381019061010e9190611092565b610657565b005b61011d610736565b60405161012a9190611606565b60405180910390f35b61014d600480360381019061014891906111a9565b610742565b005b610169600480360381019061016491906111a9565b61074f565b005b6101856004803603810190610180919061113d565b61075c565b005b6101a1600480360381019061019c91906111a9565b610838565b005b6101ab610844565b6040516101b89190611606565b60405180910390f35b6101c9610851565b6040516101d69190611606565b60405180910390f35b6101f960048036038101906101f491906111a9565b61085d565b005b61020361086a565b6040516102109190611598565b60405180910390f35b610233600480360381019061022e9190611092565b6109e3565b005b61023d610ac2565b60405161024a9190611598565b60405180910390f35b61025b610c3b565b6040516102689190611606565b60405180910390f35b600073__CardLib_______________________________63e6624c326040518163ffffffff1660e01b815260040160006040518083038186803b1580156102b757600080fd5b505af41580156102cb573d6000803e3d6000fd5b505050506040513d6000823e3d601f19601f820116820180604052508101906102f491906110d3565b905060005b60348110156103ce5781816034811061033b577f4e487b7100000000000000000000000000000000000000000000000000000000600052603260045260246000fd5b6020020151600c826034811061037a577f4e487b7100000000000000000000000000000000000000000000000000000000600052603260045260246000fd5b60020201600082015181600001908051906020019061039a929190610c48565b5060208201518160010190805190602001906103b7929190610c48565b5090505080806103c6906118af565b9150506102f9565b5060005b600281101561049f576040518060400160405280604051806020016040528060008152508152602001604051806020016040528060008152508152506000600101826002811061044b577f4e487b7100000000000000000000000000000000000000000000000000000000600052603260045260246000fd5b60020201600082015181600001908051906020019061046b929190610c48565b506020820151816001019080519060200190610488929190610c48565b509050508080610497906118af565b9150506103d2565b5060005b6002811015610570576040518060400160405280604051806020016040528060008152508152602001604051806020016040528060008152508152506006600101826002811061051c577f4e487b7100000000000000000000000000000000000000000000000000000000600052603260045260246000fd5b60020201600082015181600001908051906020019061053c929190610c48565b506020820151816001019080519060200190610559929190610c48565b509050508080610568906118af565b9150506104a3565b5060005b600581101561063e57604051806040016040528060405180602001604052806000815250815260200160405180602001604052806000815250815250607482600581106105ea577f4e487b7100000000000000000000000000000000000000000000000000000000600052603260045260246000fd5b60020201600082015181600001908051906020019061060a929190610c48565b506020820151816001019080519060200190610627929190610c48565b509050508080610636906118af565b915050610574565b5060008060050181905550600060066005018190555050565b60005b60028110156107325781816002811061069c577f4e487b7100000000000000000000000000000000000000000000000000000000600052603260045260246000fd5b6020020151600660010182600281106106de577f4e487b7100000000000000000000000000000000000000000000000000000000600052603260045260246000fd5b6002020160008201518160000190805190602001906106fe929190610c48565b50602082015181600101908051906020019061071b929190610c48565b50905050808061072a906118af565b91505061065a565b5050565b60008060050154905090565b8060006005018190555050565b8060066005018190555050565b73__PlayLib_______________________________639a64cfaf838360746040518463ffffffff1660e01b8152600401610798939291906115ba565b60206040518083038186803b1580156107b057600080fd5b505af41580156107c4573d6000803e3d6000fd5b505050506040513d601f19601f820116820180604052508101906107e89190611114565b1561081257600060050154600080016000828254610806919061176a565b92505081905550610834565b6006600501546006600001600082825461082c91906117c0565b925050819055505b5050565b80600080018190555050565b6000600660050154905090565b60008060000154905090565b8060066000018190555050565b610872610cce565b6006600101600280602002604051908101604052809291906000905b828210156109da578382600202016040518060400160405290816000820180546108b79061184c565b80601f01602080910402602001604051908101604052809291908181526020018280546108e39061184c565b80156109305780601f1061090557610100808354040283529160200191610930565b820191906000526020600020905b81548152906001019060200180831161091357829003601f168201915b505050505081526020016001820180546109499061184c565b80601f01602080910402602001604051908101604052809291908181526020018280546109759061184c565b80156109c25780601f10610997576101008083540402835291602001916109c2565b820191906000526020600020905b8154815290600101906020018083116109a557829003601f168201915b5050505050815250508152602001906001019061088e565b50505050905090565b60005b6002811015610abe57818160028110610a28577f4e487b7100000000000000000000000000000000000000000000000000000000600052603260045260246000fd5b602002015160006001018260028110610a6a577f4e487b7100000000000000000000000000000000000000000000000000000000600052603260045260246000fd5b600202016000820151816000019080519060200190610a8a929190610c48565b506020820151816001019080519060200190610aa7929190610c48565b509050508080610ab6906118af565b9150506109e6565b5050565b610aca610cce565b6000600101600280602002604051908101604052809291906000905b82821015610c3257838260020201604051806040016040529081600082018054610b0f9061184c565b80601f0160208091040260200160405190810160405280929190818152602001828054610b3b9061184c565b8015610b885780601f10610b5d57610100808354040283529160200191610b88565b820191906000526020600020905b815481529060010190602001808311610b6b57829003601f168201915b50505050508152602001600182018054610ba19061184c565b80601f0160208091040260200160405190810160405280929190818152602001828054610bcd9061184c565b8015610c1a5780601f10610bef57610100808354040283529160200191610c1a565b820191906000526020600020905b815481529060010190602001808311610bfd57829003601f168201915b50505050508152505081526020019060010190610ae6565b50505050905090565b6000600660000154905090565b828054610c549061184c565b90600052602060002090601f016020900481019282610c765760008555610cbd565b82601f10610c8f57805160ff1916838001178555610cbd565b82800160010185558215610cbd579182015b82811115610cbc578251825591602001919060010190610ca1565b5b509050610cca9190610cfb565b5090565b60405180604001604052806002905b610ce5610d18565b815260200190600190039081610cdd5790505090565b5b80821115610d14576000816000905550600101610cfc565b5090565b604051806040016040528060608152602001606081525090565b6000610d45610d4084611646565b611621565b9050808260005b85811015610d7c5781358501610d628882610f0d565b845260208401935060208301925050600181019050610d4c565b5050509392505050565b6000610d99610d948461166c565b611621565b9050808260005b85811015610dd05781518501610db68882610f89565b845260208401935060208301925050600181019050610da0565b5050509392505050565b6000610ded610de884611692565b611621565b905082815260208101848484011115610e0557600080fd5b610e1084828561180a565b509392505050565b6000610e2b610e2684611692565b611621565b905082815260208101848484011115610e4357600080fd5b610e4e848285611819565b509392505050565b600082601f830112610e6757600080fd5b6002610e74848285610d32565b91505092915050565b600082601f830112610e8e57600080fd5b6034610e9b848285610d86565b91505092915050565b600081519050610eb381611996565b92915050565b600082601f830112610eca57600080fd5b8135610eda848260208601610dda565b91505092915050565b600082601f830112610ef457600080fd5b8151610f04848260208601610e18565b91505092915050565b600060408284031215610f1f57600080fd5b610f296040611621565b9050600082013567ffffffffffffffff811115610f4557600080fd5b610f5184828501610eb9565b600083015250602082013567ffffffffffffffff811115610f7157600080fd5b610f7d84828501610eb9565b60208301525092915050565b600060408284031215610f9b57600080fd5b610fa56040611621565b9050600082015167ffffffffffffffff811115610fc157600080fd5b610fcd84828501610ee3565b600083015250602082015167ffffffffffffffff811115610fed57600080fd5b610ff984828501610ee3565b60208301525092915050565b60006060828403121561101757600080fd5b6110216060611621565b905060006110318482850161107d565b600083015250602082013567ffffffffffffffff81111561105157600080fd5b61105d84828501610e56565b60208301525060406110718482850161107d565b60408301525092915050565b60008135905061108c816119ad565b92915050565b6000602082840312156110a457600080fd5b600082013567ffffffffffffffff8111156110be57600080fd5b6110ca84828501610e56565b91505092915050565b6000602082840312156110e557600080fd5b600082015167ffffffffffffffff8111156110ff57600080fd5b61110b84828501610e7d565b91505092915050565b60006020828403121561112657600080fd5b600061113484828501610ea4565b91505092915050565b6000806040838503121561115057600080fd5b600083013567ffffffffffffffff81111561116a57600080fd5b61117685828601611005565b925050602083013567ffffffffffffffff81111561119357600080fd5b61119f85828601611005565b9150509250929050565b6000602082840312156111bb57600080fd5b60006111c98482850161107d565b91505092915050565b60006111de838361145e565b905092915050565b60006111f283836114a2565b905092915050565b600061120683836114e6565b905092915050565b6000611219826116ec565b6112238185611727565b935083602082028501611235856116c3565b8060005b85811015611271578484038952815161125285826111d2565b945061125d8361170d565b925060208a01995050600181019050611239565b50829750879550505050505092915050565b600061128e826116ec565b6112988185611732565b9350836020820285016112aa856116c3565b8060005b858110156112e657848403895281516112c785826111e6565b94506112d28361170d565b925060208a019950506001810190506112ae565b50829750879550505050505092915050565b6000611303826116f7565b61130d818561173d565b93508360208202850161131f856116cd565b8060005b8581101561135a5784840389528161133b85826111fa565b94506113468361171a565b925060208a01995050600181019050611323565b50829750879550505050505092915050565b600061137782611702565b6113818185611748565b9350611391818560208601611819565b61139a81611985565b840191505092915050565b60006113b082611702565b6113ba8185611759565b93506113ca818560208601611819565b6113d381611985565b840191505092915050565b600081546113eb8161184c565b6113f58186611759565b94506001821660008114611410576001811461142257611455565b60ff1983168652602086019350611455565b61142b856116d7565b60005b8381101561144d5781548189015260018201915060208101905061142e565b808801955050505b50505092915050565b6000604083016000830151848203600086015261147b828261136c565b91505060208301518482036020860152611495828261136c565b9150508091505092915050565b600060408301600083015184820360008601526114bf82826113a5565b915050602083015184820360208601526114d982826113a5565b9150508091505092915050565b6000604083016000808401858303600087015261150383826113de565b92505060018401858303602087015261151c83826113de565b925050819250505092915050565b60006060830160008301516115426000860182611589565b506020830151848203602086015261155a8282611283565b915050604083015161156f6040860182611589565b508091505092915050565b61158381611800565b82525050565b61159281611800565b82525050565b600060208201905081810360008301526115b2818461120e565b905092915050565b600060608201905081810360008301526115d4818661152a565b905081810360208301526115e8818561152a565b905081810360408301526115fc81846112f8565b9050949350505050565b600060208201905061161b600083018461157a565b92915050565b600061162b61163c565b9050611637828261187e565b919050565b6000604051905090565b600067ffffffffffffffff82111561166157611660611956565b5b602082029050919050565b600067ffffffffffffffff82111561168757611686611956565b5b602082029050919050565b600067ffffffffffffffff8211156116ad576116ac611956565b5b6116b682611985565b9050602081019050919050565b6000819050919050565b6000819050919050565b60008190508160005260206000209050919050565b600060029050919050565b600060059050919050565b600081519050919050565b6000602082019050919050565b6000600282019050919050565b600081905092915050565b600081905092915050565b600081905092915050565b600082825260208201905092915050565b600082825260208201905092915050565b600061177582611800565b915061178083611800565b9250827fffffffffffffffffffffffffffffffffffffffffffffffffffffffffffffffff038211156117b5576117b46118f8565b5b828201905092915050565b60006117cb82611800565b91506117d683611800565b9250828210156117e9576117e86118f8565b5b828203905092915050565b60008115159050919050565b6000819050919050565b82818337600083830152505050565b60005b8381101561183757808201518184015260208101905061181c565b83811115611846576000848401525b50505050565b6000600282049050600182168061186457607f821691505b6020821081141561187857611877611927565b5b50919050565b61188782611985565b810181811067ffffffffffffffff821117156118a6576118a5611956565b5b80604052505050565b60006118ba82611800565b91507fffffffffffffffffffffffffffffffffffffffffffffffffffffffffffffffff8214156118ed576118ec6118f8565b5b600182019050919050565b7f4e487b7100000000000000000000000000000000000000000000000000000000600052601160045260246000fd5b7f4e487b7100000000000000000000000000000000000000000000000000000000600052602260045260246000fd5b7f4e487b7100000000000000000000000000000000000000000000000000000000600052604160045260246000fd5b6000601f19601f8301169050919050565b61199f816117f4565b81146119aa57600080fd5b50565b6119b681611800565b81146119c157600080fd5b5056fea26469706673582212203298f938d469441e9635667e3aa10702fb8ae14cdfe50dd22351aa6c1d07b1a864736f6c63430008020033",
  "immutableReferences": {},
  "source": "// SPDX-License-Identifier: MIT\r\n// @ Author: Bertan Berker\r\n// @ Filename: Poker.sol\r\n\r\n\r\npragma solidity ^0.8.2;\r\n\r\nimport './PlayLib.sol';\r\nimport './CardLib.sol';\r\n\r\ncontract Poker {\r\n\r\n    struct Player {\r\n        uint256 balance;\r\n        CardLib.Card[2] hand;\r\n        uint256 currentBet;\r\n    }\r\n\r\n    Player player1;\r\n    Player player2;\r\n\tCardLib.Card[52] deck;\r\n    CardLib.Card[5] table;\r\n    uint8 bigBlind = 10;\r\n    uint8 smallBlind = 5;\r\n\r\n\r\n    // This is the constructor for the contract\r\n    constructor(uint256 _balance1, uint256 _balance2) {\r\n        CardLib.Card[52] memory tempDeck = CardLib.createDeck();\r\n        for (uint i = 0; i < tempDeck.length; i++) {\r\n            deck[i] = tempDeck[i];\r\n        }\r\n        player1.balance = _balance1;\r\n        player2.balance = _balance2;\r\n    }\r\n\r\n\r\n    // These are the setters for the contract\r\n    function setPlayer1Balance(uint256 _balance) public {\r\n        player1.balance = _balance;\r\n    }\r\n\r\n    function setPlayer2Balance(uint256 _balance) public {\r\n        player2.balance = _balance;\r\n    }\r\n\r\n    function setPlayer1CurrentBet(uint256 _bet) public {\r\n        player1.currentBet = _bet;\r\n    }\r\n\r\n    function setPlayer2CurrentBet(uint256 _bet) public {\r\n        player2.currentBet = _bet;\r\n    }\r\n\r\n    function setPlayer1Hand(CardLib.Card[2] memory _hand) public {\r\n        for (uint i = 0; i < 2; i++) {\r\n            player1.hand[i] = _hand[i];\r\n        }\r\n    } \r\n\r\n    function setPlayer2Hand(CardLib.Card[2] memory _hand) public {\r\n        for (uint i = 0; i < 2; i++) {\r\n            player2.hand[i] = _hand[i];\r\n        }\r\n    } \r\n\r\n\r\n    // These are the getters for the contract\r\n    function getPlayer1Balance() public view returns (uint256){\r\n        return player1.balance;\r\n    }\r\n\r\n    function getPlayer2Balance() public view returns (uint256) {\r\n        return player2.balance;\r\n    }\r\n\r\n    function getPlayer1CurrentBet() public view returns (uint256) {\r\n        return player1.currentBet;\r\n    }\r\n\r\n    function getPlayer2CurrentBet() public view returns (uint256) {\r\n        return player2.currentBet;\r\n    }\r\n\r\n    function getPlayer1Hand() public view returns (CardLib.Card[2] memory) {\r\n        return player1.hand;\r\n    }\r\n    \r\n    function getPlayer2Hand() public view returns (CardLib.Card[2] memory) {\r\n        return player2.hand;\r\n    }   \r\n\r\n    // Miscellaneous Functions\r\n    function getNewDeck() public {\r\n        CardLib.Card[52] memory tempDeck = CardLib.createDeck();\r\n        for (uint i = 0; i < tempDeck.length; i++) {\r\n            deck[i] = tempDeck[i];\r\n        }\r\n        \r\n        // Initialize hands and table\r\n        for (uint i = 0; i < player1.hand.length; i++) {\r\n            player1.hand[i] = CardLib.Card(\"\", \"\");\r\n        }\r\n        \r\n        for (uint i = 0; i < player2.hand.length; i++) {\r\n            player2.hand[i] = CardLib.Card(\"\", \"\");\r\n        }\r\n        \r\n        for (uint i = 0; i < table.length; i++) {\r\n            table[i] = CardLib.Card(\"\", \"\");\r\n        }\r\n\r\n        player1.currentBet = 0;\r\n        player2.currentBet = 0;\r\n\r\n    }\r\n\r\n    function endOfHand(Player memory _player1, Player memory _player2) public {\r\n        // End of River\r\n        if (PlayLib.chooseWinner(_player1, _player2, table)) {\r\n            // Player1 wins\r\n            player1.balance += player1.currentBet;\r\n        }\r\n\r\n        else{\r\n            // Player2 wins\r\n            player2.balance -= player2.currentBet;\r\n        }\r\n    }\r\n\r\n}",
  "sourcePath": "C:\\Users\\berta\\Desktop\\Poker-Bot\\PokerSmartContract\\contracts\\Poker.sol",
  "compiler": {
    "name": "solc",
    "version": "0.8.2+commit.661d1103.Emscripten.clang"
  },
  "schemaVersion": "3.4.16",
  "updatedAt": "2024-06-22T17:55:52.593Z",
  "networkType": "ethereum",
  "devdoc": {
    "kind": "dev",
    "methods": {},
    "version": 1
  },
  "userdoc": {
    "kind": "user",
    "methods": {},
    "version": 1
  }
}