{
  "contractName": "Poker",
  "abi": [
    {
      "inputs": [
        {
          "internalType": "uint256",
          "name": "_balance1",
          "type": "uint256"
        },
        {
          "internalType": "uint256",
          "name": "_balance2",
          "type": "uint256"
        }
      ],
      "stateMutability": "nonpayable",
      "type": "constructor"
    },
    {
      "inputs": [
        {
          "internalType": "uint256",
          "name": "_balance",
          "type": "uint256"
        }
      ],
      "name": "setPlayer1Balance",
      "outputs": [],
      "stateMutability": "nonpayable",
      "type": "function"
    },
    {
      "inputs": [
        {
          "internalType": "uint256",
          "name": "_balance",
          "type": "uint256"
        }
      ],
      "name": "setPlayer2Balance",
      "outputs": [],
      "stateMutability": "nonpayable",
      "type": "function"
    },
    {
      "inputs": [
        {
          "internalType": "uint256",
          "name": "_bet",
          "type": "uint256"
        }
      ],
      "name": "setPlayer1CurrentBet",
      "outputs": [],
      "stateMutability": "nonpayable",
      "type": "function"
    },
    {
      "inputs": [
        {
          "internalType": "uint256",
          "name": "_bet",
          "type": "uint256"
        }
      ],
      "name": "setPlayer2CurrentBet",
      "outputs": [],
      "stateMutability": "nonpayable",
      "type": "function"
    },
    {
      "inputs": [
        {
          "components": [
            {
              "internalType": "string",
              "name": "rank",
              "type": "string"
            },
            {
              "internalType": "string",
              "name": "suit",
              "type": "string"
            }
          ],
          "internalType": "struct CardLib.Card[2]",
          "name": "_hand",
          "type": "tuple[2]"
        }
      ],
      "name": "setPlayer1Hand",
      "outputs": [],
      "stateMutability": "nonpayable",
      "type": "function"
    },
    {
      "inputs": [
        {
          "components": [
            {
              "internalType": "string",
              "name": "rank",
              "type": "string"
            },
            {
              "internalType": "string",
              "name": "suit",
              "type": "string"
            }
          ],
          "internalType": "struct CardLib.Card[2]",
          "name": "_hand",
          "type": "tuple[2]"
        }
      ],
      "name": "setPlayer2Hand",
      "outputs": [],
      "stateMutability": "nonpayable",
      "type": "function"
    },
    {
      "inputs": [],
      "name": "getPlayer1Balance",
      "outputs": [
        {
          "internalType": "uint256",
          "name": "",
          "type": "uint256"
        }
      ],
      "stateMutability": "view",
      "type": "function"
    },
    {
      "inputs": [],
      "name": "getPlayer2Balance",
      "outputs": [
        {
          "internalType": "uint256",
          "name": "",
          "type": "uint256"
        }
      ],
      "stateMutability": "view",
      "type": "function"
    },
    {
      "inputs": [],
      "name": "getPlayer1CurrentBet",
      "outputs": [
        {
          "internalType": "uint256",
          "name": "",
          "type": "uint256"
        }
      ],
      "stateMutability": "view",
      "type": "function"
    },
    {
      "inputs": [],
      "name": "getPlayer2CurrentBet",
      "outputs": [
        {
          "internalType": "uint256",
          "name": "",
          "type": "uint256"
        }
      ],
      "stateMutability": "view",
      "type": "function"
    },
    {
      "inputs": [],
      "name": "getPlayer1Hand",
      "outputs": [
        {
          "components": [
            {
              "internalType": "string",
              "name": "rank",
              "type": "string"
            },
            {
              "internalType": "string",
              "name": "suit",
              "type": "string"
            }
          ],
          "internalType": "struct CardLib.Card[2]",
          "name": "",
          "type": "tuple[2]"
        }
      ],
      "stateMutability": "view",
      "type": "function"
    },
    {
      "inputs": [],
      "name": "getPlayer2Hand",
      "outputs": [
        {
          "components": [
            {
              "internalType": "string",
              "name": "rank",
              "type": "string"
            },
            {
              "internalType": "string",
              "name": "suit",
              "type": "string"
            }
          ],
          "internalType": "struct CardLib.Card[2]",
          "name": "",
          "type": "tuple[2]"
        }
      ],
      "stateMutability": "view",
      "type": "function"
    },
    {
      "inputs": [],
      "name": "getNewDeck",
      "outputs": [],
      "stateMutability": "nonpayable",
      "type": "function"
    },
    {
      "inputs": [
        {
          "components": [
            {
              "internalType": "uint256",
              "name": "balance",
              "type": "uint256"
            },
            {
              "components": [
                {
                  "internalType": "string",
                  "name": "rank",
                  "type": "string"
                },
                {
                  "internalType": "string",
                  "name": "suit",
                  "type": "string"
                }
              ],
              "internalType": "struct CardLib.Card[2]",
              "name": "hand",
              "type": "tuple[2]"
            },
            {
              "internalType": "uint256",
              "name": "currentBet",
              "type": "uint256"
            }
          ],
          "internalType": "struct Poker.Player",
          "name": "_player1",
          "type": "tuple"
        },
        {
          "components": [
            {
              "internalType": "uint256",
              "name": "balance",
              "type": "uint256"
            },
            {
              "components": [
                {
                  "internalType": "string",
                  "name": "rank",
                  "type": "string"
                },
                {
                  "internalType": "string",
                  "name": "suit",
                  "type": "string"
                }
              ],
              "internalType": "struct CardLib.Card[2]",
              "name": "hand",
              "type": "tuple[2]"
            },
            {
              "internalType": "uint256",
              "name": "currentBet",
              "type": "uint256"
            }
          ],
          "internalType": "struct Poker.Player",
          "name": "_player2",
          "type": "tuple"
        }
      ],
      "name": "endOfHand",
      "outputs": [],
      "stateMutability": "nonpayable",
      "type": "function"
    }
  ],
  "bytecode": "0x608060405234801562000010575f80fd5b50604051620022fc380380620022fc833981810160405281019062000036919062000197565b5f73__CardLib_______________________________63e6624c326040518163ffffffff1660e01b81526004015f60405180830381865af41580156200007e573d5f803e3d5ffd5b505050506040513d5f823e3d601f19601f82011682018060405250810190620000a89190620004d2565b90505f5b60348110156200013357818160348110620000cc57620000cb62000521565b5b6020020151600c8260348110620000e857620000e762000521565b5b600202015f820151815f0190816200010191906200077c565b5060208201518160010190816200011991906200077c565b5090505080806200012a906200088d565b915050620000ac565b50825f8001819055508160065f0181905550505050620008d9565b5f604051905090565b5f80fd5b5f80fd5b5f819050919050565b62000173816200015f565b81146200017e575f80fd5b50565b5f81519050620001918162000168565b92915050565b5f8060408385031215620001b057620001af62000157565b5b5f620001bf8582860162000181565b9250506020620001d28582860162000181565b9150509250929050565b5f80fd5b5f601f19601f8301169050919050565b7f4e487b71000000000000000000000000000000000000000000000000000000005f52604160045260245ffd5b6200022882620001e0565b810181811067ffffffffffffffff821117156200024a5762000249620001f0565b5b80604052505050565b5f6200025e6200014e565b90506200026c82826200021d565b919050565b5f67ffffffffffffffff8211156200028e576200028d620001f0565b5b602082029050919050565b5f80fd5b5f80fd5b5f80fd5b5f80fd5b5f67ffffffffffffffff821115620002c657620002c5620001f0565b5b620002d182620001e0565b9050602081019050919050565b5f5b83811015620002fd578082015181840152602081019050620002e0565b5f8484015250505050565b5f6200031e6200031884620002a9565b62000253565b9050828152602081018484840111156200033d576200033c620002a5565b5b6200034a848285620002de565b509392505050565b5f82601f830112620003695762000368620001dc565b5b81516200037b84826020860162000308565b91505092915050565b5f604082840312156200039c576200039b6200029d565b5b620003a8604062000253565b90505f82015167ffffffffffffffff811115620003ca57620003c9620002a1565b5b620003d88482850162000352565b5f83015250602082015167ffffffffffffffff811115620003fe57620003fd620002a1565b5b6200040c8482850162000352565b60208301525092915050565b5f6200042e620004288462000271565b62000253565b905080602084028301858111156200044b576200044a62000299565b5b835b818110156200049957805167ffffffffffffffff811115620004745762000473620001dc565b5b80860162000483898262000384565b855260208501945050506020810190506200044d565b5050509392505050565b5f82601f830112620004ba57620004b9620001dc565b5b6034620004c984828562000418565b91505092915050565b5f60208284031215620004ea57620004e962000157565b5b5f82015167ffffffffffffffff8111156200050a57620005096200015b565b5b6200051884828501620004a3565b91505092915050565b7f4e487b71000000000000000000000000000000000000000000000000000000005f52603260045260245ffd5b5f81519050919050565b7f4e487b71000000000000000000000000000000000000000000000000000000005f52602260045260245ffd5b5f60028204905060018216806200059d57607f821691505b602082108103620005b357620005b262000558565b5b50919050565b5f819050815f5260205f209050919050565b5f6020601f8301049050919050565b5f82821b905092915050565b5f60088302620006177fffffffffffffffffffffffffffffffffffffffffffffffffffffffffffffffff82620005da565b620006238683620005da565b95508019841693508086168417925050509392505050565b5f819050919050565b5f620006646200065e62000658846200015f565b6200063b565b6200015f565b9050919050565b5f819050919050565b6200067f8362000644565b620006976200068e826200066b565b848454620005e6565b825550505050565b5f90565b620006ad6200069f565b620006ba81848462000674565b505050565b5b81811015620006e157620006d55f82620006a3565b600181019050620006c0565b5050565b601f8211156200073057620006fa81620005b9565b6200070584620005cb565b8101602085101562000715578190505b6200072d6200072485620005cb565b830182620006bf565b50505b505050565b5f82821c905092915050565b5f620007525f198460080262000735565b1980831691505092915050565b5f6200076c838362000741565b9150826002028217905092915050565b62000787826200054e565b67ffffffffffffffff811115620007a357620007a2620001f0565b5b620007af825462000585565b620007bc828285620006e5565b5f60209050601f831160018114620007f2575f8415620007dd578287015190505b620007e985826200075f565b86555062000858565b601f1984166200080286620005b9565b5f5b828110156200082b5784890151825560018201915060208501945060208101905062000804565b868310156200084b578489015162000847601f89168262000741565b8355505b6001600288020188555050505b505050505050565b7f4e487b71000000000000000000000000000000000000000000000000000000005f52601160045260245ffd5b5f62000899826200015f565b91507fffffffffffffffffffffffffffffffffffffffffffffffffffffffffffffffff8203620008ce57620008cd62000860565b5b600182019050919050565b611a1580620008e75f395ff3fe608060405234801561000f575f80fd5b50600436106100e8575f3560e01c80639126fde21161008a578063bf9734d711610064578063bf9734d7146101f8578063cfe7ec3514610216578063de6b25b114610232578063f5660f0514610250576100e8565b80639126fde2146101a0578063a9f346e3146101be578063b96acdee146101dc576100e8565b80632e5663ec116100c65780632e5663ec146101305780635e7915af1461014c5780635fd6b26b146101685780638a5cc40314610184576100e8565b8063018c7834146100ec57806309670bdc146100f65780630da5e01f14610112575b5f80fd5b6100f461026e565b005b610110600480360381019061010b9190610d30565b610535565b005b61011a6105b7565b6040516101279190610d8f565b60405180910390f35b61014a60048036038101906101459190610dd2565b6105c2565b005b61016660048036038101906101619190610dd2565b6105ce565b005b610182600480360381019061017d9190610e7a565b6105db565b005b61019e60048036038101906101999190610dd2565b6106a1565b005b6101a86106ac565b6040516101b59190610d8f565b60405180910390f35b6101c66106b8565b6040516101d39190610d8f565b60405180910390f35b6101f660048036038101906101f19190610dd2565b6106c2565b005b6102006106ce565b60405161020d919061105a565b60405180910390f35b610230600480360381019061022b9190610d30565b610841565b005b61023a6108c2565b604051610247919061105a565b60405180910390f35b610258610a34565b6040516102659190610d8f565b60405180910390f35b5f73__CardLib_______________________________63e6624c326040518163ffffffff1660e01b81526004015f60405180830381865af41580156102b5573d5f803e3d5ffd5b505050506040513d5f823e3d601f19601f820116820180604052508101906102dd9190611239565b90505f5b603481101561035a578181603481106102fd576102fc611280565b5b6020020151600c826034811061031657610315611280565b5b600202015f820151815f01908161032d91906114a7565b50602082015181600101908161034391906114a7565b509050508080610352906115a3565b9150506102e1565b505f5b60028110156103f157604051806040016040528060405180602001604052805f815250815260200160405180602001604052805f8152508152505f60010182600281106103ad576103ac611280565b5b600202015f820151815f0190816103c491906114a7565b5060208201518160010190816103da91906114a7565b5090505080806103e9906115a3565b91505061035d565b505f5b600281101561048957604051806040016040528060405180602001604052805f815250815260200160405180602001604052805f8152508152506006600101826002811061044557610444611280565b5b600202015f820151815f01908161045c91906114a7565b50602082015181600101908161047291906114a7565b509050508080610481906115a3565b9150506103f4565b505f5b600581101561051e57604051806040016040528060405180602001604052805f815250815260200160405180602001604052805f815250815250607482600581106104da576104d9611280565b5b600202015f820151815f0190816104f191906114a7565b50602082015181600101908161050791906114a7565b509050508080610516906115a3565b91505061048c565b505f80600501819055505f60066005018190555050565b5f5b60028110156105b35781816002811061055357610552611280565b5b60200201516006600101826002811061056f5761056e611280565b5b600202015f820151815f01908161058691906114a7565b50602082015181600101908161059c91906114a7565b5090505080806105ab906115a3565b915050610537565b5050565b5f8060050154905090565b805f6005018190555050565b8060066005018190555050565b73__PlayLib_______________________________639a64cfaf838360746040518463ffffffff1660e01b8152600401610617939291906118cf565b602060405180830381865af4158015610632573d5f803e3d5ffd5b505050506040513d601f19601f82011682018060405250810190610656919061194e565b1561067d575f600501545f80015f8282546106719190611979565b9250508190555061069d565b60066005015460065f015f82825461069591906119ac565b925050819055505b5050565b805f80018190555050565b5f600660050154905090565b5f805f0154905090565b8060065f018190555050565b6106d6610a3f565b6006600101600280602002604051908101604052809291905f905b82821015610838578382600202016040518060400160405290815f82018054610719906112da565b80601f0160208091040260200160405190810160405280929190818152602001828054610745906112da565b80156107905780601f1061076757610100808354040283529160200191610790565b820191905f5260205f20905b81548152906001019060200180831161077357829003601f168201915b505050505081526020016001820180546107a9906112da565b80601f01602080910402602001604051908101604052809291908181526020018280546107d5906112da565b80156108205780601f106107f757610100808354040283529160200191610820565b820191905f5260205f20905b81548152906001019060200180831161080357829003601f168201915b505050505081525050815260200190600101906106f1565b50505050905090565b5f5b60028110156108be5781816002811061085f5761085e611280565b5b60200201515f600101826002811061087a57610879611280565b5b600202015f820151815f01908161089191906114a7565b5060208201518160010190816108a791906114a7565b5090505080806108b6906115a3565b915050610843565b5050565b6108ca610a3f565b5f600101600280602002604051908101604052809291905f905b82821015610a2b578382600202016040518060400160405290815f8201805461090c906112da565b80601f0160208091040260200160405190810160405280929190818152602001828054610938906112da565b80156109835780601f1061095a57610100808354040283529160200191610983565b820191905f5260205f20905b81548152906001019060200180831161096657829003601f168201915b5050505050815260200160018201805461099c906112da565b80601f01602080910402602001604051908101604052809291908181526020018280546109c8906112da565b8015610a135780601f106109ea57610100808354040283529160200191610a13565b820191905f5260205f20905b8154815290600101906020018083116109f657829003601f168201915b505050505081525050815260200190600101906108e4565b50505050905090565b5f60065f0154905090565b60405180604001604052806002905b610a56610a6c565b815260200190600190039081610a4e5790505090565b604051806040016040528060608152602001606081525090565b5f604051905090565b5f80fd5b5f80fd5b5f80fd5b5f601f19601f8301169050919050565b7f4e487b71000000000000000000000000000000000000000000000000000000005f52604160045260245ffd5b610ae182610a9b565b810181811067ffffffffffffffff82111715610b0057610aff610aab565b5b80604052505050565b5f610b12610a86565b9050610b1e8282610ad8565b919050565b5f67ffffffffffffffff821115610b3d57610b3c610aab565b5b602082029050919050565b5f80fd5b5f80fd5b5f80fd5b5f80fd5b5f67ffffffffffffffff821115610b7257610b71610aab565b5b610b7b82610a9b565b9050602081019050919050565b828183375f83830152505050565b5f610ba8610ba384610b58565b610b09565b905082815260208101848484011115610bc457610bc3610b54565b5b610bcf848285610b88565b509392505050565b5f82601f830112610beb57610bea610a97565b5b8135610bfb848260208601610b96565b91505092915050565b5f60408284031215610c1957610c18610b4c565b5b610c236040610b09565b90505f82013567ffffffffffffffff811115610c4257610c41610b50565b5b610c4e84828501610bd7565b5f83015250602082013567ffffffffffffffff811115610c7157610c70610b50565b5b610c7d84828501610bd7565b60208301525092915050565b5f610c9b610c9684610b23565b610b09565b90508060208402830185811115610cb557610cb4610b48565b5b835b81811015610cfc57803567ffffffffffffffff811115610cda57610cd9610a97565b5b808601610ce78982610c04565b85526020850194505050602081019050610cb7565b5050509392505050565b5f82601f830112610d1a57610d19610a97565b5b6002610d27848285610c89565b91505092915050565b5f60208284031215610d4557610d44610a8f565b5b5f82013567ffffffffffffffff811115610d6257610d61610a93565b5b610d6e84828501610d06565b91505092915050565b5f819050919050565b610d8981610d77565b82525050565b5f602082019050610da25f830184610d80565b92915050565b610db181610d77565b8114610dbb575f80fd5b50565b5f81359050610dcc81610da8565b92915050565b5f60208284031215610de757610de6610a8f565b5b5f610df484828501610dbe565b91505092915050565b5f60608284031215610e1257610e11610b4c565b5b610e1c6060610b09565b90505f610e2b84828501610dbe565b5f83015250602082013567ffffffffffffffff811115610e4e57610e4d610b50565b5b610e5a84828501610d06565b6020830152506040610e6e84828501610dbe565b60408301525092915050565b5f8060408385031215610e9057610e8f610a8f565b5b5f83013567ffffffffffffffff811115610ead57610eac610a93565b5b610eb985828601610dfd565b925050602083013567ffffffffffffffff811115610eda57610ed9610a93565b5b610ee685828601610dfd565b9150509250929050565b5f60029050919050565b5f81905092915050565b5f819050919050565b5f81519050919050565b5f82825260208201905092915050565b5f5b83811015610f44578082015181840152602081019050610f29565b5f8484015250505050565b5f610f5982610f0d565b610f638185610f17565b9350610f73818560208601610f27565b610f7c81610a9b565b840191505092915050565b5f604083015f8301518482035f860152610fa18282610f4f565b91505060208301518482036020860152610fbb8282610f4f565b9150508091505092915050565b5f610fd38383610f87565b905092915050565b5f602082019050919050565b5f610ff182610ef0565b610ffb8185610efa565b93508360208202850161100d85610f04565b805f5b8581101561104857848403895281516110298582610fc8565b945061103483610fdb565b925060208a01995050600181019050611010565b50829750879550505050505092915050565b5f6020820190508181035f8301526110728184610fe7565b905092915050565b5f67ffffffffffffffff82111561109457611093610aab565b5b602082029050919050565b5f6110b16110ac84610b58565b610b09565b9050828152602081018484840111156110cd576110cc610b54565b5b6110d8848285610f27565b509392505050565b5f82601f8301126110f4576110f3610a97565b5b815161110484826020860161109f565b91505092915050565b5f6040828403121561112257611121610b4c565b5b61112c6040610b09565b90505f82015167ffffffffffffffff81111561114b5761114a610b50565b5b611157848285016110e0565b5f83015250602082015167ffffffffffffffff81111561117a57611179610b50565b5b611186848285016110e0565b60208301525092915050565b5f6111a461119f8461107a565b610b09565b905080602084028301858111156111be576111bd610b48565b5b835b8181101561120557805167ffffffffffffffff8111156111e3576111e2610a97565b5b8086016111f0898261110d565b855260208501945050506020810190506111c0565b5050509392505050565b5f82601f83011261122357611222610a97565b5b6034611230848285611192565b91505092915050565b5f6020828403121561124e5761124d610a8f565b5b5f82015167ffffffffffffffff81111561126b5761126a610a93565b5b6112778482850161120f565b91505092915050565b7f4e487b71000000000000000000000000000000000000000000000000000000005f52603260045260245ffd5b7f4e487b71000000000000000000000000000000000000000000000000000000005f52602260045260245ffd5b5f60028204905060018216806112f157607f821691505b602082108103611304576113036112ad565b5b50919050565b5f819050815f5260205f209050919050565b5f6020601f8301049050919050565b5f82821b905092915050565b5f600883026113667fffffffffffffffffffffffffffffffffffffffffffffffffffffffffffffffff8261132b565b611370868361132b565b95508019841693508086168417925050509392505050565b5f819050919050565b5f6113ab6113a66113a184610d77565b611388565b610d77565b9050919050565b5f819050919050565b6113c483611391565b6113d86113d0826113b2565b848454611337565b825550505050565b5f90565b6113ec6113e0565b6113f78184846113bb565b505050565b5b8181101561141a5761140f5f826113e4565b6001810190506113fd565b5050565b601f82111561145f576114308161130a565b6114398461131c565b81016020851015611448578190505b61145c6114548561131c565b8301826113fc565b50505b505050565b5f82821c905092915050565b5f61147f5f1984600802611464565b1980831691505092915050565b5f6114978383611470565b9150826002028217905092915050565b6114b082610f0d565b67ffffffffffffffff8111156114c9576114c8610aab565b5b6114d382546112da565b6114de82828561141e565b5f60209050601f83116001811461150f575f84156114fd578287015190505b611507858261148c565b86555061156e565b601f19841661151d8661130a565b5f5b828110156115445784890151825560018201915060208501945060208101905061151f565b86831015611561578489015161155d601f891682611470565b8355505b6001600288020188555050505b505050505050565b7f4e487b71000000000000000000000000000000000000000000000000000000005f52601160045260245ffd5b5f6115ad82610d77565b91507fffffffffffffffffffffffffffffffffffffffffffffffffffffffffffffffff82036115df576115de611576565b5b600182019050919050565b6115f381610d77565b82525050565b5f81905092915050565b5f82825260208201905092915050565b5f61161d82610f0d565b6116278185611603565b9350611637818560208601610f27565b61164081610a9b565b840191505092915050565b5f604083015f8301518482035f8601526116658282611613565b9150506020830151848203602086015261167f8282611613565b9150508091505092915050565b5f611697838361164b565b905092915050565b5f6116a982610ef0565b6116b381856115f9565b9350836020820285016116c585610f04565b805f5b8581101561170057848403895281516116e1858261168c565b94506116ec83610fdb565b925060208a019950506001810190506116c8565b50829750879550505050505092915050565b5f606083015f8301516117275f8601826115ea565b506020830151848203602086015261173f828261169f565b915050604083015161175460408601826115ea565b508091505092915050565b5f60059050919050565b5f81905092915050565b5f819050919050565b5f8154611788816112da565b6117928186611603565b9450600182165f81146117ac57600181146117c2576117f4565b60ff1983168652811515602002860193506117f4565b6117cb8561130a565b5f5b838110156117ec578154818901526001820191506020810190506117cd565b808801955050505b50505092915050565b5f604083015f8084018583035f870152611817838261177c565b925050600184018583036020870152611830838261177c565b925050819250505092915050565b5f61184983836117fd565b905092915050565b5f600282019050919050565b5f6118678261175f565b6118718185611769565b93508360208202850161188385611773565b805f5b858110156118bd5784840389528161189e858261183e565b94506118a983611851565b925060208a01995050600181019050611886565b50829750879550505050505092915050565b5f6060820190508181035f8301526118e78186611712565b905081810360208301526118fb8185611712565b9050818103604083015261190f818461185d565b9050949350505050565b5f8115159050919050565b61192d81611919565b8114611937575f80fd5b50565b5f8151905061194881611924565b92915050565b5f6020828403121561196357611962610a8f565b5b5f6119708482850161193a565b91505092915050565b5f61198382610d77565b915061198e83610d77565b92508282019050808211156119a6576119a5611576565b5b92915050565b5f6119b682610d77565b91506119c183610d77565b92508282039050818111156119d9576119d8611576565b5b9291505056fea2646970667358221220f9187b7a24f8e5ac25bccfe07ba355add3252c400659eaa3c564aed9a3aa250164736f6c63430008150033",
  "deployedBytecode": "0x608060405234801561000f575f80fd5b50600436106100e8575f3560e01c80639126fde21161008a578063bf9734d711610064578063bf9734d7146101f8578063cfe7ec3514610216578063de6b25b114610232578063f5660f0514610250576100e8565b80639126fde2146101a0578063a9f346e3146101be578063b96acdee146101dc576100e8565b80632e5663ec116100c65780632e5663ec146101305780635e7915af1461014c5780635fd6b26b146101685780638a5cc40314610184576100e8565b8063018c7834146100ec57806309670bdc146100f65780630da5e01f14610112575b5f80fd5b6100f461026e565b005b610110600480360381019061010b9190610d30565b610535565b005b61011a6105b7565b6040516101279190610d8f565b60405180910390f35b61014a60048036038101906101459190610dd2565b6105c2565b005b61016660048036038101906101619190610dd2565b6105ce565b005b610182600480360381019061017d9190610e7a565b6105db565b005b61019e60048036038101906101999190610dd2565b6106a1565b005b6101a86106ac565b6040516101b59190610d8f565b60405180910390f35b6101c66106b8565b6040516101d39190610d8f565b60405180910390f35b6101f660048036038101906101f19190610dd2565b6106c2565b005b6102006106ce565b60405161020d919061105a565b60405180910390f35b610230600480360381019061022b9190610d30565b610841565b005b61023a6108c2565b604051610247919061105a565b60405180910390f35b610258610a34565b6040516102659190610d8f565b60405180910390f35b5f73__CardLib_______________________________63e6624c326040518163ffffffff1660e01b81526004015f60405180830381865af41580156102b5573d5f803e3d5ffd5b505050506040513d5f823e3d601f19601f820116820180604052508101906102dd9190611239565b90505f5b603481101561035a578181603481106102fd576102fc611280565b5b6020020151600c826034811061031657610315611280565b5b600202015f820151815f01908161032d91906114a7565b50602082015181600101908161034391906114a7565b509050508080610352906115a3565b9150506102e1565b505f5b60028110156103f157604051806040016040528060405180602001604052805f815250815260200160405180602001604052805f8152508152505f60010182600281106103ad576103ac611280565b5b600202015f820151815f0190816103c491906114a7565b5060208201518160010190816103da91906114a7565b5090505080806103e9906115a3565b91505061035d565b505f5b600281101561048957604051806040016040528060405180602001604052805f815250815260200160405180602001604052805f8152508152506006600101826002811061044557610444611280565b5b600202015f820151815f01908161045c91906114a7565b50602082015181600101908161047291906114a7565b509050508080610481906115a3565b9150506103f4565b505f5b600581101561051e57604051806040016040528060405180602001604052805f815250815260200160405180602001604052805f815250815250607482600581106104da576104d9611280565b5b600202015f820151815f0190816104f191906114a7565b50602082015181600101908161050791906114a7565b509050508080610516906115a3565b91505061048c565b505f80600501819055505f60066005018190555050565b5f5b60028110156105b35781816002811061055357610552611280565b5b60200201516006600101826002811061056f5761056e611280565b5b600202015f820151815f01908161058691906114a7565b50602082015181600101908161059c91906114a7565b5090505080806105ab906115a3565b915050610537565b5050565b5f8060050154905090565b805f6005018190555050565b8060066005018190555050565b73__PlayLib_______________________________639a64cfaf838360746040518463ffffffff1660e01b8152600401610617939291906118cf565b602060405180830381865af4158015610632573d5f803e3d5ffd5b505050506040513d601f19601f82011682018060405250810190610656919061194e565b1561067d575f600501545f80015f8282546106719190611979565b9250508190555061069d565b60066005015460065f015f82825461069591906119ac565b925050819055505b5050565b805f80018190555050565b5f600660050154905090565b5f805f0154905090565b8060065f018190555050565b6106d6610a3f565b6006600101600280602002604051908101604052809291905f905b82821015610838578382600202016040518060400160405290815f82018054610719906112da565b80601f0160208091040260200160405190810160405280929190818152602001828054610745906112da565b80156107905780601f1061076757610100808354040283529160200191610790565b820191905f5260205f20905b81548152906001019060200180831161077357829003601f168201915b505050505081526020016001820180546107a9906112da565b80601f01602080910402602001604051908101604052809291908181526020018280546107d5906112da565b80156108205780601f106107f757610100808354040283529160200191610820565b820191905f5260205f20905b81548152906001019060200180831161080357829003601f168201915b505050505081525050815260200190600101906106f1565b50505050905090565b5f5b60028110156108be5781816002811061085f5761085e611280565b5b60200201515f600101826002811061087a57610879611280565b5b600202015f820151815f01908161089191906114a7565b5060208201518160010190816108a791906114a7565b5090505080806108b6906115a3565b915050610843565b5050565b6108ca610a3f565b5f600101600280602002604051908101604052809291905f905b82821015610a2b578382600202016040518060400160405290815f8201805461090c906112da565b80601f0160208091040260200160405190810160405280929190818152602001828054610938906112da565b80156109835780601f1061095a57610100808354040283529160200191610983565b820191905f5260205f20905b81548152906001019060200180831161096657829003601f168201915b5050505050815260200160018201805461099c906112da565b80601f01602080910402602001604051908101604052809291908181526020018280546109c8906112da565b8015610a135780601f106109ea57610100808354040283529160200191610a13565b820191905f5260205f20905b8154815290600101906020018083116109f657829003601f168201915b505050505081525050815260200190600101906108e4565b50505050905090565b5f60065f0154905090565b60405180604001604052806002905b610a56610a6c565b815260200190600190039081610a4e5790505090565b604051806040016040528060608152602001606081525090565b5f604051905090565b5f80fd5b5f80fd5b5f80fd5b5f601f19601f8301169050919050565b7f4e487b71000000000000000000000000000000000000000000000000000000005f52604160045260245ffd5b610ae182610a9b565b810181811067ffffffffffffffff82111715610b0057610aff610aab565b5b80604052505050565b5f610b12610a86565b9050610b1e8282610ad8565b919050565b5f67ffffffffffffffff821115610b3d57610b3c610aab565b5b602082029050919050565b5f80fd5b5f80fd5b5f80fd5b5f80fd5b5f67ffffffffffffffff821115610b7257610b71610aab565b5b610b7b82610a9b565b9050602081019050919050565b828183375f83830152505050565b5f610ba8610ba384610b58565b610b09565b905082815260208101848484011115610bc457610bc3610b54565b5b610bcf848285610b88565b509392505050565b5f82601f830112610beb57610bea610a97565b5b8135610bfb848260208601610b96565b91505092915050565b5f60408284031215610c1957610c18610b4c565b5b610c236040610b09565b90505f82013567ffffffffffffffff811115610c4257610c41610b50565b5b610c4e84828501610bd7565b5f83015250602082013567ffffffffffffffff811115610c7157610c70610b50565b5b610c7d84828501610bd7565b60208301525092915050565b5f610c9b610c9684610b23565b610b09565b90508060208402830185811115610cb557610cb4610b48565b5b835b81811015610cfc57803567ffffffffffffffff811115610cda57610cd9610a97565b5b808601610ce78982610c04565b85526020850194505050602081019050610cb7565b5050509392505050565b5f82601f830112610d1a57610d19610a97565b5b6002610d27848285610c89565b91505092915050565b5f60208284031215610d4557610d44610a8f565b5b5f82013567ffffffffffffffff811115610d6257610d61610a93565b5b610d6e84828501610d06565b91505092915050565b5f819050919050565b610d8981610d77565b82525050565b5f602082019050610da25f830184610d80565b92915050565b610db181610d77565b8114610dbb575f80fd5b50565b5f81359050610dcc81610da8565b92915050565b5f60208284031215610de757610de6610a8f565b5b5f610df484828501610dbe565b91505092915050565b5f60608284031215610e1257610e11610b4c565b5b610e1c6060610b09565b90505f610e2b84828501610dbe565b5f83015250602082013567ffffffffffffffff811115610e4e57610e4d610b50565b5b610e5a84828501610d06565b6020830152506040610e6e84828501610dbe565b60408301525092915050565b5f8060408385031215610e9057610e8f610a8f565b5b5f83013567ffffffffffffffff811115610ead57610eac610a93565b5b610eb985828601610dfd565b925050602083013567ffffffffffffffff811115610eda57610ed9610a93565b5b610ee685828601610dfd565b9150509250929050565b5f60029050919050565b5f81905092915050565b5f819050919050565b5f81519050919050565b5f82825260208201905092915050565b5f5b83811015610f44578082015181840152602081019050610f29565b5f8484015250505050565b5f610f5982610f0d565b610f638185610f17565b9350610f73818560208601610f27565b610f7c81610a9b565b840191505092915050565b5f604083015f8301518482035f860152610fa18282610f4f565b91505060208301518482036020860152610fbb8282610f4f565b9150508091505092915050565b5f610fd38383610f87565b905092915050565b5f602082019050919050565b5f610ff182610ef0565b610ffb8185610efa565b93508360208202850161100d85610f04565b805f5b8581101561104857848403895281516110298582610fc8565b945061103483610fdb565b925060208a01995050600181019050611010565b50829750879550505050505092915050565b5f6020820190508181035f8301526110728184610fe7565b905092915050565b5f67ffffffffffffffff82111561109457611093610aab565b5b602082029050919050565b5f6110b16110ac84610b58565b610b09565b9050828152602081018484840111156110cd576110cc610b54565b5b6110d8848285610f27565b509392505050565b5f82601f8301126110f4576110f3610a97565b5b815161110484826020860161109f565b91505092915050565b5f6040828403121561112257611121610b4c565b5b61112c6040610b09565b90505f82015167ffffffffffffffff81111561114b5761114a610b50565b5b611157848285016110e0565b5f83015250602082015167ffffffffffffffff81111561117a57611179610b50565b5b611186848285016110e0565b60208301525092915050565b5f6111a461119f8461107a565b610b09565b905080602084028301858111156111be576111bd610b48565b5b835b8181101561120557805167ffffffffffffffff8111156111e3576111e2610a97565b5b8086016111f0898261110d565b855260208501945050506020810190506111c0565b5050509392505050565b5f82601f83011261122357611222610a97565b5b6034611230848285611192565b91505092915050565b5f6020828403121561124e5761124d610a8f565b5b5f82015167ffffffffffffffff81111561126b5761126a610a93565b5b6112778482850161120f565b91505092915050565b7f4e487b71000000000000000000000000000000000000000000000000000000005f52603260045260245ffd5b7f4e487b71000000000000000000000000000000000000000000000000000000005f52602260045260245ffd5b5f60028204905060018216806112f157607f821691505b602082108103611304576113036112ad565b5b50919050565b5f819050815f5260205f209050919050565b5f6020601f8301049050919050565b5f82821b905092915050565b5f600883026113667fffffffffffffffffffffffffffffffffffffffffffffffffffffffffffffffff8261132b565b611370868361132b565b95508019841693508086168417925050509392505050565b5f819050919050565b5f6113ab6113a66113a184610d77565b611388565b610d77565b9050919050565b5f819050919050565b6113c483611391565b6113d86113d0826113b2565b848454611337565b825550505050565b5f90565b6113ec6113e0565b6113f78184846113bb565b505050565b5b8181101561141a5761140f5f826113e4565b6001810190506113fd565b5050565b601f82111561145f576114308161130a565b6114398461131c565b81016020851015611448578190505b61145c6114548561131c565b8301826113fc565b50505b505050565b5f82821c905092915050565b5f61147f5f1984600802611464565b1980831691505092915050565b5f6114978383611470565b9150826002028217905092915050565b6114b082610f0d565b67ffffffffffffffff8111156114c9576114c8610aab565b5b6114d382546112da565b6114de82828561141e565b5f60209050601f83116001811461150f575f84156114fd578287015190505b611507858261148c565b86555061156e565b601f19841661151d8661130a565b5f5b828110156115445784890151825560018201915060208501945060208101905061151f565b86831015611561578489015161155d601f891682611470565b8355505b6001600288020188555050505b505050505050565b7f4e487b71000000000000000000000000000000000000000000000000000000005f52601160045260245ffd5b5f6115ad82610d77565b91507fffffffffffffffffffffffffffffffffffffffffffffffffffffffffffffffff82036115df576115de611576565b5b600182019050919050565b6115f381610d77565b82525050565b5f81905092915050565b5f82825260208201905092915050565b5f61161d82610f0d565b6116278185611603565b9350611637818560208601610f27565b61164081610a9b565b840191505092915050565b5f604083015f8301518482035f8601526116658282611613565b9150506020830151848203602086015261167f8282611613565b9150508091505092915050565b5f611697838361164b565b905092915050565b5f6116a982610ef0565b6116b381856115f9565b9350836020820285016116c585610f04565b805f5b8581101561170057848403895281516116e1858261168c565b94506116ec83610fdb565b925060208a019950506001810190506116c8565b50829750879550505050505092915050565b5f606083015f8301516117275f8601826115ea565b506020830151848203602086015261173f828261169f565b915050604083015161175460408601826115ea565b508091505092915050565b5f60059050919050565b5f81905092915050565b5f819050919050565b5f8154611788816112da565b6117928186611603565b9450600182165f81146117ac57600181146117c2576117f4565b60ff1983168652811515602002860193506117f4565b6117cb8561130a565b5f5b838110156117ec578154818901526001820191506020810190506117cd565b808801955050505b50505092915050565b5f604083015f8084018583035f870152611817838261177c565b925050600184018583036020870152611830838261177c565b925050819250505092915050565b5f61184983836117fd565b905092915050565b5f600282019050919050565b5f6118678261175f565b6118718185611769565b93508360208202850161188385611773565b805f5b858110156118bd5784840389528161189e858261183e565b94506118a983611851565b925060208a01995050600181019050611886565b50829750879550505050505092915050565b5f6060820190508181035f8301526118e78186611712565b905081810360208301526118fb8185611712565b9050818103604083015261190f818461185d565b9050949350505050565b5f8115159050919050565b61192d81611919565b8114611937575f80fd5b50565b5f8151905061194881611924565b92915050565b5f6020828403121561196357611962610a8f565b5b5f6119708482850161193a565b91505092915050565b5f61198382610d77565b915061198e83610d77565b92508282019050808211156119a6576119a5611576565b5b92915050565b5f6119b682610d77565b91506119c183610d77565b92508282039050818111156119d9576119d8611576565b5b9291505056fea2646970667358221220f9187b7a24f8e5ac25bccfe07ba355add3252c400659eaa3c564aed9a3aa250164736f6c63430008150033",
  "immutableReferences": {},
  "source": "// SPDX-License-Identifier: MIT\r\n// @ Author: Bertan Berker\r\n// @ Filename: Poker.sol\r\n\r\n\r\npragma solidity ^0.8.2;\r\n\r\nimport './PlayLib.sol';\r\nimport './CardLib.sol';\r\n\r\ncontract Poker {\r\n\r\n    struct Player {\r\n        uint256 balance;\r\n        CardLib.Card[2] hand;\r\n        uint256 currentBet;\r\n    }\r\n\r\n    Player player1;\r\n    Player player2;\r\n\tCardLib.Card[52] deck;\r\n    CardLib.Card[5] table;\r\n\r\n    // This is the constructor for the contract\r\n    constructor(uint256 _balance1, uint256 _balance2) {\r\n        CardLib.Card[52] memory tempDeck = CardLib.createDeck();\r\n        for (uint i = 0; i < tempDeck.length; i++) {\r\n            deck[i] = tempDeck[i];\r\n        }\r\n        player1.balance = _balance1;\r\n        player2.balance = _balance2;\r\n    }\r\n\r\n\r\n    // These are the setters for the contract\r\n    function setPlayer1Balance(uint256 _balance) public {\r\n        player1.balance = _balance;\r\n    }\r\n\r\n    function setPlayer2Balance(uint256 _balance) public {\r\n        player2.balance = _balance;\r\n    }\r\n\r\n    function setPlayer1CurrentBet(uint256 _bet) public {\r\n        player1.currentBet = _bet;\r\n    }\r\n\r\n    function setPlayer2CurrentBet(uint256 _bet) public {\r\n        player2.currentBet = _bet;\r\n    }\r\n\r\n    function setPlayer1Hand(CardLib.Card[2] memory _hand) public {\r\n        for (uint i = 0; i < 2; i++) {\r\n            player1.hand[i] = _hand[i];\r\n        }\r\n    } \r\n\r\n    function setPlayer2Hand(CardLib.Card[2] memory _hand) public {\r\n        for (uint i = 0; i < 2; i++) {\r\n            player2.hand[i] = _hand[i];\r\n        }\r\n    } \r\n\r\n\r\n    // These are the getters for the contract\r\n    function getPlayer1Balance() public view returns (uint256){\r\n        return player1.balance;\r\n    }\r\n\r\n    function getPlayer2Balance() public view returns (uint256) {\r\n        return player2.balance;\r\n    }\r\n\r\n    function getPlayer1CurrentBet() public view returns (uint256) {\r\n        return player1.currentBet;\r\n    }\r\n\r\n    function getPlayer2CurrentBet() public view returns (uint256) {\r\n        return player2.currentBet;\r\n    }\r\n\r\n    function getPlayer1Hand() public view returns (CardLib.Card[2] memory) {\r\n        return player1.hand;\r\n    }\r\n    \r\n    function getPlayer2Hand() public view returns (CardLib.Card[2] memory) {\r\n        return player2.hand;\r\n    }   \r\n\r\n    // Miscellaneous Functions\r\n    function getNewDeck() public {\r\n        CardLib.Card[52] memory tempDeck = CardLib.createDeck();\r\n        for (uint i = 0; i < tempDeck.length; i++) {\r\n            deck[i] = tempDeck[i];\r\n        }\r\n        \r\n        // Initialize hands and table\r\n        for (uint i = 0; i < player1.hand.length; i++) {\r\n            player1.hand[i] = CardLib.Card(\"\", \"\");\r\n        }\r\n        \r\n        for (uint i = 0; i < player2.hand.length; i++) {\r\n            player2.hand[i] = CardLib.Card(\"\", \"\");\r\n        }\r\n        \r\n        for (uint i = 0; i < table.length; i++) {\r\n            table[i] = CardLib.Card(\"\", \"\");\r\n        }\r\n\r\n        player1.currentBet = 0;\r\n        player2.currentBet = 0;\r\n\r\n    }\r\n\r\n    function endOfHand(Player memory _player1, Player memory _player2) public {\r\n        // End of River\r\n        if (PlayLib.chooseWinner(_player1, _player2, table)) {\r\n            // Player1 wins\r\n            player1.balance += player1.currentBet;\r\n        }\r\n\r\n        else{\r\n            // Player2 wins\r\n            player2.balance -= player2.currentBet;\r\n        }\r\n    }\r\n\r\n}",
  "sourcePath": "C:\\Users\\berta\\Desktop\\Poker-Bot\\PokerSmartContract\\contracts\\Poker.sol",
  "compiler": {
    "name": "solc",
    "version": "0.8.21+commit.d9974bed.Emscripten.clang"
  },
  "schemaVersion": "3.4.16",
  "updatedAt": "2024-06-22T15:39:51.367Z",
  "devdoc": {
    "kind": "dev",
    "methods": {},
    "version": 1
  },
  "userdoc": {
    "kind": "user",
    "methods": {},
    "version": 1
  }
}