{
  "contractName": "Poker",
  "abi": [
    {
      "inputs": [
        {
          "internalType": "uint256",
          "name": "_balance1",
          "type": "uint256"
        },
        {
          "internalType": "uint256",
          "name": "_balance2",
          "type": "uint256"
        }
      ],
      "stateMutability": "nonpayable",
      "type": "constructor"
    },
    {
      "inputs": [
        {
          "internalType": "uint256",
          "name": "_balance",
          "type": "uint256"
        }
      ],
      "name": "setPlayer1Balance",
      "outputs": [],
      "stateMutability": "nonpayable",
      "type": "function"
    },
    {
      "inputs": [
        {
          "internalType": "uint256",
          "name": "_balance",
          "type": "uint256"
        }
      ],
      "name": "setPlayer2Balance",
      "outputs": [],
      "stateMutability": "nonpayable",
      "type": "function"
    },
    {
      "inputs": [
        {
          "internalType": "uint256",
          "name": "_bet",
          "type": "uint256"
        }
      ],
      "name": "setPlayer1CurrentBet",
      "outputs": [],
      "stateMutability": "nonpayable",
      "type": "function"
    },
    {
      "inputs": [
        {
          "internalType": "uint256",
          "name": "_bet",
          "type": "uint256"
        }
      ],
      "name": "setPlayer2CurrentBet",
      "outputs": [],
      "stateMutability": "nonpayable",
      "type": "function"
    },
    {
      "inputs": [
        {
          "components": [
            {
              "internalType": "string",
              "name": "rank",
              "type": "string"
            },
            {
              "internalType": "string",
              "name": "suit",
              "type": "string"
            }
          ],
          "internalType": "struct CardLib.Card[2]",
          "name": "_hand",
          "type": "tuple[2]"
        }
      ],
      "name": "setPlayer1Hand",
      "outputs": [],
      "stateMutability": "nonpayable",
      "type": "function"
    },
    {
      "inputs": [
        {
          "components": [
            {
              "internalType": "string",
              "name": "rank",
              "type": "string"
            },
            {
              "internalType": "string",
              "name": "suit",
              "type": "string"
            }
          ],
          "internalType": "struct CardLib.Card[2]",
          "name": "_hand",
          "type": "tuple[2]"
        }
      ],
      "name": "setPlayer2Hand",
      "outputs": [],
      "stateMutability": "nonpayable",
      "type": "function"
    },
    {
      "inputs": [],
      "name": "getBigBlind",
      "outputs": [
        {
          "internalType": "uint8",
          "name": "",
          "type": "uint8"
        }
      ],
      "stateMutability": "view",
      "type": "function",
      "constant": true
    },
    {
      "inputs": [],
      "name": "getSmallBlind",
      "outputs": [
        {
          "internalType": "uint8",
          "name": "",
          "type": "uint8"
        }
      ],
      "stateMutability": "view",
      "type": "function",
      "constant": true
    },
    {
      "inputs": [],
      "name": "getPlayer1Balance",
      "outputs": [
        {
          "internalType": "uint256",
          "name": "",
          "type": "uint256"
        }
      ],
      "stateMutability": "view",
      "type": "function",
      "constant": true
    },
    {
      "inputs": [],
      "name": "getPlayer2Balance",
      "outputs": [
        {
          "internalType": "uint256",
          "name": "",
          "type": "uint256"
        }
      ],
      "stateMutability": "view",
      "type": "function",
      "constant": true
    },
    {
      "inputs": [],
      "name": "getPlayer1CurrentBet",
      "outputs": [
        {
          "internalType": "uint256",
          "name": "",
          "type": "uint256"
        }
      ],
      "stateMutability": "view",
      "type": "function",
      "constant": true
    },
    {
      "inputs": [],
      "name": "getPlayer2CurrentBet",
      "outputs": [
        {
          "internalType": "uint256",
          "name": "",
          "type": "uint256"
        }
      ],
      "stateMutability": "view",
      "type": "function",
      "constant": true
    },
    {
      "inputs": [],
      "name": "getPlayer1Hand",
      "outputs": [
        {
          "components": [
            {
              "internalType": "string",
              "name": "rank",
              "type": "string"
            },
            {
              "internalType": "string",
              "name": "suit",
              "type": "string"
            }
          ],
          "internalType": "struct CardLib.Card[2]",
          "name": "",
          "type": "tuple[2]"
        }
      ],
      "stateMutability": "view",
      "type": "function",
      "constant": true
    },
    {
      "inputs": [],
      "name": "getPlayer2Hand",
      "outputs": [
        {
          "components": [
            {
              "internalType": "string",
              "name": "rank",
              "type": "string"
            },
            {
              "internalType": "string",
              "name": "suit",
              "type": "string"
            }
          ],
          "internalType": "struct CardLib.Card[2]",
          "name": "",
          "type": "tuple[2]"
        }
      ],
      "stateMutability": "view",
      "type": "function",
      "constant": true
    },
    {
      "inputs": [],
      "name": "getNewDeck",
      "outputs": [],
      "stateMutability": "nonpayable",
      "type": "function"
    },
    {
      "inputs": [
        {
          "components": [
            {
              "internalType": "uint256",
              "name": "balance",
              "type": "uint256"
            },
            {
              "components": [
                {
                  "internalType": "string",
                  "name": "rank",
                  "type": "string"
                },
                {
                  "internalType": "string",
                  "name": "suit",
                  "type": "string"
                }
              ],
              "internalType": "struct CardLib.Card[2]",
              "name": "hand",
              "type": "tuple[2]"
            },
            {
              "internalType": "uint256",
              "name": "currentBet",
              "type": "uint256"
            }
          ],
          "internalType": "struct Poker.Player",
          "name": "_player1",
          "type": "tuple"
        },
        {
          "components": [
            {
              "internalType": "uint256",
              "name": "balance",
              "type": "uint256"
            },
            {
              "components": [
                {
                  "internalType": "string",
                  "name": "rank",
                  "type": "string"
                },
                {
                  "internalType": "string",
                  "name": "suit",
                  "type": "string"
                }
              ],
              "internalType": "struct CardLib.Card[2]",
              "name": "hand",
              "type": "tuple[2]"
            },
            {
              "internalType": "uint256",
              "name": "currentBet",
              "type": "uint256"
            }
          ],
          "internalType": "struct Poker.Player",
          "name": "_player2",
          "type": "tuple"
        }
      ],
      "name": "endOfHand",
      "outputs": [],
      "stateMutability": "nonpayable",
      "type": "function"
    }
  ],
  "bytecode": "0x6080604052600a607e60006101000a81548160ff021916908360ff1602179055506005607e60016101000a81548160ff021916908360ff1602179055503480156200004957600080fd5b50604051620021bc380380620021bc83398181016040528101906200006f919062000480565b600073__CardLib_______________________________63e6624c326040518163ffffffff1660e01b815260040160006040518083038186803b158015620000b657600080fd5b505af4158015620000cb573d6000803e3d6000fd5b505050506040513d6000823e3d601f19601f82011682018060405250810190620000f691906200043b565b905060005b6034811015620001da578181603481106200013f577f4e487b7100000000000000000000000000000000000000000000000000000000600052603260045260246000fd5b6020020151600c82603481106200017f577f4e487b7100000000000000000000000000000000000000000000000000000000600052603260045260246000fd5b600202016000820151816000019080519060200190620001a1929190620001f7565b506020820151816001019080519060200190620001c0929190620001f7565b509050508080620001d190620005f5565b915050620000fb565b5082600080018190555081600660000181905550505050620006fb565b828054620002059062000589565b90600052602060002090601f01602090048101928262000229576000855562000275565b82601f106200024457805160ff191683800117855562000275565b8280016001018555821562000275579182015b828111156200027457825182559160200191906001019062000257565b5b50905062000284919062000288565b5090565b5b80821115620002a357600081600090555060010162000289565b5090565b6000620002be620002b884620004ea565b620004c1565b9050808260005b85811015620002f95781518501620002de88826200039f565b845260208401935060208301925050600181019050620002c5565b5050509392505050565b60006200031a620003148462000513565b620004c1565b9050828152602081018484840111156200033357600080fd5b6200034084828562000553565b509392505050565b600082601f8301126200035a57600080fd5b603462000369848285620002a7565b91505092915050565b600082601f8301126200038457600080fd5b81516200039684826020860162000303565b91505092915050565b600060408284031215620003b257600080fd5b620003be6040620004c1565b9050600082015167ffffffffffffffff811115620003db57600080fd5b620003e98482850162000372565b600083015250602082015167ffffffffffffffff8111156200040a57600080fd5b620004188482850162000372565b60208301525092915050565b6000815190506200043581620006e1565b92915050565b6000602082840312156200044e57600080fd5b600082015167ffffffffffffffff8111156200046957600080fd5b620004778482850162000348565b91505092915050565b600080604083850312156200049457600080fd5b6000620004a48582860162000424565b9250506020620004b78582860162000424565b9150509250929050565b6000620004cd620004e0565b9050620004db8282620005bf565b919050565b6000604051905090565b600067ffffffffffffffff821115620005085762000507620006a1565b5b602082029050919050565b600067ffffffffffffffff821115620005315762000530620006a1565b5b6200053c82620006d0565b9050602081019050919050565b6000819050919050565b60005b838110156200057357808201518184015260208101905062000556565b8381111562000583576000848401525b50505050565b60006002820490506001821680620005a257607f821691505b60208210811415620005b957620005b862000672565b5b50919050565b620005ca82620006d0565b810181811067ffffffffffffffff82111715620005ec57620005eb620006a1565b5b80604052505050565b6000620006028262000549565b91507fffffffffffffffffffffffffffffffffffffffffffffffffffffffffffffffff82141562000638576200063762000643565b5b600182019050919050565b7f4e487b7100000000000000000000000000000000000000000000000000000000600052601160045260246000fd5b7f4e487b7100000000000000000000000000000000000000000000000000000000600052602260045260246000fd5b7f4e487b7100000000000000000000000000000000000000000000000000000000600052604160045260246000fd5b6000601f19601f8301169050919050565b620006ec8162000549565b8114620006f857600080fd5b50565b611ab1806200070b6000396000f3fe608060405234801561001057600080fd5b50600436106101005760003560e01c80639126fde211610097578063cfe7ec3511610066578063cfe7ec351461024d578063de6b25b114610269578063f3f90a7914610287578063f5660f05146102a557610100565b80639126fde2146101d7578063a9f346e3146101f5578063b96acdee14610213578063bf9734d71461022f57610100565b80635e7915af116100d35780635e7915af146101655780635fd6b26b146101815780636b9857af1461019d5780638a5cc403146101bb57610100565b8063018c78341461010557806309670bdc1461010f5780630da5e01f1461012b5780632e5663ec14610149575b600080fd5b61010d6102c3565b005b61012960048036038101906101249190611112565b6106a9565b005b610133610788565b6040516101409190611695565b60405180910390f35b610163600480360381019061015e9190611229565b610794565b005b61017f600480360381019061017a9190611229565b6107a1565b005b61019b600480360381019061019691906111bd565b6107ae565b005b6101a561088a565b6040516101b291906116b0565b60405180910390f35b6101d560048036038101906101d09190611229565b6108a1565b005b6101df6108ad565b6040516101ec9190611695565b60405180910390f35b6101fd6108ba565b60405161020a9190611695565b60405180910390f35b61022d60048036038101906102289190611229565b6108c6565b005b6102376108d3565b6040516102449190611627565b60405180910390f35b61026760048036038101906102629190611112565b610a4c565b005b610271610b2b565b60405161027e9190611627565b60405180910390f35b61028f610ca4565b60405161029c91906116b0565b60405180910390f35b6102ad610cbb565b6040516102ba9190611695565b60405180910390f35b600073__CardLib_______________________________63e6624c326040518163ffffffff1660e01b815260040160006040518083038186803b15801561030957600080fd5b505af415801561031d573d6000803e3d6000fd5b505050506040513d6000823e3d601f19601f820116820180604052508101906103469190611153565b905060005b60348110156104205781816034811061038d577f4e487b7100000000000000000000000000000000000000000000000000000000600052603260045260246000fd5b6020020151600c82603481106103cc577f4e487b7100000000000000000000000000000000000000000000000000000000600052603260045260246000fd5b6002020160008201518160000190805190602001906103ec929190610cc8565b506020820151816001019080519060200190610409929190610cc8565b50905050808061041890611966565b91505061034b565b5060005b60028110156104f1576040518060400160405280604051806020016040528060008152508152602001604051806020016040528060008152508152506000600101826002811061049d577f4e487b7100000000000000000000000000000000000000000000000000000000600052603260045260246000fd5b6002020160008201518160000190805190602001906104bd929190610cc8565b5060208201518160010190805190602001906104da929190610cc8565b5090505080806104e990611966565b915050610424565b5060005b60028110156105c2576040518060400160405280604051806020016040528060008152508152602001604051806020016040528060008152508152506006600101826002811061056e577f4e487b7100000000000000000000000000000000000000000000000000000000600052603260045260246000fd5b60020201600082015181600001908051906020019061058e929190610cc8565b5060208201518160010190805190602001906105ab929190610cc8565b5090505080806105ba90611966565b9150506104f5565b5060005b6005811015610690576040518060400160405280604051806020016040528060008152508152602001604051806020016040528060008152508152506074826005811061063c577f4e487b7100000000000000000000000000000000000000000000000000000000600052603260045260246000fd5b60020201600082015181600001908051906020019061065c929190610cc8565b506020820151816001019080519060200190610679929190610cc8565b50905050808061068890611966565b9150506105c6565b5060008060050181905550600060066005018190555050565b60005b6002811015610784578181600281106106ee577f4e487b7100000000000000000000000000000000000000000000000000000000600052603260045260246000fd5b602002015160066001018260028110610730577f4e487b7100000000000000000000000000000000000000000000000000000000600052603260045260246000fd5b600202016000820151816000019080519060200190610750929190610cc8565b50602082015181600101908051906020019061076d929190610cc8565b50905050808061077c90611966565b9150506106ac565b5050565b60008060050154905090565b8060006005018190555050565b8060066005018190555050565b73__PlayLib_______________________________639a64cfaf838360746040518463ffffffff1660e01b81526004016107ea93929190611649565b60206040518083038186803b15801561080257600080fd5b505af4158015610816573d6000803e3d6000fd5b505050506040513d601f19601f8201168201806040525081019061083a9190611194565b15610864576000600501546000800160008282546108589190611814565b92505081905550610886565b6006600501546006600001600082825461087e919061186a565b925050819055505b5050565b6000607e60019054906101000a900460ff16905090565b80600080018190555050565b6000600660050154905090565b60008060000154905090565b8060066000018190555050565b6108db610d4e565b6006600101600280602002604051908101604052809291906000905b82821015610a435783826002020160405180604001604052908160008201805461092090611903565b80601f016020809104026020016040519081016040528092919081815260200182805461094c90611903565b80156109995780601f1061096e57610100808354040283529160200191610999565b820191906000526020600020905b81548152906001019060200180831161097c57829003601f168201915b505050505081526020016001820180546109b290611903565b80601f01602080910402602001604051908101604052809291908181526020018280546109de90611903565b8015610a2b5780601f10610a0057610100808354040283529160200191610a2b565b820191906000526020600020905b815481529060010190602001808311610a0e57829003601f168201915b505050505081525050815260200190600101906108f7565b50505050905090565b60005b6002811015610b2757818160028110610a91577f4e487b7100000000000000000000000000000000000000000000000000000000600052603260045260246000fd5b602002015160006001018260028110610ad3577f4e487b7100000000000000000000000000000000000000000000000000000000600052603260045260246000fd5b600202016000820151816000019080519060200190610af3929190610cc8565b506020820151816001019080519060200190610b10929190610cc8565b509050508080610b1f90611966565b915050610a4f565b5050565b610b33610d4e565b6000600101600280602002604051908101604052809291906000905b82821015610c9b57838260020201604051806040016040529081600082018054610b7890611903565b80601f0160208091040260200160405190810160405280929190818152602001828054610ba490611903565b8015610bf15780601f10610bc657610100808354040283529160200191610bf1565b820191906000526020600020905b815481529060010190602001808311610bd457829003601f168201915b50505050508152602001600182018054610c0a90611903565b80601f0160208091040260200160405190810160405280929190818152602001828054610c3690611903565b8015610c835780601f10610c5857610100808354040283529160200191610c83565b820191906000526020600020905b815481529060010190602001808311610c6657829003601f168201915b50505050508152505081526020019060010190610b4f565b50505050905090565b6000607e60009054906101000a900460ff16905090565b6000600660000154905090565b828054610cd490611903565b90600052602060002090601f016020900481019282610cf65760008555610d3d565b82601f10610d0f57805160ff1916838001178555610d3d565b82800160010185558215610d3d579182015b82811115610d3c578251825591602001919060010190610d21565b5b509050610d4a9190610d7b565b5090565b60405180604001604052806002905b610d65610d98565b815260200190600190039081610d5d5790505090565b5b80821115610d94576000816000905550600101610d7c565b5090565b604051806040016040528060608152602001606081525090565b6000610dc5610dc0846116f0565b6116cb565b9050808260005b85811015610dfc5781358501610de28882610f8d565b845260208401935060208301925050600181019050610dcc565b5050509392505050565b6000610e19610e1484611716565b6116cb565b9050808260005b85811015610e505781518501610e368882611009565b845260208401935060208301925050600181019050610e20565b5050509392505050565b6000610e6d610e688461173c565b6116cb565b905082815260208101848484011115610e8557600080fd5b610e908482856118c1565b509392505050565b6000610eab610ea68461173c565b6116cb565b905082815260208101848484011115610ec357600080fd5b610ece8482856118d0565b509392505050565b600082601f830112610ee757600080fd5b6002610ef4848285610db2565b91505092915050565b600082601f830112610f0e57600080fd5b6034610f1b848285610e06565b91505092915050565b600081519050610f3381611a4d565b92915050565b600082601f830112610f4a57600080fd5b8135610f5a848260208601610e5a565b91505092915050565b600082601f830112610f7457600080fd5b8151610f84848260208601610e98565b91505092915050565b600060408284031215610f9f57600080fd5b610fa960406116cb565b9050600082013567ffffffffffffffff811115610fc557600080fd5b610fd184828501610f39565b600083015250602082013567ffffffffffffffff811115610ff157600080fd5b610ffd84828501610f39565b60208301525092915050565b60006040828403121561101b57600080fd5b61102560406116cb565b9050600082015167ffffffffffffffff81111561104157600080fd5b61104d84828501610f63565b600083015250602082015167ffffffffffffffff81111561106d57600080fd5b61107984828501610f63565b60208301525092915050565b60006060828403121561109757600080fd5b6110a160606116cb565b905060006110b1848285016110fd565b600083015250602082013567ffffffffffffffff8111156110d157600080fd5b6110dd84828501610ed6565b60208301525060406110f1848285016110fd565b60408301525092915050565b60008135905061110c81611a64565b92915050565b60006020828403121561112457600080fd5b600082013567ffffffffffffffff81111561113e57600080fd5b61114a84828501610ed6565b91505092915050565b60006020828403121561116557600080fd5b600082015167ffffffffffffffff81111561117f57600080fd5b61118b84828501610efd565b91505092915050565b6000602082840312156111a657600080fd5b60006111b484828501610f24565b91505092915050565b600080604083850312156111d057600080fd5b600083013567ffffffffffffffff8111156111ea57600080fd5b6111f685828601611085565b925050602083013567ffffffffffffffff81111561121357600080fd5b61121f85828601611085565b9150509250929050565b60006020828403121561123b57600080fd5b6000611249848285016110fd565b91505092915050565b600061125e83836114de565b905092915050565b60006112728383611522565b905092915050565b60006112868383611566565b905092915050565b600061129982611796565b6112a381856117d1565b9350836020820285016112b58561176d565b8060005b858110156112f157848403895281516112d28582611252565b94506112dd836117b7565b925060208a019950506001810190506112b9565b50829750879550505050505092915050565b600061130e82611796565b61131881856117dc565b93508360208202850161132a8561176d565b8060005b8581101561136657848403895281516113478582611266565b9450611352836117b7565b925060208a0199505060018101905061132e565b50829750879550505050505092915050565b6000611383826117a1565b61138d81856117e7565b93508360208202850161139f85611777565b8060005b858110156113da578484038952816113bb858261127a565b94506113c6836117c4565b925060208a019950506001810190506113a3565b50829750879550505050505092915050565b60006113f7826117ac565b61140181856117f2565b93506114118185602086016118d0565b61141a81611a3c565b840191505092915050565b6000611430826117ac565b61143a8185611803565b935061144a8185602086016118d0565b61145381611a3c565b840191505092915050565b6000815461146b81611903565b6114758186611803565b9450600182166000811461149057600181146114a2576114d5565b60ff19831686526020860193506114d5565b6114ab85611781565b60005b838110156114cd578154818901526001820191506020810190506114ae565b808801955050505b50505092915050565b600060408301600083015184820360008601526114fb82826113ec565b9150506020830151848203602086015261151582826113ec565b9150508091505092915050565b6000604083016000830151848203600086015261153f8282611425565b915050602083015184820360208601526115598282611425565b9150508091505092915050565b60006040830160008084018583036000870152611583838261145e565b92505060018401858303602087015261159c838261145e565b925050819250505092915050565b60006060830160008301516115c26000860182611609565b50602083015184820360208601526115da8282611303565b91505060408301516115ef6040860182611609565b508091505092915050565b611603816118aa565b82525050565b611612816118aa565b82525050565b611621816118b4565b82525050565b60006020820190508181036000830152611641818461128e565b905092915050565b6000606082019050818103600083015261166381866115aa565b9050818103602083015261167781856115aa565b9050818103604083015261168b8184611378565b9050949350505050565b60006020820190506116aa60008301846115fa565b92915050565b60006020820190506116c56000830184611618565b92915050565b60006116d56116e6565b90506116e18282611935565b919050565b6000604051905090565b600067ffffffffffffffff82111561170b5761170a611a0d565b5b602082029050919050565b600067ffffffffffffffff82111561173157611730611a0d565b5b602082029050919050565b600067ffffffffffffffff82111561175757611756611a0d565b5b61176082611a3c565b9050602081019050919050565b6000819050919050565b6000819050919050565b60008190508160005260206000209050919050565b600060029050919050565b600060059050919050565b600081519050919050565b6000602082019050919050565b6000600282019050919050565b600081905092915050565b600081905092915050565b600081905092915050565b600082825260208201905092915050565b600082825260208201905092915050565b600061181f826118aa565b915061182a836118aa565b9250827fffffffffffffffffffffffffffffffffffffffffffffffffffffffffffffffff0382111561185f5761185e6119af565b5b828201905092915050565b6000611875826118aa565b9150611880836118aa565b925082821015611893576118926119af565b5b828203905092915050565b60008115159050919050565b6000819050919050565b600060ff82169050919050565b82818337600083830152505050565b60005b838110156118ee5780820151818401526020810190506118d3565b838111156118fd576000848401525b50505050565b6000600282049050600182168061191b57607f821691505b6020821081141561192f5761192e6119de565b5b50919050565b61193e82611a3c565b810181811067ffffffffffffffff8211171561195d5761195c611a0d565b5b80604052505050565b6000611971826118aa565b91507fffffffffffffffffffffffffffffffffffffffffffffffffffffffffffffffff8214156119a4576119a36119af565b5b600182019050919050565b7f4e487b7100000000000000000000000000000000000000000000000000000000600052601160045260246000fd5b7f4e487b7100000000000000000000000000000000000000000000000000000000600052602260045260246000fd5b7f4e487b7100000000000000000000000000000000000000000000000000000000600052604160045260246000fd5b6000601f19601f8301169050919050565b611a568161189e565b8114611a6157600080fd5b50565b611a6d816118aa565b8114611a7857600080fd5b5056fea2646970667358221220442ff85632da6a429d9af2da4928a0e527d3b03f48c91ad2ead79ba61b589ab064736f6c63430008020033",
  "immutableReferences": {},
  "source": "// SPDX-License-Identifier: MIT\r\n// @ Author: Bertan Berker\r\n// @ Filename: Poker.sol\r\n\r\n\r\npragma solidity ^0.8.2;\r\n\r\nimport './PlayLib.sol';\r\nimport './CardLib.sol';\r\n\r\ncontract Poker {\r\n\r\n    struct Player {\r\n        uint256 balance;\r\n        CardLib.Card[2] hand;\r\n        uint256 currentBet;\r\n    }\r\n\r\n    Player player1;\r\n    Player player2;\r\n\tCardLib.Card[52] deck;\r\n    CardLib.Card[5] table;\r\n    uint8 bigBlind = 10;\r\n    uint8 smallBlind = 5;\r\n\r\n\r\n    // This is the constructor for the contract\r\n    constructor(uint256 _balance1, uint256 _balance2) {\r\n        CardLib.Card[52] memory tempDeck = CardLib.createDeck();\r\n        for (uint i = 0; i < tempDeck.length; i++) {\r\n            deck[i] = tempDeck[i];\r\n        }\r\n        player1.balance = _balance1;\r\n        player2.balance = _balance2;\r\n    }\r\n\r\n\r\n    // These are the setters for the contract\r\n    function setPlayer1Balance(uint256 _balance) public {\r\n        player1.balance = _balance;\r\n    }\r\n\r\n    function setPlayer2Balance(uint256 _balance) public {\r\n        player2.balance = _balance;\r\n    }\r\n\r\n    function setPlayer1CurrentBet(uint256 _bet) public {\r\n        player1.currentBet = _bet;\r\n    }\r\n\r\n    function setPlayer2CurrentBet(uint256 _bet) public {\r\n        player2.currentBet = _bet;\r\n    }\r\n\r\n    function setPlayer1Hand(CardLib.Card[2] memory _hand) public {\r\n        for (uint i = 0; i < 2; i++) {\r\n            player1.hand[i] = _hand[i];\r\n        }\r\n    } \r\n\r\n    function setPlayer2Hand(CardLib.Card[2] memory _hand) public {\r\n        for (uint i = 0; i < 2; i++) {\r\n            player2.hand[i] = _hand[i];\r\n        }\r\n    } \r\n\r\n\r\n    // These are the getters for the contract\r\n    function getBigBlind() public view returns (uint8) {\r\n        return bigBlind;\r\n    }\r\n\r\n    function getSmallBlind() public view returns (uint8) {\r\n        return smallBlind;\r\n    }\r\n\r\n    function getPlayer1Balance() public view returns (uint256){\r\n        return player1.balance;\r\n    }\r\n\r\n    function getPlayer2Balance() public view returns (uint256) {\r\n        return player2.balance;\r\n    }\r\n\r\n    function getPlayer1CurrentBet() public view returns (uint256) {\r\n        return player1.currentBet;\r\n    }\r\n\r\n    function getPlayer2CurrentBet() public view returns (uint256) {\r\n        return player2.currentBet;\r\n    }\r\n\r\n    function getPlayer1Hand() public view returns (CardLib.Card[2] memory) {\r\n        return player1.hand;\r\n    }\r\n    \r\n    function getPlayer2Hand() public view returns (CardLib.Card[2] memory) {\r\n        return player2.hand;\r\n    }   \r\n\r\n    // Miscellaneous Functions\r\n    function getNewDeck() public {\r\n        CardLib.Card[52] memory tempDeck = CardLib.createDeck();\r\n        for (uint i = 0; i < tempDeck.length; i++) {\r\n            deck[i] = tempDeck[i];\r\n        }\r\n        \r\n        // Initialize hands and table\r\n        for (uint i = 0; i < player1.hand.length; i++) {\r\n            player1.hand[i] = CardLib.Card(\"\", \"\");\r\n        }\r\n        \r\n        for (uint i = 0; i < player2.hand.length; i++) {\r\n            player2.hand[i] = CardLib.Card(\"\", \"\");\r\n        }\r\n        \r\n        for (uint i = 0; i < table.length; i++) {\r\n            table[i] = CardLib.Card(\"\", \"\");\r\n        }\r\n\r\n        player1.currentBet = 0;\r\n        player2.currentBet = 0;\r\n\r\n    }\r\n\r\n    function endOfHand(Player memory _player1, Player memory _player2) public {\r\n        // End of River\r\n        if (PlayLib.chooseWinner(_player1, _player2, table)) {\r\n            // Player1 wins\r\n            player1.balance += player1.currentBet;\r\n        }\r\n\r\n        else{\r\n            // Player2 wins\r\n            player2.balance -= player2.currentBet;\r\n        }\r\n    }\r\n\r\n}",
  "sourcePath": "C:\\Users\\berta\\Desktop\\Poker-Bot\\PokerSmartContract\\contracts\\Poker.sol",
  "compiler": {
    "name": "solc",
    "version": "0.8.2+commit.661d1103.Emscripten.clang"
  },
  "schemaVersion": "3.4.16",
  "updatedAt": "2024-06-23T13:20:02.424Z",
  "networkType": "ethereum",
  "devdoc": {
    "kind": "dev",
    "methods": {},
    "version": 1
  },
  "userdoc": {
    "kind": "user",
    "methods": {},
    "version": 1
  }
}